{
  "address": "0x0e47A2B3de8c3dC9d7F11952164d73A0c1D9D5aC",
  "abi": [
    {
      "inputs": [],
      "name": "chest",
      "outputs": [
        {
          "internalType": "string",
          "name": "",
          "type": "string"
        }
      ],
      "stateMutability": "view",
      "type": "function"
    },
    {
      "inputs": [],
      "name": "foot",
      "outputs": [
        {
          "internalType": "string",
          "name": "",
          "type": "string"
        }
      ],
      "stateMutability": "view",
      "type": "function"
    },
    {
      "inputs": [],
      "name": "hand",
      "outputs": [
        {
          "internalType": "string",
          "name": "",
          "type": "string"
        }
      ],
      "stateMutability": "view",
      "type": "function"
    },
    {
      "inputs": [],
      "name": "head",
      "outputs": [
        {
          "internalType": "string",
          "name": "",
          "type": "string"
        }
      ],
      "stateMutability": "view",
      "type": "function"
    },
    {
      "inputs": [],
      "name": "itemSize",
      "outputs": [
        {
          "internalType": "uint256",
          "name": "",
          "type": "uint256"
        }
      ],
      "stateMutability": "view",
      "type": "function"
    },
    {
      "inputs": [],
      "name": "neck",
      "outputs": [
        {
          "internalType": "string",
          "name": "",
          "type": "string"
        }
      ],
      "stateMutability": "view",
      "type": "function"
    },
    {
      "inputs": [],
      "name": "ring",
      "outputs": [
        {
          "internalType": "string",
          "name": "",
          "type": "string"
        }
      ],
      "stateMutability": "view",
      "type": "function"
    },
    {
      "inputs": [],
      "name": "skeleton",
      "outputs": [
        {
          "internalType": "string",
          "name": "",
          "type": "string"
        }
      ],
      "stateMutability": "view",
      "type": "function"
    },
    {
      "inputs": [],
      "name": "waist",
      "outputs": [
        {
          "internalType": "string",
          "name": "",
          "type": "string"
        }
      ],
      "stateMutability": "view",
      "type": "function"
    },
    {
      "inputs": [],
      "name": "weapon",
      "outputs": [
        {
          "internalType": "string",
          "name": "",
          "type": "string"
        }
      ],
      "stateMutability": "view",
      "type": "function"
    }
  ],
  "transactionHash": "0xff452849790832c8fb588a8502820d97a0f145adffb517ba05f3a19648554293",
  "args": [],
  "numDeployments": 3,
  "solcInputHash": "493cebc4e2853a97d41381074afb3489",
  "bytecode": "0x608060405234801561001057600080fd5b5061229d806100206000396000f3fe608060405234801561001057600080fd5b506004361061009d5760003560e01c806385ead00a1161006657806385ead00a146101385780638df6fbcc146101565780638f7dcfa314610174578063ad56f71914610192578063bb763385146101b05761009d565b8062416200146100a257806307a2f955146100c05780633a2b1d21146100de57806364026ac0146100fc5780638360c1851461011a575b600080fd5b6100aa6101ce565b6040516100b79190610381565b60405180910390f35b6100c86101ed565b6040516100d591906103bc565b60405180910390f35b6100e66101f2565b6040516100f39190610381565b60405180910390f35b610104610211565b6040516101119190610381565b60405180910390f35b610122610230565b60405161012f9190610381565b60405180910390f35b61014061024f565b60405161014d9190610381565b60405180910390f35b61015e61026c565b60405161016b9190610381565b60405180910390f35b61017c61028b565b6040516101899190610381565b60405180910390f35b61019a6102aa565b6040516101a79190610381565b60405180910390f35b6101b86102c9565b6040516101c59190610381565b60405180910390f35b604051806103c001604052806103948152602001611328610394913981565b603281565b6040518061040001604052806103c88152602001610f606103c8913981565b604051806106600160405280610624815260200161093c610624913981565b60405180610140016040528061010c815260200161083061010c913981565b60405180610120016040528060f881526020016116bc60f8913981565b604051806103c0016040528061039881526020016117b4610398913981565b6040518061062001604052806105f08152602001611c786105f0913981565b60405180610480016040528061045881526020016103d8610458913981565b60405180610160016040528061012c8152602001611b4c61012c913981565b600081519050919050565b600082825260208201905092915050565b60005b83811015610322578082015181840152602081019050610307565b83811115610331576000848401525b50505050565b6000601f19601f8301169050919050565b6000610353826102e8565b61035d81856102f3565b935061036d818560208601610304565b61037681610337565b840191505092915050565b6000602082019050818103600083015261039b8184610348565b905092915050565b6000819050919050565b6103b6816103a3565b82525050565b60006020820190506103d160008301846103ad565b9291505056fe646174613a696d6167652f706e673b636861727365743a7574662d383b6261736536342c6956424f5277304b47676f414141414e535568455567414141753441414141794341594141414144666c36334141414337456c45515652346e4f33597359736364525148384c647159353143386864596541687946724537776f477074727641706b6d565053575178694b6b534a56434c4e4b736856363253724d4272776c5869617a4864626d4153304a4931476845304b4165636f57656b504a5a48484e5a316b79476c52562f457a3466574962336654413762356d46487938434141414141414141414141414141414141414141414141414141414141414141414141414141414141414141414141414141414141414141414141414141414141414141414141414141414141414141414141414141414141414141414141414141414141414141414141414141414141414141414141414141414141414141414141414141414141414234707278334e76506532617972322b4a466d574d77484f56674f4d71367569304777314632652f326a352b37322b7132616f397672352f536e4b5339647270334b58447556645856726a43396d6a43396d62643069732f2f7a2f2f4e5a2f713256706156635756724b75726f7431727664584f39327336357569394d50482b547068772b79726d364c6a65584d6d2b667a364c6c766e732f63574d37577a66486b3675563863765679317456746b5a504e7a4d6c6d31745674636678533576464c54392b6a32587252587671766267774141437a4f4b34752b59644d327575703333727a65576652334c394b4c4d6b665478713371587a6833707567357572312b72703563696648325471796558496d744739636949714c4b42734e526a7264335975764774574c6e6d47655433753331732b525a6d72627156622b7a2b586d784d3052454e473756712f3771523058504d52694f38734b354d3533715775585432577976524531623961712f632f392b30584d30626457722f7362575674467a4e473356712f356e7237395239427a56567632314578463775302f7a7664334462434d4f2b2b75545474467a4e473356712f367248317770656f366d7258725637797976465431483031613936762f3634574c667134556633442b2b2f65354d6376323565616e2b2b75583258486d707676373275376e79556b3066327366624f30663564445a396f432f527a7a2f572f2b62503635566f386e677649694c65766e576e38395537622b563050707556374e6a3366305245785037376e33614f66664a65376b2f6c565259527356393367304c554864446264476950694467344f4a67724c3956762b38392b592b72795574333536596535386c49392b6e4e79655033696e2f6c7356724b5876376b7956313671753438657a355758367666644c2b664b4151414141414141414141414141414141414141414141414141414141414141414141414141444b39546675644a484377563744794141414141424a52553545726b4a6767673d3d646174613a696d6167652f706e673b636861727365743a7574662d383b6261736536342c6956424f5277304b47676f414141414e535568455567414141506f414141417943415941414142315638626b4141414163306c45515652346e4f33506f5132414d4242413064704f53584234466b41784142626652626f424378304357396d4535504c6542502b58416741414141414141414141414141414141414141414141414141414141414141414141414d416e6e69582b62706a68756c754b6a334f744b5435616a7851663233366b2b414141414141414141414141414141414141414141414141414267374157437167327973714852526741414141424a52553545726b4a6767673d3d646174613a696d6167652f706e673b636861727365743a7574662d383b6261736536342c6956424f5277304b47676f414141414e535568455567414141753441414141794341594141414144666c363341414145526b6c45515652346e4f336450326864565277483842747862484149556933464476344c57735353495a5575495162614b5534563069565430344b3069344f3475596c724f306962795355467530696d56474c496d49424243565771786b564b4e5567475466666e49426554654f2b35392b5864392b34356a383848776f50334f79532f382f4b533933302f546d3679444141414141414141414141414141414141414141414141414141414141414141414141414141414141414141414141414141414141414141414141414141414141414141414141414141414141414141434257372f2f30512b6334746468383955476e744e64514c5461647266756c76595a7173586e78342f4c485046534c7a6244736f33503555766e7a4b6c434c7a7570483562324761765446314e6d7a705939357142616261374f7a7062324761724870624d2b582f3577486172485a58786b76375456556938327478615853586b4f31324952366e5a3162534759666258696d58352b344b4b436e464e717a4c4d74324e346f442b70324a644d4a567269696770785461633058424e7157776d78755766525146394b52436536346f6f43635532764d587762495877355265304c4f734f4b436e464e707a52514539706443655a566c32652f4e693466506e31754a53352f626d78545a614f7059547079594c33326830747563374a30354e74744853735a56395039726f356268573139594c65353664572b6a4d54452b31304648335a7563574f766c484e37566539533234443476646a653775427869306d3165766a4e7861584f72637648706c35476774767a2b3146335a67654d314d54325772612b7531372b632f2f2f736c333453717966715872372f5a6c362f627448797966764c383466767a304835746179534a6656524e316b636d4c6965786a36714a394f2b667076483947495a39314a32716a39786669587376646166714d35394676592b4434547830323361665665704f31646366506f78364c33576e366e65576c36506552326437766e4b71666d5079515462793168645237324e2f5a627879717637307957593265756c523150756f2b2b5937685a2f31664c4b2b757261654664326d736f633636356276335731304c343150334f736368306e68794d7a42497a4b374734632f69746245717335786d42534f7a4e513552704c6955524e6f517033516275494f784b4171744a63646f2b46666a73715563425147534d5777544e794234566356326c4d364c704f6678362b3662644b7a6a582f474c4d752b2b2b33585950336353792f333438733262756676726643436a596e424e4e4b6a37336365422b747676334a36514a333035732b4e62344c3135382b2f4f36424f656c4f316a3152735064344e3169644f6e7878514a37305a2b2b57765948337631656347314d6e78315a323470784465392f6633672f58523064454264644b62502f6232677655587873594731456c76626b772b614c7546526a783973746c32433433343864485077666f623436384e714a506a717850615a36616e737556376439747574564c2b427150714e6d7244636c536d7a70566a557269366a4b4d79394d4f3337357972664b7a7272476e62324f66584b33757373345a6d544a7735552f6c5931316e5474766375584b6a73736334614f4f6a3668353955506d66717249464442506534434f3441414d4f6830545075335154796d4d4e374e333930476e4e343779615178787a6575776e6b776a73414d4b7a3863536f41414353674c3845394e45325065644b657936386f4535716d787a787050796f3054593935306e3555614a707530673441444473543934436a2f336970327a6f414144536c30637442566c3047737536617475575867647a354f72776d5649394231575567363635705735334c4a77374c4a525942414141414141414141414141414141414141414141414141414141414141414141414141414141414141414141414141414141414141414141414167517638413956786b5042515243773041414141415355564f524b35435949493d646174613a696d6167652f706e673b636861727365743a7574662d383b6261736536342c6956424f5277304b47676f414141414e5355684555674141413451414141417943415941414141454e52584f4141414367556c45515652346e4f3364505735545152674630486b6f6249434f4261536c774653702b42456c5755436143416b7256644a5273414a36707a4a4f41593262644b594d494b7055435558614c494246554179464e636767306a69785a7562544f644c49375863316c742b372f686d6e4241414141414141414141414141414141414141414141414141414141414141414141414141414141414141414141414141414141414141414141414141414141414141414141414141414141414141414141414141414141414141414141414141414141414141414141414141414141414141414141414141414141414141414141414141424153766e794e4e656534533749305a624a624234695235543932486e78536f3647524d6d52722f626c614d69446b354d514f64357558345449456555367550587353396335446e5a33382b717150632b364a724e35586c323135316e5839746b6972363761383678724f7370354f736f35582b336e365368587a3347763967424132307235364c3245794e475755714a364c314e52636744784859333368715078336c42376a747434666e7a79312b4a75624e556541476a622b646650773251327a373166524f526f792f446f6b78784146373464766b6b707065344c534d2b6644425a6c4c2f35594c4f6f4d636b632b76503559653453556b6b494941414133367230494675574e7135364c34623937635631706a6d67555174696734782b2f616f3841414e42314553796966554959527052444d2b526f5334515872636c736e76506c6164632f336934695a456770526f34494759704957586f58345a43476c4a59484e61772b397572372b555575712f5973742f48773358496679694d51544a5454696f6f495253724b6670543565382b52556f774d4b636e425a74695074765265426f76657932445265786b736c45466f3339716e6a455934715967324859333351687a534d4a6e4e382b486a2b32353647324566344762625a3474382f584a336946414b44793648727138644b53334c344e4f644a304f4555766a7a66662f374164483532776b4141414367445a472b4d68714676574154504b3841414b414462747a5a424d38724141414141414141414141414141414141414141414141414141414141414141414141414141414141414141414141412b4a2f664a6a78496f5556744b565541414141415355564f524b35435949493d646174613a696d6167652f706e673b636861727365743a7574662d383b6261736536342c6956424f5277304b47676f414141414e535568455567414141753441414141794341594141414144666c36334141414357306c45515652346e4f3358505768655a5269413462762b64444934424b6c49745972476e30554d715453537057714d546e55554f31747873654167546b354f7855476f673050467365436f553432785a676d6d324242783853654b566f74594a495045715372486f52694b644648386a4a3965312f4a777a764365393936655577414141414141414141414141414141414141414141414141414141414141414141414141414141414141414141414141414141414141414141414141414141414141414141414141414141414141414141414141414141414141414141414141414141414141414141414141414141507a74646f3371344b315464773956313931306f4b7166766a74543163526a6e3437736d364d772b646f7a77385550762b376e6a7a2f72326e767632703562623577617134376a4a30344f56633865654b6571563838385774585249346648717550516b30385038773864624f6e3063706650636575596e6a3034564e3138323531566666765635315774727936505663665a4236614871706d39653670614f332b6871763066724939565230737644465754477a395774546c312f6158333838664771755034695a504430534f48642f3178377653392f71795a66667547716f6d4a6961713274726171576a74336271786148702b62473670756e4a79733676764e7a617265576c6b5a713436706439386571715a767562327139572b2b7247726a6b554e6a31664838314e6c68626d476d433675586e76664d317372695769397637422b726a6f74504e56543965732b4c565633397955745637583539644476644b4b792f2b63705164643864653676363649767a5655302f3864785964567a7a344e4a5164635073773158397350706556622b38507a2b536a7174476365682f7965564c2b2b3737623633616e767a7a727253304c35316533756c7277622f436c5a623233332f6134663975626d476d6c635731376565567862586d466d5a323845594141414141414141414141414141414141414141414141414141414141414141414141414141414141414141414141414141414141414141414141414141414141414141414141414177462f774738547a6d463972487773374141414141456c46546b5375516d4343646174613a696d6167652f706e673b636861727365743a7574662d383b6261736536342c6956424f5277304b47676f414141414e53556845556741414144494141414179434159414141416550346978414141415a6b6c45515652346e4f335851513641494177455150442f6636346e452f576f4c464579383443577070534731674141534f6e4a344656566c325339782f4a747163424c4f5470793730784376434d7a69346d5a6566686c6868314358742f5a7033507775666b5a38544b4e6947477a4130446165574f6e2f79624c62505a6c436745414148356e427a49764d2b705661756d514141414141456c46546b5375516d4343646174613a696d6167652f706e673b636861727365743a7574662d383b6261736536342c6956424f5277304b47676f414141414e535568455567414141753441414141794341594141414144666c36334141414358556c45515652346e4f335a7630745659526a413866645753374f44394263304a454859594a7549554a4f625153354e5a693075446448513542414e4c5461554f726b6f3548616e43424f33464c6f5959622b4e6f4b53536343694478744d5133687331645a37587a73452b6e2b56774c3577767a336b353939365865314943414141414141414141414141414141414141414141414141414141414141414141414141414141414141414141414141414141414141414141414141414141414141414141414141414141414141414141414141414141414141414141414341666151524f626c346372356f683437506c6d726c614554746c2b75596e4a6c727a7a412b4f6c4a716868794e714d6d5a75574a7861546b4e447653487269506169426736643648342f62336d2f5052667a5a476a6b554d78664b5a7a62792f634b2f6635794e414957377a5357632f42472b566d794e45496d70795a4b385a485278713778366f615566303950653231584635664c7a56446a6b6255324e4251653461705a72505544446b6155576466506d33506350666f7356497a354768455466555752586466536c73724b5932314771566d794e47492b6e377a576e737444312b654b4456446a6b5a553056726f66506633447066372f636a516944707974576a50385046367558736952794f6c6c413655505248327975364765334670756449473146474f445866566d336259533173724b58583356642b417658416f63764b7431644f2f764a71747242483137634e714c5270527a313638716b556a616e664450546a516e35727a303555314974362f6a61396a6a6b594f7263327464504c685775505271524e2f504148346c34326f727464663076616c4f3432753278654c37516f625566766c482f65646e5a31614e4b492b626366766842794e714c563362327252694e72343276703576463974492b726738346c614e4b496562327a576f684831656556424c526f414141414141414141414141414141414141414141414141414141414141414141414141414141414141414141414141414141414141414141414141414141414141414141414141414141414141414141414144412f2b514848327751715851325a413041414141415355564f524b35435949493d646174613a696d6167652f706e673b636861727365743a7574662d383b6261736536342c6956424f5277304b47676f414141414e5355684555674141414a594141414179434159414141432b6a4349614141414169306c45515652346e4f33537351324451417746554a4179544871326f61464b6d32486f4544307a5a4135575951436e4f676b704b57684f595052653663622b2b6d3461414141414141414141414141414944724775636c6a7379753769343574732f7a352b5a2f73785432425751736f37684c6a76306a7058327159707958794678474d5855525578667063385136524b784439527950326776657237367476514d4141414141414141414141414141414141414144674a463851747a536852794858484141414141424a52553545726b4a6767673d3d646174613a696d6167652f706e673b636861727365743a7574662d383b6261736536342c6956424f5277304b47676f414141414e535568455567414141753441414141794341594141414144666c36334141414548306c45515652346e4f336453326855567867413448394b63575074526f705953684571746c514944596b6b376170515337494b336468434e6f464b554a454d464266697a6c3070705a7449615352557943614c7572477544466830343474454c414f4b72394a5170465a4b466e3242784d4c744970317845753434786e45654a2f6b2b754e7954632b48652f352f4d356677354f584d6e4167414141414141414141414141414141414141414141414141414141414341616f566d6e5467726a575335462b796161746f316d3247743544452b4f56334a593678764a6f356447596949694f4c6f634c4a35644f33634561587274794d6937547971705a5a48746d63774b35773855366a58312f484f4873356939786546756e304a32505470594c5a6831375a596e4a32505236566238584475352b5279324463306c48742f484439394f716c637468374a63764f342f336b6871547979306b6857364a6f716c4d6644636a75316366446a5739647a66782f6676626b7a7154784f48637979423563662f37796c66326e2f3064654a76612b756e737976723372324a4a5648712b2f7a46357078306c72466272316a6e57617435464772534b7833724e50496f7a4e6c6577617a367133643854797a7334657a5a5675434e6e2b7a503374557568574c732f4f7859646532536c39376f3249747142377a5568722f796d6f563766574f645a726a5063754c396f69494235655874754d392b51566b4a367056744e6337316d6c71466533316a6a5869785761634e4349714d376f726a66584e4e4f755354664833723164792b31393674612f466b624357334c68354f37662f3762643274446953786c7939397942364c3130727a4c33626e555845736e5a4b4e742f354978594f5442544b525736357664447577465a706358592b4e75346469482b2b6e596b4e753762467872304473546737332b3677567532336866785866742f51554a6253725076766c332f49376439364a4d74536d6e57764e51366d35746f76502b583264372f2b526f736a61637a6450362f6d396d392f756166466b54546d78377633637676663266356169794e70544b33372f4a582b44357079766159563772582b35542b5732462f716d775a76357561526c667153796f504f4d76485630647a3356576f7a377232587268577139797662715667344d46476f33713973702b4b764532634b63574b702f5842756f7233424e4f443743786553652b337a2f4874756432346539382b314f704c4731426f485533506e77364863504c6f546d6e475069506a79546d39754871634f5a6c6e6b312f5164716675547a2f4c727134526d33434e71332b66523335775a393659736c51454134506b71723266507333494a445775547768304141424c51744b5579644937717a78555575715a69724451537864486879456f6a455246526246646771395331382f4836372f66663634337a462b65694f446f6335792f4f745445714147694e4a383271622b6d5053476d70444d39473462344f564839516548787949434a6d596e78794f6f3556506d38303159367756713338364d65496950484a3663712b7568384131694e4c5a64594868667336557877642f6e2b47666170532f4b616f4f44706361616563427744413033727568667653557a47652f4d6a4838636e70724e4f2f614f5a706e6c4f627968645146456548432f735048633069497659664f6c72707633487a6473326e6d335369745a4448307a77314a6f58374134445773787747414141414141414141414141414141414141414141414141414141414141414141414141414141414141414141414141414141414141414141414141414141414141414141414141414141414141414141414141414141414141414141414141414141414141414141414141414141414141414141414141414143415a2f556648316d46494c6f7635533441414141415355564f524b35435949493da2646970667358221220f63598e8fd5ea087400246032e13acd8b31af94ff5ab2e5103e3440cf57e33d464736f6c634300080c0033",
  "devdoc": {
    "kind": "dev",
    "methods": {},
    "version": 1
  },
  "userdoc": {
    "kind": "user",
    "methods": {},
    "version": 1
  },
  "storageLayout": {
    "storage": [],
    "types": null
  }
}