{
  "address": "0xF5aEdB99d72d84a70BE7a875Ad8232406FDBB91D",
  "abi": [
    {
      "inputs": [
        {
          "internalType": "string",
          "name": "_name",
          "type": "string"
        },
        {
          "internalType": "string",
          "name": "_symbol",
          "type": "string"
        },
        {
          "internalType": "address",
          "name": "_syntheticLootAddress",
          "type": "address"
        },
        {
          "internalType": "address",
          "name": "_syntheticLootCharacterAssetsAddress",
          "type": "address"
        }
      ],
      "stateMutability": "nonpayable",
      "type": "constructor"
    },
    {
      "anonymous": false,
      "inputs": [
        {
          "indexed": true,
          "internalType": "address",
          "name": "owner",
          "type": "address"
        },
        {
          "indexed": true,
          "internalType": "address",
          "name": "spender",
          "type": "address"
        },
        {
          "indexed": true,
          "internalType": "uint256",
          "name": "id",
          "type": "uint256"
        }
      ],
      "name": "Approval",
      "type": "event"
    },
    {
      "anonymous": false,
      "inputs": [
        {
          "indexed": true,
          "internalType": "address",
          "name": "owner",
          "type": "address"
        },
        {
          "indexed": true,
          "internalType": "address",
          "name": "operator",
          "type": "address"
        },
        {
          "indexed": false,
          "internalType": "bool",
          "name": "approved",
          "type": "bool"
        }
      ],
      "name": "ApprovalForAll",
      "type": "event"
    },
    {
      "anonymous": false,
      "inputs": [
        {
          "indexed": true,
          "internalType": "address",
          "name": "from",
          "type": "address"
        },
        {
          "indexed": true,
          "internalType": "address",
          "name": "to",
          "type": "address"
        },
        {
          "indexed": true,
          "internalType": "uint256",
          "name": "id",
          "type": "uint256"
        }
      ],
      "name": "Transfer",
      "type": "event"
    },
    {
      "inputs": [
        {
          "internalType": "address",
          "name": "_address",
          "type": "address"
        }
      ],
      "name": "_tokenURI",
      "outputs": [
        {
          "internalType": "string",
          "name": "",
          "type": "string"
        }
      ],
      "stateMutability": "view",
      "type": "function"
    },
    {
      "inputs": [
        {
          "internalType": "address",
          "name": "spender",
          "type": "address"
        },
        {
          "internalType": "uint256",
          "name": "id",
          "type": "uint256"
        }
      ],
      "name": "approve",
      "outputs": [],
      "stateMutability": "nonpayable",
      "type": "function"
    },
    {
      "inputs": [
        {
          "internalType": "address",
          "name": "",
          "type": "address"
        }
      ],
      "name": "balanceOf",
      "outputs": [
        {
          "internalType": "uint256",
          "name": "",
          "type": "uint256"
        }
      ],
      "stateMutability": "view",
      "type": "function"
    },
    {
      "inputs": [],
      "name": "cid",
      "outputs": [
        {
          "internalType": "string",
          "name": "",
          "type": "string"
        }
      ],
      "stateMutability": "view",
      "type": "function"
    },
    {
      "inputs": [],
      "name": "claim",
      "outputs": [],
      "stateMutability": "payable",
      "type": "function"
    },
    {
      "inputs": [],
      "name": "claimMessage",
      "outputs": [
        {
          "internalType": "string",
          "name": "",
          "type": "string"
        }
      ],
      "stateMutability": "view",
      "type": "function"
    },
    {
      "inputs": [
        {
          "internalType": "address",
          "name": "_signer",
          "type": "address"
        },
        {
          "internalType": "bytes",
          "name": "_signature",
          "type": "bytes"
        }
      ],
      "name": "claimOther",
      "outputs": [],
      "stateMutability": "payable",
      "type": "function"
    },
    {
      "inputs": [],
      "name": "claimPrice",
      "outputs": [
        {
          "internalType": "uint256",
          "name": "",
          "type": "uint256"
        }
      ],
      "stateMutability": "view",
      "type": "function"
    },
    {
      "inputs": [
        {
          "internalType": "address",
          "name": "",
          "type": "address"
        }
      ],
      "name": "claimed",
      "outputs": [
        {
          "internalType": "bool",
          "name": "",
          "type": "bool"
        }
      ],
      "stateMutability": "view",
      "type": "function"
    },
    {
      "inputs": [
        {
          "internalType": "uint256",
          "name": "id",
          "type": "uint256"
        }
      ],
      "name": "getAddress",
      "outputs": [
        {
          "internalType": "address",
          "name": "",
          "type": "address"
        }
      ],
      "stateMutability": "pure",
      "type": "function"
    },
    {
      "inputs": [
        {
          "internalType": "uint256",
          "name": "",
          "type": "uint256"
        }
      ],
      "name": "getApproved",
      "outputs": [
        {
          "internalType": "address",
          "name": "",
          "type": "address"
        }
      ],
      "stateMutability": "view",
      "type": "function"
    },
    {
      "inputs": [
        {
          "internalType": "bytes32",
          "name": "_messageHash",
          "type": "bytes32"
        }
      ],
      "name": "getEthSignedMessageHash",
      "outputs": [
        {
          "internalType": "bytes32",
          "name": "",
          "type": "bytes32"
        }
      ],
      "stateMutability": "pure",
      "type": "function"
    },
    {
      "inputs": [
        {
          "internalType": "string",
          "name": "_message",
          "type": "string"
        }
      ],
      "name": "getMessageHash",
      "outputs": [
        {
          "internalType": "bytes32",
          "name": "",
          "type": "bytes32"
        }
      ],
      "stateMutability": "pure",
      "type": "function"
    },
    {
      "inputs": [
        {
          "internalType": "address",
          "name": "_address",
          "type": "address"
        }
      ],
      "name": "getTokenID",
      "outputs": [
        {
          "internalType": "uint256",
          "name": "",
          "type": "uint256"
        }
      ],
      "stateMutability": "pure",
      "type": "function"
    },
    {
      "inputs": [
        {
          "internalType": "address",
          "name": "",
          "type": "address"
        },
        {
          "internalType": "address",
          "name": "",
          "type": "address"
        }
      ],
      "name": "isApprovedForAll",
      "outputs": [
        {
          "internalType": "bool",
          "name": "",
          "type": "bool"
        }
      ],
      "stateMutability": "view",
      "type": "function"
    },
    {
      "inputs": [],
      "name": "name",
      "outputs": [
        {
          "internalType": "string",
          "name": "",
          "type": "string"
        }
      ],
      "stateMutability": "view",
      "type": "function"
    },
    {
      "inputs": [
        {
          "internalType": "uint256",
          "name": "",
          "type": "uint256"
        }
      ],
      "name": "ownerOf",
      "outputs": [
        {
          "internalType": "address",
          "name": "",
          "type": "address"
        }
      ],
      "stateMutability": "view",
      "type": "function"
    },
    {
      "inputs": [
        {
          "internalType": "bytes32",
          "name": "_ethSignedMessageHash",
          "type": "bytes32"
        },
        {
          "internalType": "bytes",
          "name": "_signature",
          "type": "bytes"
        }
      ],
      "name": "recoverSigner",
      "outputs": [
        {
          "internalType": "address",
          "name": "",
          "type": "address"
        }
      ],
      "stateMutability": "pure",
      "type": "function"
    },
    {
      "inputs": [
        {
          "internalType": "uint256",
          "name": "",
          "type": "uint256"
        }
      ],
      "name": "renderOrder",
      "outputs": [
        {
          "internalType": "string",
          "name": "",
          "type": "string"
        }
      ],
      "stateMutability": "view",
      "type": "function"
    },
    {
      "inputs": [
        {
          "internalType": "address",
          "name": "from",
          "type": "address"
        },
        {
          "internalType": "address",
          "name": "to",
          "type": "address"
        },
        {
          "internalType": "uint256",
          "name": "id",
          "type": "uint256"
        }
      ],
      "name": "safeTransferFrom",
      "outputs": [],
      "stateMutability": "nonpayable",
      "type": "function"
    },
    {
      "inputs": [
        {
          "internalType": "address",
          "name": "from",
          "type": "address"
        },
        {
          "internalType": "address",
          "name": "to",
          "type": "address"
        },
        {
          "internalType": "uint256",
          "name": "id",
          "type": "uint256"
        },
        {
          "internalType": "bytes",
          "name": "data",
          "type": "bytes"
        }
      ],
      "name": "safeTransferFrom",
      "outputs": [],
      "stateMutability": "nonpayable",
      "type": "function"
    },
    {
      "inputs": [
        {
          "internalType": "address",
          "name": "operator",
          "type": "address"
        },
        {
          "internalType": "bool",
          "name": "approved",
          "type": "bool"
        }
      ],
      "name": "setApprovalForAll",
      "outputs": [],
      "stateMutability": "nonpayable",
      "type": "function"
    },
    {
      "inputs": [
        {
          "internalType": "bytes",
          "name": "sig",
          "type": "bytes"
        }
      ],
      "name": "splitSignature",
      "outputs": [
        {
          "internalType": "bytes32",
          "name": "r",
          "type": "bytes32"
        },
        {
          "internalType": "bytes32",
          "name": "s",
          "type": "bytes32"
        },
        {
          "internalType": "uint8",
          "name": "v",
          "type": "uint8"
        }
      ],
      "stateMutability": "pure",
      "type": "function"
    },
    {
      "inputs": [
        {
          "internalType": "bytes4",
          "name": "interfaceId",
          "type": "bytes4"
        }
      ],
      "name": "supportsInterface",
      "outputs": [
        {
          "internalType": "bool",
          "name": "",
          "type": "bool"
        }
      ],
      "stateMutability": "pure",
      "type": "function"
    },
    {
      "inputs": [],
      "name": "symbol",
      "outputs": [
        {
          "internalType": "string",
          "name": "",
          "type": "string"
        }
      ],
      "stateMutability": "view",
      "type": "function"
    },
    {
      "inputs": [
        {
          "internalType": "uint256",
          "name": "tokenId",
          "type": "uint256"
        }
      ],
      "name": "tokenURI",
      "outputs": [
        {
          "internalType": "string",
          "name": "",
          "type": "string"
        }
      ],
      "stateMutability": "view",
      "type": "function"
    },
    {
      "inputs": [
        {
          "internalType": "address",
          "name": "from",
          "type": "address"
        },
        {
          "internalType": "address",
          "name": "to",
          "type": "address"
        },
        {
          "internalType": "uint256",
          "name": "id",
          "type": "uint256"
        }
      ],
      "name": "transferFrom",
      "outputs": [],
      "stateMutability": "nonpayable",
      "type": "function"
    },
    {
      "inputs": [
        {
          "internalType": "address",
          "name": "_signer",
          "type": "address"
        },
        {
          "internalType": "string",
          "name": "_message",
          "type": "string"
        },
        {
          "internalType": "bytes",
          "name": "signature",
          "type": "bytes"
        }
      ],
      "name": "verify",
      "outputs": [
        {
          "internalType": "bool",
          "name": "",
          "type": "bool"
        }
      ],
      "stateMutability": "pure",
      "type": "function"
    }
  ],
  "transactionHash": "0x16ba146983945bb2cb5e01b3ae96d4ed78999f3091e00e8eacc2eab7815be77c",
  "args": [
    "Secret Project",
    "sPROJECT",
    "0x5F0f9484B5F1C9Cd9A27D86B894a10132551a7ac",
    "0x4A482FFFD21490557E169F9b81F9C66162281961"
  ],
  "numDeployments": 4,
  "solcInputHash": "15cf6f9c82f61495548680af4f5dcf82",
  "bytecode": "0x60a060405266470de4df8200006080908152506040518061010001604052806040518060400160405280600681526020017f776561706f6e000000000000000000000000000000000000000000000000000081525081526020016040518060400160405280600581526020017f636865737400000000000000000000000000000000000000000000000000000081525081526020016040518060400160405280600481526020017f686561640000000000000000000000000000000000000000000000000000000081525081526020016040518060400160405280600581526020017f776169737400000000000000000000000000000000000000000000000000000081525081526020016040518060400160405280600481526020017f666f6f740000000000000000000000000000000000000000000000000000000081525081526020016040518060400160405280600481526020017f68616e640000000000000000000000000000000000000000000000000000000081525081526020016040518060400160405280600481526020017f6e65636b0000000000000000000000000000000000000000000000000000000081525081526020016040518060400160405280600481526020017f72696e6700000000000000000000000000000000000000000000000000000000815250815250600790600862000206929190620002fc565b503480156200021457600080fd5b50604051620059063803806200590683398181016040528101906200023a919062000676565b838381600090805190602001906200025492919062000356565b5080600190805190602001906200026d92919062000356565b50505081600f60006101000a81548173ffffffffffffffffffffffffffffffffffffffff021916908373ffffffffffffffffffffffffffffffffffffffff16021790555080601060006101000a81548173ffffffffffffffffffffffffffffffffffffffff021916908373ffffffffffffffffffffffffffffffffffffffff160217905550505050506200078b565b826008810192821562000343579160200282015b82811115620003425782518290805190602001906200033192919062000356565b509160200191906001019062000310565b5b509050620003529190620003e7565b5090565b828054620003649062000755565b90600052602060002090601f016020900481019282620003885760008555620003d4565b82601f10620003a357805160ff1916838001178555620003d4565b82800160010185558215620003d4579182015b82811115620003d3578251825591602001919060010190620003b6565b5b509050620003e391906200040f565b5090565b5b808211156200040b57600081816200040191906200042e565b50600101620003e8565b5090565b5b808211156200042a57600081600090555060010162000410565b5090565b5080546200043c9062000755565b6000825580601f1062000450575062000471565b601f0160209004906000526020600020908101906200047091906200040f565b5b50565b6000604051905090565b600080fd5b600080fd5b600080fd5b600080fd5b6000601f19601f8301169050919050565b7f4e487b7100000000000000000000000000000000000000000000000000000000600052604160045260246000fd5b620004dd8262000492565b810181811067ffffffffffffffff82111715620004ff57620004fe620004a3565b5b80604052505050565b60006200051462000474565b9050620005228282620004d2565b919050565b600067ffffffffffffffff821115620005455762000544620004a3565b5b620005508262000492565b9050602081019050919050565b60005b838110156200057d57808201518184015260208101905062000560565b838111156200058d576000848401525b50505050565b6000620005aa620005a48462000527565b62000508565b905082815260208101848484011115620005c957620005c86200048d565b5b620005d68482856200055d565b509392505050565b600082601f830112620005f657620005f562000488565b5b81516200060884826020860162000593565b91505092915050565b600073ffffffffffffffffffffffffffffffffffffffff82169050919050565b60006200063e8262000611565b9050919050565b620006508162000631565b81146200065c57600080fd5b50565b600081519050620006708162000645565b92915050565b600080600080608085870312156200069357620006926200047e565b5b600085015167ffffffffffffffff811115620006b457620006b362000483565b5b620006c287828801620005de565b945050602085015167ffffffffffffffff811115620006e657620006e562000483565b5b620006f487828801620005de565b935050604062000707878288016200065f565b92505060606200071a878288016200065f565b91505092959194509250565b7f4e487b7100000000000000000000000000000000000000000000000000000000600052602260045260246000fd5b600060028204905060018216806200076e57607f821691505b6020821081141562000785576200078462000726565b5b50919050565b608051615143620007c360003960008181610a96015281816110890152818161115801528181611342015261149001526151436000f3fe6080604052600436106101b75760003560e01c806397aba7f9116100ec578063b88d4fde1161008a578063c884ef8311610064578063c884ef8314610664578063d75c9c0d146106a1578063e985e9c5146106de578063fa5408011461071b576101b7565b8063b88d4fde146105c1578063b93f9b0a146105ea578063c87b56dd14610627576101b7565b8063a7bb5803116100c6578063a7bb5803146104dd578063aa3ec0a91461051c578063af4fb35314610547578063b446f3b214610584576101b7565b806397aba7f91461045b5780639d4776b214610498578063a22cb465146104b4576101b7565b80633b85df72116101595780636352211e116101335780636352211e1461037957806363f8071c146103b657806370a08231146103f357806395d89b4114610430576101b7565b80633b85df721461031b57806342842e0e146103465780634e71d92d1461036f576101b7565b8063095ea7b311610195578063095ea7b31461026157806315d655c91461028a57806323b872dd146102b55780632dd34f0f146102de576101b7565b806301ffc9a7146101bc57806306fdde03146101f9578063081812fc14610224575b600080fd5b3480156101c857600080fd5b506101e360048036038101906101de91906133d3565b610758565b6040516101f0919061341b565b60405180910390f35b34801561020557600080fd5b5061020e6107ea565b60405161021b91906134cf565b60405180910390f35b34801561023057600080fd5b5061024b60048036038101906102469190613527565b610878565b6040516102589190613595565b60405180910390f35b34801561026d57600080fd5b50610288600480360381019061028391906135dc565b6108ab565b005b34801561029657600080fd5b5061029f610a94565b6040516102ac919061362b565b60405180910390f35b3480156102c157600080fd5b506102dc60048036038101906102d79190613646565b610ab8565b005b3480156102ea57600080fd5b506103056004803603810190610300919061386f565b610eb8565b604051610312919061341b565b60405180910390f35b34801561032757600080fd5b50610330610f16565b60405161033d91906134cf565b60405180910390f35b34801561035257600080fd5b5061036d60048036038101906103689190613646565b610f4f565b005b610377611087565b005b34801561038557600080fd5b506103a0600480360381019061039b9190613527565b6111d8565b6040516103ad9190613595565b60405180910390f35b3480156103c257600080fd5b506103dd60048036038101906103d891906138fa565b61120b565b6040516103ea919061362b565b60405180910390f35b3480156103ff57600080fd5b5061041a600480360381019061041591906138fa565b61122b565b604051610427919061362b565b60405180910390f35b34801561043c57600080fd5b50610445611243565b60405161045291906134cf565b60405180910390f35b34801561046757600080fd5b50610482600480360381019061047d919061395d565b6112d1565b60405161048f9190613595565b60405180910390f35b6104b260048036038101906104ad91906139b9565b611340565b005b3480156104c057600080fd5b506104db60048036038101906104d69190613a41565b611512565b005b3480156104e957600080fd5b5061050460048036038101906104ff9190613a81565b61160f565b60405161051393929190613af5565b60405180910390f35b34801561052857600080fd5b50610531611677565b60405161053e91906134cf565b60405180910390f35b34801561055357600080fd5b5061056e600480360381019061056991906138fa565b611693565b60405161057b91906134cf565b60405180910390f35b34801561059057600080fd5b506105ab60048036038101906105a69190613b2c565b6116ad565b6040516105b89190613b75565b60405180910390f35b3480156105cd57600080fd5b506105e860048036038101906105e39190613b90565b6116dd565b005b3480156105f657600080fd5b50610611600480360381019061060c9190613527565b611818565b60405161061e9190613595565b60405180910390f35b34801561063357600080fd5b5061064e60048036038101906106499190613527565b611822565b60405161065b91906134cf565b60405180910390f35b34801561067057600080fd5b5061068b600480360381019061068691906138fa565b6118d4565b604051610698919061341b565b60405180910390f35b3480156106ad57600080fd5b506106c860048036038101906106c39190613527565b6118f4565b6040516106d591906134cf565b60405180910390f35b3480156106ea57600080fd5b5061070560048036038101906107009190613c13565b611997565b604051610712919061341b565b60405180910390f35b34801561072757600080fd5b50610742600480360381019061073d9190613c53565b6119c6565b60405161074f9190613b75565b60405180910390f35b60006301ffc9a760e01b827bffffffffffffffffffffffffffffffffffffffffffffffffffffffff191614806107b357506380ac58cd60e01b827bffffffffffffffffffffffffffffffffffffffffffffffffffffffff1916145b806107e35750635b5e139f60e01b827bffffffffffffffffffffffffffffffffffffffffffffffffffffffff1916145b9050919050565b600080546107f790613caf565b80601f016020809104026020016040519081016040528092919081815260200182805461082390613caf565b80156108705780601f1061084557610100808354040283529160200191610870565b820191906000526020600020905b81548152906001019060200180831161085357829003601f168201915b505050505081565b60046020528060005260406000206000915054906101000a900473ffffffffffffffffffffffffffffffffffffffff1681565b60006003600083815260200190815260200160002060009054906101000a900473ffffffffffffffffffffffffffffffffffffffff1690508073ffffffffffffffffffffffffffffffffffffffff163373ffffffffffffffffffffffffffffffffffffffff1614806109a35750600560008273ffffffffffffffffffffffffffffffffffffffff1673ffffffffffffffffffffffffffffffffffffffff16815260200190815260200160002060003373ffffffffffffffffffffffffffffffffffffffff1673ffffffffffffffffffffffffffffffffffffffff16815260200190815260200160002060009054906101000a900460ff165b6109e2576040517f08c379a00000000000000000000000000000000000000000000000000000000081526004016109d990613d2d565b60405180910390fd5b826004600084815260200190815260200160002060006101000a81548173ffffffffffffffffffffffffffffffffffffffff021916908373ffffffffffffffffffffffffffffffffffffffff160217905550818373ffffffffffffffffffffffffffffffffffffffff168273ffffffffffffffffffffffffffffffffffffffff167f8c5be1e5ebec7d5bd14f71427d1e84f3dd0314c0f7b2291e5b200ac8c7c3b92560405160405180910390a4505050565b7f000000000000000000000000000000000000000000000000000000000000000081565b6003600082815260200190815260200160002060009054906101000a900473ffffffffffffffffffffffffffffffffffffffff1673ffffffffffffffffffffffffffffffffffffffff168373ffffffffffffffffffffffffffffffffffffffff1614610b59576040517f08c379a0000000000000000000000000000000000000000000000000000000008152600401610b5090613d99565b60405180910390fd5b600073ffffffffffffffffffffffffffffffffffffffff168273ffffffffffffffffffffffffffffffffffffffff161415610bc9576040517f08c379a0000000000000000000000000000000000000000000000000000000008152600401610bc090613e05565b60405180910390fd5b8273ffffffffffffffffffffffffffffffffffffffff163373ffffffffffffffffffffffffffffffffffffffff161480610c6157506004600082815260200190815260200160002060009054906101000a900473ffffffffffffffffffffffffffffffffffffffff1673ffffffffffffffffffffffffffffffffffffffff163373ffffffffffffffffffffffffffffffffffffffff16145b80610cf25750600560008473ffffffffffffffffffffffffffffffffffffffff1673ffffffffffffffffffffffffffffffffffffffff16815260200190815260200160002060003373ffffffffffffffffffffffffffffffffffffffff1673ffffffffffffffffffffffffffffffffffffffff16815260200190815260200160002060009054906101000a900460ff165b610d31576040517f08c379a0000000000000000000000000000000000000000000000000000000008152600401610d2890613d2d565b60405180910390fd5b600260008473ffffffffffffffffffffffffffffffffffffffff1673ffffffffffffffffffffffffffffffffffffffff1681526020019081526020016000206000815480929190600190039190505550600260008373ffffffffffffffffffffffffffffffffffffffff1673ffffffffffffffffffffffffffffffffffffffff16815260200190815260200160002060008154809291906001019190505550816003600083815260200190815260200160002060006101000a81548173ffffffffffffffffffffffffffffffffffffffff021916908373ffffffffffffffffffffffffffffffffffffffff1602179055506004600082815260200190815260200160002060006101000a81549073ffffffffffffffffffffffffffffffffffffffff0219169055808273ffffffffffffffffffffffffffffffffffffffff168473ffffffffffffffffffffffffffffffffffffffff167fddf252ad1be2c89b69c2b068fc378daa952ba7f163c4a11628f55a4df523b3ef60405160405180910390a4505050565b600080610ec4846116ad565b90506000610ed1826119c6565b90508573ffffffffffffffffffffffffffffffffffffffff16610ef482866112d1565b73ffffffffffffffffffffffffffffffffffffffff1614925050509392505050565b6040518060400160405280601081526020017f4d65737361676520746f20636c61696d0000000000000000000000000000000081525081565b610f5a838383610ab8565b60008273ffffffffffffffffffffffffffffffffffffffff163b1480611043575063150b7a0260e01b7bffffffffffffffffffffffffffffffffffffffffffffffffffffffff19168273ffffffffffffffffffffffffffffffffffffffff1663150b7a023386856040518463ffffffff1660e01b8152600401610fdf93929190613e5c565b6020604051808303816000875af1158015610ffe573d6000803e3d6000fd5b505050506040513d601f19601f820116820180604052508101906110229190613ebb565b7bffffffffffffffffffffffffffffffffffffffffffffffffffffffff1916145b611082576040517f08c379a000000000000000000000000000000000000000000000000000000000815260040161107990613f34565b60405180910390fd5b505050565b7f00000000000000000000000000000000000000000000000000000000000000003410156110ea576040517f08c379a00000000000000000000000000000000000000000000000000000000081526004016110e190613fa0565b60405180910390fd5b6110fc336110f73361120b565b6119f6565b6001600660003373ffffffffffffffffffffffffffffffffffffffff1673ffffffffffffffffffffffffffffffffffffffff16815260200190815260200160002060006101000a81548160ff02191690831515021790555060007f0000000000000000000000000000000000000000000000000000000000000000346111829190613fef565b905060008111156111d5573373ffffffffffffffffffffffffffffffffffffffff166108fc829081150290604051600060405180830381858888f193505050501580156111d3573d6000803e3d6000fd5b505b50565b60036020528060005260406000206000915054906101000a900473ffffffffffffffffffffffffffffffffffffffff1681565b60008173ffffffffffffffffffffffffffffffffffffffff169050919050565b60026020528060005260406000206000915090505481565b6001805461125090613caf565b80601f016020809104026020016040519081016040528092919081815260200182805461127c90613caf565b80156112c95780601f1061129e576101008083540402835291602001916112c9565b820191906000526020600020905b8154815290600101906020018083116112ac57829003601f168201915b505050505081565b6000806000806112e08561160f565b925092509250600186828585604051600081526020016040526040516113099493929190614023565b6020604051602081039080840390855afa15801561132b573d6000803e3d6000fd5b50505060206040510351935050505092915050565b7f00000000000000000000000000000000000000000000000000000000000000003410156113a3576040517f08c379a000000000000000000000000000000000000000000000000000000000815260040161139a90613fa0565b60405180910390fd5b6113e3826040518060400160405280601081526020017f4d65737361676520746f20636c61696d0000000000000000000000000000000081525083610eb8565b611422576040517f08c379a0000000000000000000000000000000000000000000000000000000008152600401611419906140b4565b60405180910390fd5b6114343361142f8461120b565b6119f6565b6001600660008473ffffffffffffffffffffffffffffffffffffffff1673ffffffffffffffffffffffffffffffffffffffff16815260200190815260200160002060006101000a81548160ff02191690831515021790555060007f0000000000000000000000000000000000000000000000000000000000000000346114ba9190613fef565b9050600081111561150d578273ffffffffffffffffffffffffffffffffffffffff166108fc829081150290604051600060405180830381858888f1935050505015801561150b573d6000803e3d6000fd5b505b505050565b80600560003373ffffffffffffffffffffffffffffffffffffffff1673ffffffffffffffffffffffffffffffffffffffff16815260200190815260200160002060008473ffffffffffffffffffffffffffffffffffffffff1673ffffffffffffffffffffffffffffffffffffffff16815260200190815260200160002060006101000a81548160ff0219169083151502179055508173ffffffffffffffffffffffffffffffffffffffff163373ffffffffffffffffffffffffffffffffffffffff167f17307eab39ab6107e8899845ad3d59bd9653f200f220920489ca2b5937696c3183604051611603919061341b565b60405180910390a35050565b60008060006041845114611658576040517f08c379a000000000000000000000000000000000000000000000000000000000815260040161164f90614120565b60405180910390fd5b6020840151925060408401519150606084015160001a90509193909250565b6040518060600160405280602e81526020016150a0602e913981565b60606116a66116a18361120b565b611822565b9050919050565b6000816040516020016116c0919061417c565b604051602081830303815290604052805190602001209050919050565b6116e8848484610ab8565b60008373ffffffffffffffffffffffffffffffffffffffff163b14806117d3575063150b7a0260e01b7bffffffffffffffffffffffffffffffffffffffffffffffffffffffff19168373ffffffffffffffffffffffffffffffffffffffff1663150b7a02338786866040518563ffffffff1660e01b815260040161176f94939291906141d7565b6020604051808303816000875af115801561178e573d6000803e3d6000fd5b505050506040513d601f19601f820116820180604052508101906117b29190613ebb565b7bffffffffffffffffffffffffffffffffffffffffffffffffffffffff1916145b611812576040517f08c379a000000000000000000000000000000000000000000000000000000000815260040161180990613f34565b60405180910390fd5b50505050565b6000819050919050565b6060600061182f83611818565b9050600061183b611b2d565b61184483611b5b565b6040516020016118559291906142e1565b604051602081830303815290604052905060006118a261187484612c06565b61187d84612dc9565b60405160200161188e92919061450f565b604051602081830303815290604052612dc9565b90506000816040516020016118b791906145a0565b604051602081830303815290604052905080945050505050919050565b60066020528060005260406000206000915054906101000a900460ff1681565b6007816008811061190457600080fd5b01600091509050805461191690613caf565b80601f016020809104026020016040519081016040528092919081815260200182805461194290613caf565b801561198f5780601f106119645761010080835404028352916020019161198f565b820191906000526020600020905b81548152906001019060200180831161197257829003601f168201915b505050505081565b60056020528160005260406000206020528060005260406000206000915091509054906101000a900460ff1681565b6000816040516020016119d9919061462f565b604051602081830303815290604052805190602001209050919050565b611a008282612f61565b60008273ffffffffffffffffffffffffffffffffffffffff163b1480611aea575063150b7a0260e01b7bffffffffffffffffffffffffffffffffffffffffffffffffffffffff19168273ffffffffffffffffffffffffffffffffffffffff1663150b7a02336000856040518463ffffffff1660e01b8152600401611a8693929190613e5c565b6020604051808303816000875af1158015611aa5573d6000803e3d6000fd5b505050506040513d601f19601f82011682018060405250810190611ac99190613ebb565b7bffffffffffffffffffffffffffffffffffffffffffffffffffffffff1916145b611b29576040517f08c379a0000000000000000000000000000000000000000000000000000000008152600401611b2090613f34565b60405180910390fd5b5050565b6060611b37613174565b604051602001611b4791906146a1565b604051602081830303815290604052905090565b6060611c316040518060400160405280600181526020017f3000000000000000000000000000000000000000000000000000000000000000815250601060009054906101000a900473ffffffffffffffffffffffffffffffffffffffff1673ffffffffffffffffffffffffffffffffffffffff166385ead00a6040518163ffffffff1660e01b8152600401600060405180830381865afa158015611c03573d6000803e3d6000fd5b505050506040513d6000823e3d601f19601f82011682018060405250810190611c2c9190614746565b613194565b611e26611d8b601060009054906101000a900473ffffffffffffffffffffffffffffffffffffffff1673ffffffffffffffffffffffffffffffffffffffff166307a2f9556040518163ffffffff1660e01b8152600401602060405180830381865afa158015611ca4573d6000803e3d6000fd5b505050506040513d601f19601f82011682018060405250810190611cc891906147a4565b600f60009054906101000a900473ffffffffffffffffffffffffffffffffffffffff1673ffffffffffffffffffffffffffffffffffffffff16636c390589876040518263ffffffff1660e01b8152600401611d239190613595565b60a060405180830381865afa158015611d40573d6000803e3d6000fd5b505050506040513d601f19601f82011682018060405250810190611d649190614887565b600060058110611d7757611d766148b4565b5b6020020151611d8691906148e3565b6131c0565b601060009054906101000a900473ffffffffffffffffffffffffffffffffffffffff1673ffffffffffffffffffffffffffffffffffffffff16633a2b1d216040518163ffffffff1660e01b8152600401600060405180830381865afa158015611df8573d6000803e3d6000fd5b505050506040513d6000823e3d601f19601f82011682018060405250810190611e219190614746565b613194565b61201b611f80601060009054906101000a900473ffffffffffffffffffffffffffffffffffffffff1673ffffffffffffffffffffffffffffffffffffffff166307a2f9556040518163ffffffff1660e01b8152600401602060405180830381865afa158015611e99573d6000803e3d6000fd5b505050506040513d601f19601f82011682018060405250810190611ebd91906147a4565b600f60009054906101000a900473ffffffffffffffffffffffffffffffffffffffff1673ffffffffffffffffffffffffffffffffffffffff166396a7bb85886040518263ffffffff1660e01b8152600401611f189190613595565b60a060405180830381865afa158015611f35573d6000803e3d6000fd5b505050506040513d601f19601f82011682018060405250810190611f599190614887565b600060058110611f6c57611f6b6148b4565b5b6020020151611f7b91906148e3565b6131c0565b601060009054906101000a900473ffffffffffffffffffffffffffffffffffffffff1673ffffffffffffffffffffffffffffffffffffffff166364026ac06040518163ffffffff1660e01b8152600401600060405180830381865afa158015611fed573d6000803e3d6000fd5b505050506040513d6000823e3d601f19601f820116820180604052508101906120169190614746565b613194565b612210612175601060009054906101000a900473ffffffffffffffffffffffffffffffffffffffff1673ffffffffffffffffffffffffffffffffffffffff166307a2f9556040518163ffffffff1660e01b8152600401602060405180830381865afa15801561208e573d6000803e3d6000fd5b505050506040513d601f19601f820116820180604052508101906120b291906147a4565b600f60009054906101000a900473ffffffffffffffffffffffffffffffffffffffff1673ffffffffffffffffffffffffffffffffffffffff16637d9d7cc2896040518263ffffffff1660e01b815260040161210d9190613595565b60a060405180830381865afa15801561212a573d6000803e3d6000fd5b505050506040513d601f19601f8201168201806040525081019061214e9190614887565b600060058110612161576121606148b4565b5b602002015161217091906148e3565b6131c0565b601060009054906101000a900473ffffffffffffffffffffffffffffffffffffffff1673ffffffffffffffffffffffffffffffffffffffff16638f7dcfa36040518163ffffffff1660e01b8152600401600060405180830381865afa1580156121e2573d6000803e3d6000fd5b505050506040513d6000823e3d601f19601f8201168201806040525081019061220b9190614746565b613194565b61240461236a601060009054906101000a900473ffffffffffffffffffffffffffffffffffffffff1673ffffffffffffffffffffffffffffffffffffffff166307a2f9556040518163ffffffff1660e01b8152600401602060405180830381865afa158015612283573d6000803e3d6000fd5b505050506040513d601f19601f820116820180604052508101906122a791906147a4565b600f60009054906101000a900473ffffffffffffffffffffffffffffffffffffffff1673ffffffffffffffffffffffffffffffffffffffff1663455ba9ca8a6040518263ffffffff1660e01b81526004016123029190613595565b60a060405180830381865afa15801561231f573d6000803e3d6000fd5b505050506040513d601f19601f820116820180604052508101906123439190614887565b600060058110612356576123556148b4565b5b602002015161236591906148e3565b6131c0565b601060009054906101000a900473ffffffffffffffffffffffffffffffffffffffff1673ffffffffffffffffffffffffffffffffffffffff16624162006040518163ffffffff1660e01b8152600401600060405180830381865afa1580156123d6573d6000803e3d6000fd5b505050506040513d6000823e3d601f19601f820116820180604052508101906123ff9190614746565b613194565b6125f961255e601060009054906101000a900473ffffffffffffffffffffffffffffffffffffffff1673ffffffffffffffffffffffffffffffffffffffff166307a2f9556040518163ffffffff1660e01b8152600401602060405180830381865afa158015612477573d6000803e3d6000fd5b505050506040513d601f19601f8201168201806040525081019061249b91906147a4565b600f60009054906101000a900473ffffffffffffffffffffffffffffffffffffffff1673ffffffffffffffffffffffffffffffffffffffff1663b5fb5fa48b6040518263ffffffff1660e01b81526004016124f69190613595565b60a060405180830381865afa158015612513573d6000803e3d6000fd5b505050506040513d601f19601f820116820180604052508101906125379190614887565b60006005811061254a576125496148b4565b5b602002015161255991906148e3565b6131c0565b601060009054906101000a900473ffffffffffffffffffffffffffffffffffffffff1673ffffffffffffffffffffffffffffffffffffffff1663ad56f7196040518163ffffffff1660e01b8152600401600060405180830381865afa1580156125cb573d6000803e3d6000fd5b505050506040513d6000823e3d601f19601f820116820180604052508101906125f49190614746565b613194565b6127ee612753601060009054906101000a900473ffffffffffffffffffffffffffffffffffffffff1673ffffffffffffffffffffffffffffffffffffffff166307a2f9556040518163ffffffff1660e01b8152600401602060405180830381865afa15801561266c573d6000803e3d6000fd5b505050506040513d601f19601f8201168201806040525081019061269091906147a4565b600f60009054906101000a900473ffffffffffffffffffffffffffffffffffffffff1673ffffffffffffffffffffffffffffffffffffffff166357e3d14d8c6040518263ffffffff1660e01b81526004016126eb9190613595565b60a060405180830381865afa158015612708573d6000803e3d6000fd5b505050506040513d601f19601f8201168201806040525081019061272c9190614887565b60006005811061273f5761273e6148b4565b5b602002015161274e91906148e3565b6131c0565b601060009054906101000a900473ffffffffffffffffffffffffffffffffffffffff1673ffffffffffffffffffffffffffffffffffffffff16638df6fbcc6040518163ffffffff1660e01b8152600401600060405180830381865afa1580156127c0573d6000803e3d6000fd5b505050506040513d6000823e3d601f19601f820116820180604052508101906127e99190614746565b613194565b6129e3612948601060009054906101000a900473ffffffffffffffffffffffffffffffffffffffff1673ffffffffffffffffffffffffffffffffffffffff166307a2f9556040518163ffffffff1660e01b8152600401602060405180830381865afa158015612861573d6000803e3d6000fd5b505050506040513d601f19601f8201168201806040525081019061288591906147a4565b600f60009054906101000a900473ffffffffffffffffffffffffffffffffffffffff1673ffffffffffffffffffffffffffffffffffffffff1663b4630ab08d6040518263ffffffff1660e01b81526004016128e09190613595565b60a060405180830381865afa1580156128fd573d6000803e3d6000fd5b505050506040513d601f19601f820116820180604052508101906129219190614887565b600060058110612934576129336148b4565b5b602002015161294391906148e3565b6131c0565b601060009054906101000a900473ffffffffffffffffffffffffffffffffffffffff1673ffffffffffffffffffffffffffffffffffffffff1663bb7633856040518163ffffffff1660e01b8152600401600060405180830381865afa1580156129b5573d6000803e3d6000fd5b505050506040513d6000823e3d601f19601f820116820180604052508101906129de9190614746565b613194565b612bd8612b3d601060009054906101000a900473ffffffffffffffffffffffffffffffffffffffff1673ffffffffffffffffffffffffffffffffffffffff166307a2f9556040518163ffffffff1660e01b8152600401602060405180830381865afa158015612a56573d6000803e3d6000fd5b505050506040513d601f19601f82011682018060405250810190612a7a91906147a4565b600f60009054906101000a900473ffffffffffffffffffffffffffffffffffffffff1673ffffffffffffffffffffffffffffffffffffffff1663e73702cf8e6040518263ffffffff1660e01b8152600401612ad59190613595565b60a060405180830381865afa158015612af2573d6000803e3d6000fd5b505050506040513d601f19601f82011682018060405250810190612b169190614887565b600060058110612b2957612b286148b4565b5b6020020151612b3891906148e3565b6131c0565b601060009054906101000a900473ffffffffffffffffffffffffffffffffffffffff1673ffffffffffffffffffffffffffffffffffffffff16638360c1856040518163ffffffff1660e01b8152600401600060405180830381865afa158015612baa573d6000803e3d6000fd5b505050506040513d6000823e3d601f19601f82011682018060405250810190612bd39190614746565b613194565b604051602001612bf09998979695949392919061493d565b6040516020818303038152906040529050919050565b60606000602867ffffffffffffffff811115612c2557612c246136a3565b5b6040519080825280601f01601f191660200182016040528015612c575781602001600182028036833780820191505090505b50905060005b6014811015612dbf576000816013612c759190613fef565b6008612c8191906148e3565b6002612c8d9190614aef565b8573ffffffffffffffffffffffffffffffffffffffff16612cae9190614b69565b60f81b9050600060108260f81c612cc59190614b9a565b60f81b905060008160f81c6010612cdc9190614bcb565b8360f81c612cea9190614c06565b60f81b9050612cf882613321565b85856002612d0691906148e3565b81518110612d1757612d166148b4565b5b60200101907effffffffffffffffffffffffffffffffffffffffffffffffffffffffffffff1916908160001a905350612d4f81613321565b856001866002612d5f91906148e3565b612d699190614c3a565b81518110612d7a57612d796148b4565b5b60200101907effffffffffffffffffffffffffffffffffffffffffffffffffffffffffffff1916908160001a9053505050508080612db790614c90565b915050612c5d565b5080915050919050565b60606000825190506000811415612df25760405180602001604052806000815250915050612f5c565b60006003600283612e039190614c3a565b612e0d9190614b69565b6004612e1991906148e3565b90506000602082612e2a9190614c3a565b67ffffffffffffffff811115612e4357612e426136a3565b5b6040519080825280601f01601f191660200182016040528015612e755781602001600182028036833780820191505090505b50905060006040518060600160405280604081526020016150ce604091399050600181016020830160005b86811015612f195760038101905062ffffff818a015116603f8160121c168401518060081b905060ff603f83600c1c1686015116810190508060081b905060ff603f8360061c1686015116810190508060081b905060ff603f831686015116810190508060e01b90508084526004840193505050612ea0565b506003860660018114612f335760028114612f4357612f4e565b613d3d60f01b6002830352612f4e565b603d60f81b60018303525b508484525050819450505050505b919050565b600073ffffffffffffffffffffffffffffffffffffffff168273ffffffffffffffffffffffffffffffffffffffff161415612fd1576040517f08c379a0000000000000000000000000000000000000000000000000000000008152600401612fc890613e05565b60405180910390fd5b600073ffffffffffffffffffffffffffffffffffffffff166003600083815260200190815260200160002060009054906101000a900473ffffffffffffffffffffffffffffffffffffffff1673ffffffffffffffffffffffffffffffffffffffff1614613073576040517f08c379a000000000000000000000000000000000000000000000000000000000815260040161306a90614d25565b60405180910390fd5b600260008373ffffffffffffffffffffffffffffffffffffffff1673ffffffffffffffffffffffffffffffffffffffff16815260200190815260200160002060008154809291906001019190505550816003600083815260200190815260200160002060006101000a81548173ffffffffffffffffffffffffffffffffffffffff021916908373ffffffffffffffffffffffffffffffffffffffff160217905550808273ffffffffffffffffffffffffffffffffffffffff16600073ffffffffffffffffffffffffffffffffffffffff167fddf252ad1be2c89b69c2b068fc378daa952ba7f163c4a11628f55a4df523b3ef60405160405180910390a45050565b60606040518060e0016040528060a98152602001614ff760a99139905090565b606082826040516020016131a9929190614f0d565b604051602081830303815290604052905092915050565b60606000821415613208576040518060400160405280600181526020017f3000000000000000000000000000000000000000000000000000000000000000815250905061331c565b600082905060005b6000821461323a57808061322390614c90565b915050600a826132339190614b69565b9150613210565b60008167ffffffffffffffff811115613256576132556136a3565b5b6040519080825280601f01601f1916602001820160405280156132885781602001600182028036833780820191505090505b5090505b60008514613315576001826132a19190613fef565b9150600a856132b09190614f8e565b60306132bc9190614c3a565b60f81b8183815181106132d2576132d16148b4565b5b60200101907effffffffffffffffffffffffffffffffffffffffffffffffffffffffffffff1916908160001a905350600a8561330e9190614b69565b945061328c565b8093505050505b919050565b6000600a8260f81c60ff16101561334c5760308260f81c6133429190614fbf565b60f81b9050613362565b60578260f81c61335c9190614fbf565b60f81b90505b919050565b6000604051905090565b600080fd5b600080fd5b60007fffffffff0000000000000000000000000000000000000000000000000000000082169050919050565b6133b08161337b565b81146133bb57600080fd5b50565b6000813590506133cd816133a7565b92915050565b6000602082840312156133e9576133e8613371565b5b60006133f7848285016133be565b91505092915050565b60008115159050919050565b61341581613400565b82525050565b6000602082019050613430600083018461340c565b92915050565b600081519050919050565b600082825260208201905092915050565b60005b83811015613470578082015181840152602081019050613455565b8381111561347f576000848401525b50505050565b6000601f19601f8301169050919050565b60006134a182613436565b6134ab8185613441565b93506134bb818560208601613452565b6134c481613485565b840191505092915050565b600060208201905081810360008301526134e98184613496565b905092915050565b6000819050919050565b613504816134f1565b811461350f57600080fd5b50565b600081359050613521816134fb565b92915050565b60006020828403121561353d5761353c613371565b5b600061354b84828501613512565b91505092915050565b600073ffffffffffffffffffffffffffffffffffffffff82169050919050565b600061357f82613554565b9050919050565b61358f81613574565b82525050565b60006020820190506135aa6000830184613586565b92915050565b6135b981613574565b81146135c457600080fd5b50565b6000813590506135d6816135b0565b92915050565b600080604083850312156135f3576135f2613371565b5b6000613601858286016135c7565b925050602061361285828601613512565b9150509250929050565b613625816134f1565b82525050565b6000602082019050613640600083018461361c565b92915050565b60008060006060848603121561365f5761365e613371565b5b600061366d868287016135c7565b935050602061367e868287016135c7565b925050604061368f86828701613512565b9150509250925092565b600080fd5b600080fd5b7f4e487b7100000000000000000000000000000000000000000000000000000000600052604160045260246000fd5b6136db82613485565b810181811067ffffffffffffffff821117156136fa576136f96136a3565b5b80604052505050565b600061370d613367565b905061371982826136d2565b919050565b600067ffffffffffffffff821115613739576137386136a3565b5b61374282613485565b9050602081019050919050565b82818337600083830152505050565b600061377161376c8461371e565b613703565b90508281526020810184848401111561378d5761378c61369e565b5b61379884828561374f565b509392505050565b600082601f8301126137b5576137b4613699565b5b81356137c584826020860161375e565b91505092915050565b600067ffffffffffffffff8211156137e9576137e86136a3565b5b6137f282613485565b9050602081019050919050565b600061381261380d846137ce565b613703565b90508281526020810184848401111561382e5761382d61369e565b5b61383984828561374f565b509392505050565b600082601f83011261385657613855613699565b5b81356138668482602086016137ff565b91505092915050565b60008060006060848603121561388857613887613371565b5b6000613896868287016135c7565b935050602084013567ffffffffffffffff8111156138b7576138b6613376565b5b6138c3868287016137a0565b925050604084013567ffffffffffffffff8111156138e4576138e3613376565b5b6138f086828701613841565b9150509250925092565b6000602082840312156139105761390f613371565b5b600061391e848285016135c7565b91505092915050565b6000819050919050565b61393a81613927565b811461394557600080fd5b50565b60008135905061395781613931565b92915050565b6000806040838503121561397457613973613371565b5b600061398285828601613948565b925050602083013567ffffffffffffffff8111156139a3576139a2613376565b5b6139af85828601613841565b9150509250929050565b600080604083850312156139d0576139cf613371565b5b60006139de858286016135c7565b925050602083013567ffffffffffffffff8111156139ff576139fe613376565b5b613a0b85828601613841565b9150509250929050565b613a1e81613400565b8114613a2957600080fd5b50565b600081359050613a3b81613a15565b92915050565b60008060408385031215613a5857613a57613371565b5b6000613a66858286016135c7565b9250506020613a7785828601613a2c565b9150509250929050565b600060208284031215613a9757613a96613371565b5b600082013567ffffffffffffffff811115613ab557613ab4613376565b5b613ac184828501613841565b91505092915050565b613ad381613927565b82525050565b600060ff82169050919050565b613aef81613ad9565b82525050565b6000606082019050613b0a6000830186613aca565b613b176020830185613aca565b613b246040830184613ae6565b949350505050565b600060208284031215613b4257613b41613371565b5b600082013567ffffffffffffffff811115613b6057613b5f613376565b5b613b6c848285016137a0565b91505092915050565b6000602082019050613b8a6000830184613aca565b92915050565b60008060008060808587031215613baa57613ba9613371565b5b6000613bb8878288016135c7565b9450506020613bc9878288016135c7565b9350506040613bda87828801613512565b925050606085013567ffffffffffffffff811115613bfb57613bfa613376565b5b613c0787828801613841565b91505092959194509250565b60008060408385031215613c2a57613c29613371565b5b6000613c38858286016135c7565b9250506020613c49858286016135c7565b9150509250929050565b600060208284031215613c6957613c68613371565b5b6000613c7784828501613948565b91505092915050565b7f4e487b7100000000000000000000000000000000000000000000000000000000600052602260045260246000fd5b60006002820490506001821680613cc757607f821691505b60208210811415613cdb57613cda613c80565b5b50919050565b7f4e4f545f415554484f52495a4544000000000000000000000000000000000000600082015250565b6000613d17600e83613441565b9150613d2282613ce1565b602082019050919050565b60006020820190508181036000830152613d4681613d0a565b9050919050565b7f57524f4e475f46524f4d00000000000000000000000000000000000000000000600082015250565b6000613d83600a83613441565b9150613d8e82613d4d565b602082019050919050565b60006020820190508181036000830152613db281613d76565b9050919050565b7f494e56414c49445f524543495049454e54000000000000000000000000000000600082015250565b6000613def601183613441565b9150613dfa82613db9565b602082019050919050565b60006020820190508181036000830152613e1e81613de2565b9050919050565b600082825260208201905092915050565b50565b6000613e46600083613e25565b9150613e5182613e36565b600082019050919050565b6000608082019050613e716000830186613586565b613e7e6020830185613586565b613e8b604083018461361c565b8181036060830152613e9c81613e39565b9050949350505050565b600081519050613eb5816133a7565b92915050565b600060208284031215613ed157613ed0613371565b5b6000613edf84828501613ea6565b91505092915050565b7f554e534146455f524543495049454e5400000000000000000000000000000000600082015250565b6000613f1e601083613441565b9150613f2982613ee8565b602082019050919050565b60006020820190508181036000830152613f4d81613f11565b9050919050565b7f496e73756666696369656e74207061796d656e74000000000000000000000000600082015250565b6000613f8a601483613441565b9150613f9582613f54565b602082019050919050565b60006020820190508181036000830152613fb981613f7d565b9050919050565b7f4e487b7100000000000000000000000000000000000000000000000000000000600052601160045260246000fd5b6000613ffa826134f1565b9150614005836134f1565b92508282101561401857614017613fc0565b5b828203905092915050565b60006080820190506140386000830187613aca565b6140456020830186613ae6565b6140526040830185613aca565b61405f6060830184613aca565b95945050505050565b7f496e76616c6964207369676e6174757265000000000000000000000000000000600082015250565b600061409e601183613441565b91506140a982614068565b602082019050919050565b600060208201905081810360008301526140cd81614091565b9050919050565b7f696e76616c6964207369676e6174757265206c656e6774680000000000000000600082015250565b600061410a601883613441565b9150614115826140d4565b602082019050919050565b60006020820190508181036000830152614139816140fd565b9050919050565b600081905092915050565b600061415682613436565b6141608185614140565b9350614170818560208601613452565b80840191505092915050565b6000614188828461414b565b915081905092915050565b600081519050919050565b60006141a982614193565b6141b38185613e25565b93506141c3818560208601613452565b6141cc81613485565b840191505092915050565b60006080820190506141ec6000830187613586565b6141f96020830186613586565b614206604083018561361c565b8181036060830152614218818461419e565b905095945050505050565b7f3c7376672076696577426f783d22302030203530203530222077696474683d2260008201527f313030302220786d6c6e733d22687474703a2f2f7777772e77332e6f72672f3260208201527f3030302f737667223e0000000000000000000000000000000000000000000000604082015250565b60006142a5604983614140565b91506142b082614223565b604982019050919050565b7f3c2f7376673e0000000000000000000000000000000000000000000000000000815250565b60006142ec82614298565b91506142f8828561414b565b9150614304828461414b565b915061430f826142bb565b6006820191508190509392505050565b7f7b226e616d65223a202242616720307800000000000000000000000000000000600082015250565b6000614355601083614140565b91506143608261431f565b601082019050919050565b7f222c20226465736372697074696f6e223a20224c6f6f742069732072616e646f60008201527f6d697a656420616476656e747572657220676561722067656e6572617465642060208201527f616e642073746f726564206f6e20636861696e2e2053746174732c20696d616760408201527f65732c20616e64206f746865722066756e6374696f6e616c697479206172652060608201527f696e74656e74696f6e616c6c79206f6d697474656420666f72206f746865727360808201527f20746f20696e746572707265742e204665656c206672656520746f207573652060a08201527f4c6f6f7420696e20616e792077617920796f752077616e742e222c2022696d6160c08201527f6765223a2022646174613a696d6167652f7376672b786d6c3b6261736536342c60e082015250565b60006144ac61010083614140565b91506144b78261436b565b61010082019050919050565b7f227d000000000000000000000000000000000000000000000000000000000000600082015250565b60006144f9600283614140565b9150614504826144c3565b600282019050919050565b600061451a82614348565b9150614526828561414b565b91506145318261449e565b915061453d828461414b565b9150614548826144ec565b91508190509392505050565b7f646174613a6170706c69636174696f6e2f6a736f6e3b6261736536342c000000600082015250565b600061458a601d83614140565b915061459582614554565b601d82019050919050565b60006145ab8261457d565b91506145b7828461414b565b915081905092915050565b7f19457468657265756d205369676e6564204d6573736167653a0a333200000000600082015250565b60006145f8601c83614140565b9150614603826145c2565b601c82019050919050565b6000819050919050565b61462961462482613927565b61460e565b82525050565b600061463a826145eb565b91506146468284614618565b60208201915081905092915050565b7f3c646566733e0000000000000000000000000000000000000000000000000000815250565b7f3c2f646566733e00000000000000000000000000000000000000000000000000815250565b60006146ac82614655565b6006820191506146bc828461414b565b91506146c78261467b565b60078201915081905092915050565b60006146e96146e48461371e565b613703565b9050828152602081018484840111156147055761470461369e565b5b614710848285613452565b509392505050565b600082601f83011261472d5761472c613699565b5b815161473d8482602086016146d6565b91505092915050565b60006020828403121561475c5761475b613371565b5b600082015167ffffffffffffffff81111561477a57614779613376565b5b61478684828501614718565b91505092915050565b60008151905061479e816134fb565b92915050565b6000602082840312156147ba576147b9613371565b5b60006147c88482850161478f565b91505092915050565b600067ffffffffffffffff8211156147ec576147eb6136a3565b5b602082029050919050565b600080fd5b600061480f61480a846147d1565b613703565b90508060208402830185811115614829576148286147f7565b5b835b81811015614852578061483e888261478f565b84526020840193505060208101905061482b565b5050509392505050565b600082601f83011261487157614870613699565b5b600561487e8482856147fc565b91505092915050565b600060a0828403121561489d5761489c613371565b5b60006148ab8482850161485c565b91505092915050565b7f4e487b7100000000000000000000000000000000000000000000000000000000600052603260045260246000fd5b60006148ee826134f1565b91506148f9836134f1565b9250817fffffffffffffffffffffffffffffffffffffffffffffffffffffffffffffffff048311821515161561493257614931613fc0565b5b828202905092915050565b6000614949828c61414b565b9150614955828b61414b565b9150614961828a61414b565b915061496d828961414b565b9150614979828861414b565b9150614985828761414b565b9150614991828661414b565b915061499d828561414b565b91506149a9828461414b565b91508190509a9950505050505050505050565b60008160011c9050919050565b6000808291508390505b6001851115614a13578086048111156149ef576149ee613fc0565b5b60018516156149fe5780820291505b8081029050614a0c856149bc565b94506149d3565b94509492505050565b600082614a2c5760019050614ae8565b81614a3a5760009050614ae8565b8160018114614a505760028114614a5a57614a89565b6001915050614ae8565b60ff841115614a6c57614a6b613fc0565b5b8360020a915084821115614a8357614a82613fc0565b5b50614ae8565b5060208310610133831016604e8410600b8410161715614abe5782820a905083811115614ab957614ab8613fc0565b5b614ae8565b614acb84848460016149c9565b92509050818404811115614ae257614ae1613fc0565b5b81810290505b9392505050565b6000614afa826134f1565b9150614b05836134f1565b9250614b327fffffffffffffffffffffffffffffffffffffffffffffffffffffffffffffffff8484614a1c565b905092915050565b7f4e487b7100000000000000000000000000000000000000000000000000000000600052601260045260246000fd5b6000614b74826134f1565b9150614b7f836134f1565b925082614b8f57614b8e614b3a565b5b828204905092915050565b6000614ba582613ad9565b9150614bb083613ad9565b925082614bc057614bbf614b3a565b5b828204905092915050565b6000614bd682613ad9565b9150614be183613ad9565b92508160ff0483118215151615614bfb57614bfa613fc0565b5b828202905092915050565b6000614c1182613ad9565b9150614c1c83613ad9565b925082821015614c2f57614c2e613fc0565b5b828203905092915050565b6000614c45826134f1565b9150614c50836134f1565b9250827fffffffffffffffffffffffffffffffffffffffffffffffffffffffffffffffff03821115614c8557614c84613fc0565b5b828201905092915050565b6000614c9b826134f1565b91507fffffffffffffffffffffffffffffffffffffffffffffffffffffffffffffffff821415614cce57614ccd613fc0565b5b600182019050919050565b7f414c52454144595f4d494e544544000000000000000000000000000000000000600082015250565b6000614d0f600e83613441565b9150614d1a82614cd9565b602082019050919050565b60006020820190508181036000830152614d3e81614d02565b9050919050565b7f3c7376672077696474683d22353022206865696768743d22353022207669657760008201527f426f783d22000000000000000000000000000000000000000000000000000000602082015250565b6000614da1602583614140565b9150614dac82614d45565b602582019050919050565b7f2030203530203530223e00000000000000000000000000000000000000000000815250565b7f3c666f726569676e4f626a6563742077696474683d223130303030222068656960008201527f6768743d223530223e0000000000000000000000000000000000000000000000602082015250565b6000614e39602983614140565b9150614e4482614ddd565b602982019050919050565b7f3c696d6720786d6c6e733d22687474703a2f2f7777772e77332e6f72672f313960008201527f39392f7868746d6c22207372633d220000000000000000000000000000000000602082015250565b6000614eab602f83614140565b9150614eb682614e4f565b602f82019050919050565b7f22202f3e00000000000000000000000000000000000000000000000000000000815250565b7f3c2f666f726569676e4f626a6563743e00000000000000000000000000000000815250565b6000614f1882614d94565b9150614f24828561414b565b9150614f2f82614db7565b600a82019150614f3e82614e2c565b9150614f4982614e9e565b9150614f55828461414b565b9150614f6082614ec1565b600482019150614f6f82614ee7565b601082019150614f7e826142bb565b6006820191508190509392505050565b6000614f99826134f1565b9150614fa4836134f1565b925082614fb457614fb3614b3a565b5b828206905092915050565b6000614fca82613ad9565b9150614fd583613ad9565b92508260ff03821115614feb57614fea613fc0565b5b82820190509291505056fe3c7374796c653e20696d67207b20696d6167652d72656e646572696e673a202d7765626b69742d6f7074696d697a652d636f6e74726173743b20696d6167652d72656e646572696e673a2063726973702d65646765733b20696d6167652d72656e646572696e673a20706978656c617465643b206865696768743a20353070783b7d20737667207b206261636b67726f756e64203a20233141314131413b207d203c2f7374796c653e516d62634b557537314a68363474754a34316657614c6a345852536b7033756d5966615252706e626a4d786548334142434445464748494a4b4c4d4e4f505152535455565758595a6162636465666768696a6b6c6d6e6f707172737475767778797a303132333435363738392b2fa26469706673582212206fb0cefc36a182e4d138dc669dac4741f40252034cc34d16264139fc22568bed64736f6c634300080c0033",
  "devdoc": {
    "kind": "dev",
    "methods": {},
    "version": 1
  },
  "userdoc": {
    "kind": "user",
    "methods": {},
    "version": 1
  },
  "storageLayout": {
    "storage": [
      {
        "astId": 231,
        "contract": "contracts/SyntheticLootCharacter.sol:SyntheticLootCharacter",
        "label": "name",
        "offset": 0,
        "slot": "0",
        "type": "t_string_storage"
      },
      {
        "astId": 233,
        "contract": "contracts/SyntheticLootCharacter.sol:SyntheticLootCharacter",
        "label": "symbol",
        "offset": 0,
        "slot": "1",
        "type": "t_string_storage"
      },
      {
        "astId": 244,
        "contract": "contracts/SyntheticLootCharacter.sol:SyntheticLootCharacter",
        "label": "balanceOf",
        "offset": 0,
        "slot": "2",
        "type": "t_mapping(t_address,t_uint256)"
      },
      {
        "astId": 248,
        "contract": "contracts/SyntheticLootCharacter.sol:SyntheticLootCharacter",
        "label": "ownerOf",
        "offset": 0,
        "slot": "3",
        "type": "t_mapping(t_uint256,t_address)"
      },
      {
        "astId": 252,
        "contract": "contracts/SyntheticLootCharacter.sol:SyntheticLootCharacter",
        "label": "getApproved",
        "offset": 0,
        "slot": "4",
        "type": "t_mapping(t_uint256,t_address)"
      },
      {
        "astId": 258,
        "contract": "contracts/SyntheticLootCharacter.sol:SyntheticLootCharacter",
        "label": "isApprovedForAll",
        "offset": 0,
        "slot": "5",
        "type": "t_mapping(t_address,t_mapping(t_address,t_bool))"
      },
      {
        "astId": 1279,
        "contract": "contracts/SyntheticLootCharacter.sol:SyntheticLootCharacter",
        "label": "claimed",
        "offset": 0,
        "slot": "6",
        "type": "t_mapping(t_address,t_bool)"
      },
      {
        "astId": 742,
        "contract": "contracts/SyntheticLootCharacter.sol:SyntheticLootCharacter",
        "label": "renderOrder",
        "offset": 0,
        "slot": "7",
        "type": "t_array(t_string_storage)8_storage"
      },
      {
        "astId": 748,
        "contract": "contracts/SyntheticLootCharacter.sol:SyntheticLootCharacter",
        "label": "syntheticLoot",
        "offset": 0,
        "slot": "15",
        "type": "t_contract(SyntheticLoot)2714"
      },
      {
        "astId": 751,
        "contract": "contracts/SyntheticLootCharacter.sol:SyntheticLootCharacter",
        "label": "assets",
        "offset": 0,
        "slot": "16",
        "type": "t_contract(ISyntheticLootCharacterAssets)2823"
      },
      {
        "astId": 754,
        "contract": "contracts/SyntheticLootCharacter.sol:SyntheticLootCharacter",
        "label": "gateways",
        "offset": 0,
        "slot": "17",
        "type": "t_array(t_string_storage)dyn_storage"
      }
    ],
    "types": {
      "t_address": {
        "encoding": "inplace",
        "label": "address",
        "numberOfBytes": "20"
      },
      "t_array(t_string_storage)8_storage": {
        "base": "t_string_storage",
        "encoding": "inplace",
        "label": "string[8]",
        "numberOfBytes": "256"
      },
      "t_array(t_string_storage)dyn_storage": {
        "base": "t_string_storage",
        "encoding": "dynamic_array",
        "label": "string[]",
        "numberOfBytes": "32"
      },
      "t_bool": {
        "encoding": "inplace",
        "label": "bool",
        "numberOfBytes": "1"
      },
      "t_contract(ISyntheticLootCharacterAssets)2823": {
        "encoding": "inplace",
        "label": "contract ISyntheticLootCharacterAssets",
        "numberOfBytes": "20"
      },
      "t_contract(SyntheticLoot)2714": {
        "encoding": "inplace",
        "label": "contract SyntheticLoot",
        "numberOfBytes": "20"
      },
      "t_mapping(t_address,t_bool)": {
        "encoding": "mapping",
        "key": "t_address",
        "label": "mapping(address => bool)",
        "numberOfBytes": "32",
        "value": "t_bool"
      },
      "t_mapping(t_address,t_mapping(t_address,t_bool))": {
        "encoding": "mapping",
        "key": "t_address",
        "label": "mapping(address => mapping(address => bool))",
        "numberOfBytes": "32",
        "value": "t_mapping(t_address,t_bool)"
      },
      "t_mapping(t_address,t_uint256)": {
        "encoding": "mapping",
        "key": "t_address",
        "label": "mapping(address => uint256)",
        "numberOfBytes": "32",
        "value": "t_uint256"
      },
      "t_mapping(t_uint256,t_address)": {
        "encoding": "mapping",
        "key": "t_uint256",
        "label": "mapping(uint256 => address)",
        "numberOfBytes": "32",
        "value": "t_address"
      },
      "t_string_storage": {
        "encoding": "bytes",
        "label": "string",
        "numberOfBytes": "32"
      },
      "t_uint256": {
        "encoding": "inplace",
        "label": "uint256",
        "numberOfBytes": "32"
      }
    }
  }
}