{
  "address": "0x0970a2c5247794cC40A5D11C11B13Ce2f1e20161",
  "abi": [
    {
      "inputs": [
        {
          "internalType": "address",
          "name": "walletAddress",
          "type": "address"
        }
      ],
      "name": "chestComponents",
      "outputs": [
        {
          "internalType": "uint256[5]",
          "name": "",
          "type": "uint256[5]"
        }
      ],
      "stateMutability": "view",
      "type": "function"
    },
    {
      "inputs": [
        {
          "internalType": "address",
          "name": "walletAddress",
          "type": "address"
        }
      ],
      "name": "footComponents",
      "outputs": [
        {
          "internalType": "uint256[5]",
          "name": "",
          "type": "uint256[5]"
        }
      ],
      "stateMutability": "view",
      "type": "function"
    },
    {
      "inputs": [
        {
          "internalType": "address",
          "name": "walletAddress",
          "type": "address"
        }
      ],
      "name": "getChest",
      "outputs": [
        {
          "internalType": "string",
          "name": "",
          "type": "string"
        }
      ],
      "stateMutability": "view",
      "type": "function"
    },
    {
      "inputs": [
        {
          "internalType": "address",
          "name": "walletAddress",
          "type": "address"
        }
      ],
      "name": "getFoot",
      "outputs": [
        {
          "internalType": "string",
          "name": "",
          "type": "string"
        }
      ],
      "stateMutability": "view",
      "type": "function"
    },
    {
      "inputs": [
        {
          "internalType": "address",
          "name": "walletAddress",
          "type": "address"
        }
      ],
      "name": "getHand",
      "outputs": [
        {
          "internalType": "string",
          "name": "",
          "type": "string"
        }
      ],
      "stateMutability": "view",
      "type": "function"
    },
    {
      "inputs": [
        {
          "internalType": "address",
          "name": "walletAddress",
          "type": "address"
        }
      ],
      "name": "getHead",
      "outputs": [
        {
          "internalType": "string",
          "name": "",
          "type": "string"
        }
      ],
      "stateMutability": "view",
      "type": "function"
    },
    {
      "inputs": [
        {
          "internalType": "address",
          "name": "walletAddress",
          "type": "address"
        }
      ],
      "name": "getNeck",
      "outputs": [
        {
          "internalType": "string",
          "name": "",
          "type": "string"
        }
      ],
      "stateMutability": "view",
      "type": "function"
    },
    {
      "inputs": [
        {
          "internalType": "address",
          "name": "walletAddress",
          "type": "address"
        }
      ],
      "name": "getRing",
      "outputs": [
        {
          "internalType": "string",
          "name": "",
          "type": "string"
        }
      ],
      "stateMutability": "view",
      "type": "function"
    },
    {
      "inputs": [
        {
          "internalType": "address",
          "name": "walletAddress",
          "type": "address"
        }
      ],
      "name": "getWaist",
      "outputs": [
        {
          "internalType": "string",
          "name": "",
          "type": "string"
        }
      ],
      "stateMutability": "view",
      "type": "function"
    },
    {
      "inputs": [
        {
          "internalType": "address",
          "name": "walletAddress",
          "type": "address"
        }
      ],
      "name": "getWeapon",
      "outputs": [
        {
          "internalType": "string",
          "name": "",
          "type": "string"
        }
      ],
      "stateMutability": "view",
      "type": "function"
    },
    {
      "inputs": [
        {
          "internalType": "address",
          "name": "walletAddress",
          "type": "address"
        }
      ],
      "name": "handComponents",
      "outputs": [
        {
          "internalType": "uint256[5]",
          "name": "",
          "type": "uint256[5]"
        }
      ],
      "stateMutability": "view",
      "type": "function"
    },
    {
      "inputs": [
        {
          "internalType": "address",
          "name": "walletAddress",
          "type": "address"
        }
      ],
      "name": "headComponents",
      "outputs": [
        {
          "internalType": "uint256[5]",
          "name": "",
          "type": "uint256[5]"
        }
      ],
      "stateMutability": "view",
      "type": "function"
    },
    {
      "inputs": [
        {
          "internalType": "address",
          "name": "walletAddress",
          "type": "address"
        }
      ],
      "name": "neckComponents",
      "outputs": [
        {
          "internalType": "uint256[5]",
          "name": "",
          "type": "uint256[5]"
        }
      ],
      "stateMutability": "view",
      "type": "function"
    },
    {
      "inputs": [
        {
          "internalType": "address",
          "name": "walletAddress",
          "type": "address"
        }
      ],
      "name": "ringComponents",
      "outputs": [
        {
          "internalType": "uint256[5]",
          "name": "",
          "type": "uint256[5]"
        }
      ],
      "stateMutability": "view",
      "type": "function"
    },
    {
      "inputs": [
        {
          "internalType": "address",
          "name": "walletAddress",
          "type": "address"
        }
      ],
      "name": "tokenURI",
      "outputs": [
        {
          "internalType": "string",
          "name": "",
          "type": "string"
        }
      ],
      "stateMutability": "view",
      "type": "function"
    },
    {
      "inputs": [
        {
          "internalType": "address",
          "name": "walletAddress",
          "type": "address"
        }
      ],
      "name": "waistComponents",
      "outputs": [
        {
          "internalType": "uint256[5]",
          "name": "",
          "type": "uint256[5]"
        }
      ],
      "stateMutability": "view",
      "type": "function"
    },
    {
      "inputs": [
        {
          "internalType": "address",
          "name": "walletAddress",
          "type": "address"
        }
      ],
      "name": "weaponComponents",
      "outputs": [
        {
          "internalType": "uint256[5]",
          "name": "",
          "type": "uint256[5]"
        }
      ],
      "stateMutability": "view",
      "type": "function"
    }
  ],
  "transactionHash": "0x39b65e6a9f3004968f8f84af48253162d316fe2f62911ae9875de6c6edf9cbe2",
  "args": [],
  "numDeployments": 5,
  "solcInputHash": "493cebc4e2853a97d41381074afb3489",
  "bytecode": "0x60806040526040518061024001604052806040518060400160405280600981526020017f57617268616d6d6572000000000000000000000000000000000000000000000081525081526020016040518060400160405280600c81526020017f517561727465727374616666000000000000000000000000000000000000000081525081526020016040518060400160405280600481526020017f4d61756c0000000000000000000000000000000000000000000000000000000081525081526020016040518060400160405280600481526020017f4d6163650000000000000000000000000000000000000000000000000000000081525081526020016040518060400160405280600481526020017f436c75620000000000000000000000000000000000000000000000000000000081525081526020016040518060400160405280600681526020017f4b6174616e61000000000000000000000000000000000000000000000000000081525081526020016040518060400160405280600881526020017f46616c6368696f6e00000000000000000000000000000000000000000000000081525081526020016040518060400160405280600881526020017f5363696d6974617200000000000000000000000000000000000000000000000081525081526020016040518060400160405280600a81526020017f4c6f6e672053776f72640000000000000000000000000000000000000000000081525081526020016040518060400160405280600b81526020017f53686f72742053776f726400000000000000000000000000000000000000000081525081526020016040518060400160405280600a81526020017f47686f73742057616e640000000000000000000000000000000000000000000081525081526020016040518060400160405280600a81526020017f47726176652057616e640000000000000000000000000000000000000000000081525081526020016040518060400160405280600981526020017f426f6e652057616e64000000000000000000000000000000000000000000000081525081526020016040518060400160405280600481526020017f57616e640000000000000000000000000000000000000000000000000000000081525081526020016040518060400160405280600881526020017f4772696d6f69726500000000000000000000000000000000000000000000000081525081526020016040518060400160405280600981526020017f4368726f6e69636c65000000000000000000000000000000000000000000000081525081526020016040518060400160405280600481526020017f546f6d650000000000000000000000000000000000000000000000000000000081525081526020016040518060400160405280600481526020017f426f6f6b0000000000000000000000000000000000000000000000000000000081525081525060009060126200044692919062003059565b50604051806101e001604052806040518060400160405280600b81526020017f446976696e6520526f626500000000000000000000000000000000000000000081525081526020016040518060400160405280600981526020017f53696c6b20526f6265000000000000000000000000000000000000000000000081525081526020016040518060400160405280600a81526020017f4c696e656e20526f62650000000000000000000000000000000000000000000081525081526020016040518060400160405280600481526020017f526f62650000000000000000000000000000000000000000000000000000000081525081526020016040518060400160405280600581526020017f536869727400000000000000000000000000000000000000000000000000000081525081526020016040518060400160405280600a81526020017f44656d6f6e204875736b0000000000000000000000000000000000000000000081525081526020016040518060400160405280601081526020017f447261676f6e736b696e2041726d6f720000000000000000000000000000000081525081526020016040518060400160405280601581526020017f53747564646564204c6561746865722041726d6f72000000000000000000000081525081526020016040518060400160405280601281526020017f48617264204c6561746865722041726d6f72000000000000000000000000000081525081526020016040518060400160405280600d81526020017f4c6561746865722041726d6f720000000000000000000000000000000000000081525081526020016040518060400160405280600f81526020017f486f6c79204368657374706c617465000000000000000000000000000000000081525081526020016040518060400160405280601181526020017f4f726e617465204368657374706c61746500000000000000000000000000000081525081526020016040518060400160405280600a81526020017f506c617465204d61696c0000000000000000000000000000000000000000000081525081526020016040518060400160405280600a81526020017f436861696e204d61696c0000000000000000000000000000000000000000000081525081526020016040518060400160405280600981526020017f52696e67204d61696c0000000000000000000000000000000000000000000000815250815250600190600f620007d8929190620030c0565b50604051806101e001604052806040518060400160405280600c81526020017f416e6369656e742048656c6d000000000000000000000000000000000000000081525081526020016040518060400160405280600b81526020017f4f726e6174652048656c6d00000000000000000000000000000000000000000081525081526020016040518060400160405280600a81526020017f47726561742048656c6d0000000000000000000000000000000000000000000081525081526020016040518060400160405280600981526020017f46756c6c2048656c6d000000000000000000000000000000000000000000000081525081526020016040518060400160405280600481526020017f48656c6d0000000000000000000000000000000000000000000000000000000081525081526020016040518060400160405280600b81526020017f44656d6f6e2043726f776e00000000000000000000000000000000000000000081525081526020016040518060400160405280600e81526020017f447261676f6e27732043726f776e00000000000000000000000000000000000081525081526020016040518060400160405280600781526020017f576172204361700000000000000000000000000000000000000000000000000081525081526020016040518060400160405280600b81526020017f4c6561746865722043617000000000000000000000000000000000000000000081525081526020016040518060400160405280600381526020017f436170000000000000000000000000000000000000000000000000000000000081525081526020016040518060400160405280600581526020017f43726f776e00000000000000000000000000000000000000000000000000000081525081526020016040518060400160405280600b81526020017f446976696e6520486f6f6400000000000000000000000000000000000000000081525081526020016040518060400160405280600981526020017f53696c6b20486f6f64000000000000000000000000000000000000000000000081525081526020016040518060400160405280600a81526020017f4c696e656e20486f6f640000000000000000000000000000000000000000000081525081526020016040518060400160405280600481526020017f486f6f6400000000000000000000000000000000000000000000000000000000815250815250600290600f62000b6a929190620030c0565b50604051806101e001604052806040518060400160405280600b81526020017f4f726e6174652042656c7400000000000000000000000000000000000000000081525081526020016040518060400160405280600881526020017f5761722042656c7400000000000000000000000000000000000000000000000081525081526020016040518060400160405280600b81526020017f506c617465642042656c7400000000000000000000000000000000000000000081525081526020016040518060400160405280600981526020017f4d6573682042656c74000000000000000000000000000000000000000000000081525081526020016040518060400160405280600a81526020017f48656176792042656c740000000000000000000000000000000000000000000081525081526020016040518060400160405280600e81526020017f44656d6f6e686964652042656c7400000000000000000000000000000000000081525081526020016040518060400160405280600f81526020017f447261676f6e736b696e2042656c74000000000000000000000000000000000081525081526020016040518060400160405280601481526020017f53747564646564204c6561746865722042656c7400000000000000000000000081525081526020016040518060400160405280601181526020017f48617264204c6561746865722042656c7400000000000000000000000000000081525081526020016040518060400160405280600c81526020017f4c6561746865722042656c74000000000000000000000000000000000000000081525081526020016040518060400160405280600f81526020017f42726967687473696c6b2053617368000000000000000000000000000000000081525081526020016040518060400160405280600981526020017f53696c6b2053617368000000000000000000000000000000000000000000000081525081526020016040518060400160405280600981526020017f576f6f6c2053617368000000000000000000000000000000000000000000000081525081526020016040518060400160405280600a81526020017f4c696e656e20536173680000000000000000000000000000000000000000000081525081526020016040518060400160405280600481526020017f5361736800000000000000000000000000000000000000000000000000000000815250815250600390600f62000efc929190620030c0565b50604051806101e001604052806040518060400160405280600c81526020017f486f6c792047726561766573000000000000000000000000000000000000000081525081526020016040518060400160405280600e81526020017f4f726e617465204772656176657300000000000000000000000000000000000081525081526020016040518060400160405280600781526020017f477265617665730000000000000000000000000000000000000000000000000081525081526020016040518060400160405280600b81526020017f436861696e20426f6f747300000000000000000000000000000000000000000081525081526020016040518060400160405280600b81526020017f486561767920426f6f747300000000000000000000000000000000000000000081525081526020016040518060400160405280600f81526020017f44656d6f6e6869646520426f6f7473000000000000000000000000000000000081525081526020016040518060400160405280601081526020017f447261676f6e736b696e20426f6f74730000000000000000000000000000000081525081526020016040518060400160405280601581526020017f53747564646564204c65617468657220426f6f7473000000000000000000000081525081526020016040518060400160405280601281526020017f48617264204c65617468657220426f6f7473000000000000000000000000000081525081526020016040518060400160405280600d81526020017f4c65617468657220426f6f74730000000000000000000000000000000000000081525081526020016040518060400160405280600f81526020017f446976696e6520536c697070657273000000000000000000000000000000000081525081526020016040518060400160405280600d81526020017f53696c6b20536c6970706572730000000000000000000000000000000000000081525081526020016040518060400160405280600a81526020017f576f6f6c2053686f65730000000000000000000000000000000000000000000081525081526020016040518060400160405280600b81526020017f4c696e656e2053686f657300000000000000000000000000000000000000000081525081526020016040518060400160405280600581526020017f53686f6573000000000000000000000000000000000000000000000000000000815250815250600490600f6200128e929190620030c0565b50604051806101e001604052806040518060400160405280600e81526020017f486f6c79204761756e746c65747300000000000000000000000000000000000081525081526020016040518060400160405280601081526020017f4f726e617465204761756e746c6574730000000000000000000000000000000081525081526020016040518060400160405280600981526020017f4761756e746c657473000000000000000000000000000000000000000000000081525081526020016040518060400160405280600c81526020017f436861696e20476c6f766573000000000000000000000000000000000000000081525081526020016040518060400160405280600c81526020017f486561767920476c6f766573000000000000000000000000000000000000000081525081526020016040518060400160405280600d81526020017f44656d6f6e27732048616e64730000000000000000000000000000000000000081525081526020016040518060400160405280601181526020017f447261676f6e736b696e20476c6f76657300000000000000000000000000000081525081526020016040518060400160405280601681526020017f53747564646564204c65617468657220476c6f7665730000000000000000000081525081526020016040518060400160405280601381526020017f48617264204c65617468657220476c6f7665730000000000000000000000000081525081526020016040518060400160405280600e81526020017f4c65617468657220476c6f76657300000000000000000000000000000000000081525081526020016040518060400160405280600d81526020017f446976696e6520476c6f7665730000000000000000000000000000000000000081525081526020016040518060400160405280600b81526020017f53696c6b20476c6f76657300000000000000000000000000000000000000000081525081526020016040518060400160405280600b81526020017f576f6f6c20476c6f76657300000000000000000000000000000000000000000081525081526020016040518060400160405280600c81526020017f4c696e656e20476c6f766573000000000000000000000000000000000000000081525081526020016040518060400160405280600681526020017f476c6f7665730000000000000000000000000000000000000000000000000000815250815250600590600f62001620929190620030c0565b5060405180606001604052806040518060400160405280600881526020017f4e65636b6c61636500000000000000000000000000000000000000000000000081525081526020016040518060400160405280600681526020017f416d756c6574000000000000000000000000000000000000000000000000000081525081526020016040518060400160405280600781526020017f50656e64616e74000000000000000000000000000000000000000000000000008152508152506006906003620016ed92919062003127565b506040518060a001604052806040518060400160405280600981526020017f476f6c642052696e67000000000000000000000000000000000000000000000081525081526020016040518060400160405280600b81526020017f53696c7665722052696e6700000000000000000000000000000000000000000081525081526020016040518060400160405280600b81526020017f42726f6e7a652052696e6700000000000000000000000000000000000000000081525081526020016040518060400160405280600d81526020017f506c6174696e756d2052696e670000000000000000000000000000000000000081525081526020016040518060400160405280600d81526020017f546974616e69756d2052696e67000000000000000000000000000000000000008152508152506007906005620018309291906200318e565b506040518061020001604052806040518060400160405280600881526020017f6f6620506f77657200000000000000000000000000000000000000000000000081525081526020016040518060400160405280600981526020017f6f66204769616e7473000000000000000000000000000000000000000000000081525081526020016040518060400160405280600981526020017f6f6620546974616e73000000000000000000000000000000000000000000000081525081526020016040518060400160405280600881526020017f6f6620536b696c6c00000000000000000000000000000000000000000000000081525081526020016040518060400160405280600d81526020017f6f662050657266656374696f6e0000000000000000000000000000000000000081525081526020016040518060400160405280600d81526020017f6f66204272696c6c69616e63650000000000000000000000000000000000000081525081526020016040518060400160405280601081526020017f6f6620456e6c69676874656e6d656e740000000000000000000000000000000081525081526020016040518060400160405280600d81526020017f6f662050726f74656374696f6e0000000000000000000000000000000000000081525081526020016040518060400160405280600881526020017f6f6620416e67657200000000000000000000000000000000000000000000000081525081526020016040518060400160405280600781526020017f6f6620526167650000000000000000000000000000000000000000000000000081525081526020016040518060400160405280600781526020017f6f6620467572790000000000000000000000000000000000000000000000000081525081526020016040518060400160405280600a81526020017f6f662056697472696f6c0000000000000000000000000000000000000000000081525081526020016040518060400160405280600a81526020017f6f662074686520466f780000000000000000000000000000000000000000000081525081526020016040518060400160405280600c81526020017f6f6620446574656374696f6e000000000000000000000000000000000000000081525081526020016040518060400160405280600d81526020017f6f66205265666c656374696f6e0000000000000000000000000000000000000081525081526020016040518060400160405280600c81526020017f6f6620746865205477696e730000000000000000000000000000000000000000815250815250600890601062001bfd929190620031f5565b50604051806108a001604052806040518060400160405280600581526020017f41676f6e7900000000000000000000000000000000000000000000000000000081525081526020016040518060400160405280600a81526020017f41706f63616c797073650000000000000000000000000000000000000000000081525081526020016040518060400160405280600a81526020017f41726d61676564646f6e0000000000000000000000000000000000000000000081525081526020016040518060400160405280600581526020017f426561737400000000000000000000000000000000000000000000000000000081525081526020016040518060400160405280600881526020017f426568656d6f746800000000000000000000000000000000000000000000000081525081526020016040518060400160405280600681526020017f426c69676874000000000000000000000000000000000000000000000000000081525081526020016040518060400160405280600581526020017f426c6f6f6400000000000000000000000000000000000000000000000000000081525081526020016040518060400160405280600781526020017f4272616d626c650000000000000000000000000000000000000000000000000081525081526020016040518060400160405280600981526020017f4272696d73746f6e65000000000000000000000000000000000000000000000081525081526020016040518060400160405280600581526020017f42726f6f6400000000000000000000000000000000000000000000000000000081525081526020016040518060400160405280600781526020017f43617272696f6e0000000000000000000000000000000000000000000000000081525081526020016040518060400160405280600981526020017f43617461636c79736d000000000000000000000000000000000000000000000081525081526020016040518060400160405280600881526020017f4368696d6572696300000000000000000000000000000000000000000000000081525081526020016040518060400160405280600681526020017f436f72707365000000000000000000000000000000000000000000000000000081525081526020016040518060400160405280600a81526020017f436f7272757074696f6e0000000000000000000000000000000000000000000081525081526020016040518060400160405280600981526020017f44616d6e6174696f6e000000000000000000000000000000000000000000000081525081526020016040518060400160405280600581526020017f446561746800000000000000000000000000000000000000000000000000000081525081526020016040518060400160405280600581526020017f44656d6f6e00000000000000000000000000000000000000000000000000000081525081526020016040518060400160405280600481526020017f446972650000000000000000000000000000000000000000000000000000000081525081526020016040518060400160405280600681526020017f447261676f6e000000000000000000000000000000000000000000000000000081525081526020016040518060400160405280600581526020017f447265616400000000000000000000000000000000000000000000000000000081525081526020016040518060400160405280600481526020017f446f6f6d0000000000000000000000000000000000000000000000000000000081525081526020016040518060400160405280600481526020017f4475736b0000000000000000000000000000000000000000000000000000000081525081526020016040518060400160405280600581526020017f4561676c6500000000000000000000000000000000000000000000000000000081525081526020016040518060400160405280600881526020017f456d70797265616e00000000000000000000000000000000000000000000000081525081526020016040518060400160405280600481526020017f466174650000000000000000000000000000000000000000000000000000000081525081526020016040518060400160405280600381526020017f466f65000000000000000000000000000000000000000000000000000000000081525081526020016040518060400160405280600481526020017f47616c650000000000000000000000000000000000000000000000000000000081525081526020016040518060400160405280600581526020017f47686f756c00000000000000000000000000000000000000000000000000000081525081526020016040518060400160405280600581526020017f476c6f6f6d00000000000000000000000000000000000000000000000000000081525081526020016040518060400160405280600581526020017f476c79706800000000000000000000000000000000000000000000000000000081525081526020016040518060400160405280600581526020017f476f6c656d00000000000000000000000000000000000000000000000000000081525081526020016040518060400160405280600481526020017f4772696d0000000000000000000000000000000000000000000000000000000081525081526020016040518060400160405280600481526020017f486174650000000000000000000000000000000000000000000000000000000081525081526020016040518060400160405280600581526020017f4861766f6300000000000000000000000000000000000000000000000000000081525081526020016040518060400160405280600681526020017f486f6e6f7572000000000000000000000000000000000000000000000000000081525081526020016040518060400160405280600681526020017f486f72726f72000000000000000000000000000000000000000000000000000081525081526020016040518060400160405280600881526020017f4879706e6f74696300000000000000000000000000000000000000000000000081525081526020016040518060400160405280600681526020017f4b72616b656e000000000000000000000000000000000000000000000000000081525081526020016040518060400160405280600581526020017f4c6f61746800000000000000000000000000000000000000000000000000000081525081526020016040518060400160405280600981526020017f4d61656c7374726f6d000000000000000000000000000000000000000000000081525081526020016040518060400160405280600481526020017f4d696e640000000000000000000000000000000000000000000000000000000081525081526020016040518060400160405280600781526020017f4d697261636c650000000000000000000000000000000000000000000000000081525081526020016040518060400160405280600681526020017f4d6f72626964000000000000000000000000000000000000000000000000000081525081526020016040518060400160405280600881526020017f4f626c6976696f6e00000000000000000000000000000000000000000000000081525081526020016040518060400160405280600981526020017f4f6e736c6175676874000000000000000000000000000000000000000000000081525081526020016040518060400160405280600481526020017f5061696e0000000000000000000000000000000000000000000000000000000081525081526020016040518060400160405280600b81526020017f50616e64656d6f6e69756d00000000000000000000000000000000000000000081525081526020016040518060400160405280600781526020017f50686f656e69780000000000000000000000000000000000000000000000000081525081526020016040518060400160405280600681526020017f506c61677565000000000000000000000000000000000000000000000000000081525081526020016040518060400160405280600481526020017f526167650000000000000000000000000000000000000000000000000000000081525081526020016040518060400160405280600781526020017f526170747572650000000000000000000000000000000000000000000000000081525081526020016040518060400160405280600481526020017f52756e650000000000000000000000000000000000000000000000000000000081525081526020016040518060400160405280600581526020017f536b756c6c00000000000000000000000000000000000000000000000000000081525081526020016040518060400160405280600381526020017f536f6c000000000000000000000000000000000000000000000000000000000081525081526020016040518060400160405280600481526020017f536f756c0000000000000000000000000000000000000000000000000000000081525081526020016040518060400160405280600681526020017f536f72726f77000000000000000000000000000000000000000000000000000081525081526020016040518060400160405280600681526020017f537069726974000000000000000000000000000000000000000000000000000081525081526020016040518060400160405280600581526020017f53746f726d00000000000000000000000000000000000000000000000000000081525081526020016040518060400160405280600781526020017f54656d706573740000000000000000000000000000000000000000000000000081525081526020016040518060400160405280600781526020017f546f726d656e740000000000000000000000000000000000000000000000000081525081526020016040518060400160405280600981526020017f56656e6765616e6365000000000000000000000000000000000000000000000081525081526020016040518060400160405280600781526020017f566963746f72790000000000000000000000000000000000000000000000000081525081526020016040518060400160405280600581526020017f566970657200000000000000000000000000000000000000000000000000000081525081526020016040518060400160405280600681526020017f566f72746578000000000000000000000000000000000000000000000000000081525081526020016040518060400160405280600381526020017f576f65000000000000000000000000000000000000000000000000000000000081525081526020016040518060400160405280600581526020017f577261746800000000000000000000000000000000000000000000000000000081525081526020016040518060400160405280600781526020017f4c6967687427730000000000000000000000000000000000000000000000000081525081526020016040518060400160405280600a81526020017f5368696d6d6572696e6700000000000000000000000000000000000000000000815250815250600990604562002c019291906200325c565b506040518061024001604052806040518060400160405280600481526020017f42616e650000000000000000000000000000000000000000000000000000000081525081526020016040518060400160405280600481526020017f526f6f740000000000000000000000000000000000000000000000000000000081525081526020016040518060400160405280600481526020017f426974650000000000000000000000000000000000000000000000000000000081525081526020016040518060400160405280600481526020017f536f6e670000000000000000000000000000000000000000000000000000000081525081526020016040518060400160405280600481526020017f526f61720000000000000000000000000000000000000000000000000000000081525081526020016040518060400160405280600581526020017f477261737000000000000000000000000000000000000000000000000000000081525081526020016040518060400160405280600a81526020017f496e737472756d656e740000000000000000000000000000000000000000000081525081526020016040518060400160405280600481526020017f476c6f770000000000000000000000000000000000000000000000000000000081525081526020016040518060400160405280600681526020017f42656e646572000000000000000000000000000000000000000000000000000081525081526020016040518060400160405280600681526020017f536861646f77000000000000000000000000000000000000000000000000000081525081526020016040518060400160405280600781526020017f576869737065720000000000000000000000000000000000000000000000000081525081526020016040518060400160405280600581526020017f53686f757400000000000000000000000000000000000000000000000000000081525081526020016040518060400160405280600581526020017f47726f776c00000000000000000000000000000000000000000000000000000081525081526020016040518060400160405280600481526020017f546561720000000000000000000000000000000000000000000000000000000081525081526020016040518060400160405280600481526020017f5065616b0000000000000000000000000000000000000000000000000000000081525081526020016040518060400160405280600481526020017f466f726d0000000000000000000000000000000000000000000000000000000081525081526020016040518060400160405280600381526020017f53756e000000000000000000000000000000000000000000000000000000000081525081526020016040518060400160405280600481526020017f4d6f6f6e00000000000000000000000000000000000000000000000000000000815250815250600a9060126200304492919062003059565b503480156200305257600080fd5b5062003446565b828054828255906000526020600020908101928215620030ad579160200282015b82811115620030ac5782518290805190602001906200309b929190620032c3565b50916020019190600101906200307a565b5b509050620030bc919062003354565b5090565b82805482825590600052602060002090810192821562003114579160200282015b828111156200311357825182908051906020019062003102929190620032c3565b5091602001919060010190620030e1565b5b50905062003123919062003354565b5090565b8280548282559060005260206000209081019282156200317b579160200282015b828111156200317a57825182908051906020019062003169929190620032c3565b509160200191906001019062003148565b5b5090506200318a919062003354565b5090565b828054828255906000526020600020908101928215620031e2579160200282015b82811115620031e1578251829080519060200190620031d0929190620032c3565b5091602001919060010190620031af565b5b509050620031f1919062003354565b5090565b82805482825590600052602060002090810192821562003249579160200282015b828111156200324857825182908051906020019062003237929190620032c3565b509160200191906001019062003216565b5b50905062003258919062003354565b5090565b828054828255906000526020600020908101928215620032b0579160200282015b82811115620032af5782518290805190602001906200329e929190620032c3565b50916020019190600101906200327d565b5b509050620032bf919062003354565b5090565b828054620032d19062003410565b90600052602060002090601f016020900481019282620032f5576000855562003341565b82601f106200331057805160ff191683800117855562003341565b8280016001018555821562003341579182015b828111156200334057825182559160200191906001019062003323565b5b5090506200335091906200337c565b5090565b5b808211156200337857600081816200336e91906200339b565b5060010162003355565b5090565b5b80821115620033975760008160009055506001016200337d565b5090565b508054620033a99062003410565b6000825580601f10620033bd5750620033de565b601f016020900490600052602060002090810190620033dd91906200337c565b5b50565b7f4e487b7100000000000000000000000000000000000000000000000000000000600052602260045260246000fd5b600060028204905060018216806200342957607f821691505b6020821081141562003440576200343f620033e1565b5b50919050565b6135bd80620034566000396000f3fe608060405234801561001057600080fd5b506004361061010b5760003560e01c806396a7bb85116100a2578063c3893a9a11610071578063c3893a9a14610350578063c65cd97d14610380578063ddc8422d146103b0578063e73702cf146103e0578063ffcd9d45146104105761010b565b806396a7bb8514610290578063b4630ab0146102c0578063b5fb5fa4146102f0578063bbfa3d4a146103205761010b565b806357e3d14d116100de57806357e3d14d146101d05780636c390589146102005780637d9d7cc21461023057806393702f33146102605761010b565b80630d2f25be146101105780633c607b6714610140578063455ba9ca1461017057806346d868c7146101a0575b600080fd5b61012a60048036038101906101259190612583565b610440565b6040516101379190612649565b60405180910390f35b61015a60048036038101906101559190612583565b61055a565b6040516101679190612649565b60405180910390f35b61018a60048036038101906101859190612583565b610674565b6040516101979190612720565b60405180910390f35b6101ba60048036038101906101b59190612583565b610794565b6040516101c79190612649565b60405180910390f35b6101ea60048036038101906101e59190612583565b6108ae565b6040516101f79190612720565b60405180910390f35b61021a60048036038101906102159190612583565b6109ce565b6040516102279190612720565b60405180910390f35b61024a60048036038101906102459190612583565b610aee565b6040516102579190612720565b60405180910390f35b61027a60048036038101906102759190612583565b610c0e565b6040516102879190612649565b60405180910390f35b6102aa60048036038101906102a59190612583565b6111a4565b6040516102b79190612720565b60405180910390f35b6102da60048036038101906102d59190612583565b6112c4565b6040516102e79190612720565b60405180910390f35b61030a60048036038101906103059190612583565b6113e4565b6040516103179190612720565b60405180910390f35b61033a60048036038101906103359190612583565b611504565b6040516103479190612649565b60405180910390f35b61036a60048036038101906103659190612583565b61161e565b6040516103779190612649565b60405180910390f35b61039a60048036038101906103959190612583565b611738565b6040516103a79190612649565b60405180910390f35b6103ca60048036038101906103c59190612583565b611852565b6040516103d79190612649565b60405180910390f35b6103fa60048036038101906103f59190612583565b61196c565b6040516104079190612720565b60405180910390f35b61042a60048036038101906104259190612583565b611a8c565b6040516104379190612649565b60405180910390f35b6060610553826040518060400160405280600481526020017f52494e47000000000000000000000000000000000000000000000000000000008152506007805480602002602001604051908101604052809291908181526020016000905b8282101561054a5783829060005260206000200180546104bd9061276a565b80601f01602080910402602001604051908101604052809291908181526020018280546104e99061276a565b80156105365780601f1061050b57610100808354040283529160200191610536565b820191906000526020600020905b81548152906001019060200180831161051957829003601f168201915b50505050508152602001906001019061049e565b50505050611ba6565b9050919050565b606061066d826040518060400160405280600581526020017f43484553540000000000000000000000000000000000000000000000000000008152506001805480602002602001604051908101604052809291908181526020016000905b828210156106645783829060005260206000200180546105d79061276a565b80601f01602080910402602001604051908101604052809291908181526020018280546106039061276a565b80156106505780601f1061062557610100808354040283529160200191610650565b820191906000526020600020905b81548152906001019060200180831161063357829003601f168201915b5050505050815260200190600101906105b8565b50505050611ba6565b9050919050565b61067c6124af565b61078d826040518060400160405280600581526020017f57414953540000000000000000000000000000000000000000000000000000008152506003805480602002602001604051908101604052809291908181526020016000905b828210156107845783829060005260206000200180546106f79061276a565b80601f01602080910402602001604051908101604052809291908181526020018280546107239061276a565b80156107705780601f1061074557610100808354040283529160200191610770565b820191906000526020600020905b81548152906001019060200180831161075357829003601f168201915b5050505050815260200190600101906106d8565b50505050611f09565b9050919050565b60606108a7826040518060400160405280600681526020017f574541504f4e00000000000000000000000000000000000000000000000000008152506000805480602002602001604051908101604052809291908181526020016000905b8282101561089e5783829060005260206000200180546108119061276a565b80601f016020809104026020016040519081016040528092919081815260200182805461083d9061276a565b801561088a5780601f1061085f5761010080835404028352916020019161088a565b820191906000526020600020905b81548152906001019060200180831161086d57829003601f168201915b5050505050815260200190600101906107f2565b50505050611ba6565b9050919050565b6108b66124af565b6109c7826040518060400160405280600481526020017f48414e44000000000000000000000000000000000000000000000000000000008152506005805480602002602001604051908101604052809291908181526020016000905b828210156109be5783829060005260206000200180546109319061276a565b80601f016020809104026020016040519081016040528092919081815260200182805461095d9061276a565b80156109aa5780601f1061097f576101008083540402835291602001916109aa565b820191906000526020600020905b81548152906001019060200180831161098d57829003601f168201915b505050505081526020019060010190610912565b50505050611f09565b9050919050565b6109d66124af565b610ae7826040518060400160405280600681526020017f574541504f4e00000000000000000000000000000000000000000000000000008152506000805480602002602001604051908101604052809291908181526020016000905b82821015610ade578382906000526020600020018054610a519061276a565b80601f0160208091040260200160405190810160405280929190818152602001828054610a7d9061276a565b8015610aca5780601f10610a9f57610100808354040283529160200191610aca565b820191906000526020600020905b815481529060010190602001808311610aad57829003601f168201915b505050505081526020019060010190610a32565b50505050611f09565b9050919050565b610af66124af565b610c07826040518060400160405280600481526020017f48454144000000000000000000000000000000000000000000000000000000008152506002805480602002602001604051908101604052809291908181526020016000905b82821015610bfe578382906000526020600020018054610b719061276a565b80601f0160208091040260200160405190810160405280929190818152602001828054610b9d9061276a565b8015610bea5780601f10610bbf57610100808354040283529160200191610bea565b820191906000526020600020905b815481529060010190602001808311610bcd57829003601f168201915b505050505081526020019060010190610b52565b50505050611f09565b9050919050565b6060610c186124d1565b60405180610120016040528060fd81526020016133fa60fd913981600060118110610c4657610c4561279c565b5b6020020181905250610c5783610794565b81600160118110610c6b57610c6a61279c565b5b60200201819052506040518060600160405280602881526020016135606028913981600260118110610ca057610c9f61279c565b5b6020020181905250610cb18361055a565b81600360118110610cc557610cc461279c565b5b602002018190525060405180606001604052806028815260200161332f6028913981600460118110610cfa57610cf961279c565b5b6020020181905250610d0b83611504565b81600560118110610d1f57610d1e61279c565b5b60200201819052506040518060600160405280602881526020016133a96028913981600660118110610d5457610d5361279c565b5b6020020181905250610d6583611a8c565b81600760118110610d7957610d7861279c565b5b60200201819052506040518060600160405280602981526020016133d16029913981600860118110610dae57610dad61279c565b5b6020020181905250610dbf83611738565b81600960118110610dd357610dd261279c565b5b60200201819052506040518060600160405280602981526020016133806029913981600a60118110610e0857610e0761279c565b5b6020020181905250610e198361161e565b81600b60118110610e2d57610e2c61279c565b5b60200201819052506040518060600160405280602981526020016134f76029913981600c60118110610e6257610e6161279c565b5b6020020181905250610e7383611852565b81600d60118110610e8757610e8661279c565b5b60200201819052506040518060600160405280602981526020016133576029913981600e60118110610ebc57610ebb61279c565b5b6020020181905250610ecd83610440565b81600f60118110610ee157610ee061279c565b5b60200201819052506040518060400160405280600d81526020017f3c2f746578743e3c2f7376673e0000000000000000000000000000000000000081525081601060118110610f3357610f3261279c565b5b6020020181905250600081600060118110610f5157610f5061279c565b5b602002015182600160118110610f6a57610f6961279c565b5b602002015183600260118110610f8357610f8261279c565b5b602002015184600360118110610f9c57610f9b61279c565b5b602002015185600460118110610fb557610fb461279c565b5b602002015186600560118110610fce57610fcd61279c565b5b602002015187600660118110610fe757610fe661279c565b5b60200201518860076011811061100057610fff61279c565b5b6020020151896008601181106110195761101861279c565b5b602002015160405160200161103699989796959493929190612807565b6040516020818303038152906040529050808260096011811061105c5761105b61279c565b5b602002015183600a601181106110755761107461279c565b5b602002015184600b6011811061108e5761108d61279c565b5b602002015185600c601181106110a7576110a661279c565b5b602002015186600d601181106110c0576110bf61279c565b5b602002015187600e601181106110d9576110d861279c565b5b602002015188600f601181106110f2576110f161279c565b5b60200201518960106011811061110b5761110a61279c565b5b602002015160405160200161112899989796959493929190612807565b60405160208183030381529060405290506000611175611147866120db565b6111508461229e565b604051602001611161929190612a76565b60405160208183030381529060405261229e565b9050806040516020016111889190612b07565b6040516020818303038152906040529150819350505050919050565b6111ac6124af565b6112bd826040518060400160405280600581526020017f43484553540000000000000000000000000000000000000000000000000000008152506001805480602002602001604051908101604052809291908181526020016000905b828210156112b45783829060005260206000200180546112279061276a565b80601f01602080910402602001604051908101604052809291908181526020018280546112539061276a565b80156112a05780601f10611275576101008083540402835291602001916112a0565b820191906000526020600020905b81548152906001019060200180831161128357829003601f168201915b505050505081526020019060010190611208565b50505050611f09565b9050919050565b6112cc6124af565b6113dd826040518060400160405280600481526020017f4e45434b000000000000000000000000000000000000000000000000000000008152506006805480602002602001604051908101604052809291908181526020016000905b828210156113d45783829060005260206000200180546113479061276a565b80601f01602080910402602001604051908101604052809291908181526020018280546113739061276a565b80156113c05780601f10611395576101008083540402835291602001916113c0565b820191906000526020600020905b8154815290600101906020018083116113a357829003601f168201915b505050505081526020019060010190611328565b50505050611f09565b9050919050565b6113ec6124af565b6114fd826040518060400160405280600481526020017f464f4f54000000000000000000000000000000000000000000000000000000008152506004805480602002602001604051908101604052809291908181526020016000905b828210156114f45783829060005260206000200180546114679061276a565b80601f01602080910402602001604051908101604052809291908181526020018280546114939061276a565b80156114e05780601f106114b5576101008083540402835291602001916114e0565b820191906000526020600020905b8154815290600101906020018083116114c357829003601f168201915b505050505081526020019060010190611448565b50505050611f09565b9050919050565b6060611617826040518060400160405280600481526020017f48454144000000000000000000000000000000000000000000000000000000008152506002805480602002602001604051908101604052809291908181526020016000905b8282101561160e5783829060005260206000200180546115819061276a565b80601f01602080910402602001604051908101604052809291908181526020018280546115ad9061276a565b80156115fa5780601f106115cf576101008083540402835291602001916115fa565b820191906000526020600020905b8154815290600101906020018083116115dd57829003601f168201915b505050505081526020019060010190611562565b50505050611ba6565b9050919050565b6060611731826040518060400160405280600481526020017f48414e44000000000000000000000000000000000000000000000000000000008152506005805480602002602001604051908101604052809291908181526020016000905b8282101561172857838290600052602060002001805461169b9061276a565b80601f01602080910402602001604051908101604052809291908181526020018280546116c79061276a565b80156117145780601f106116e957610100808354040283529160200191611714565b820191906000526020600020905b8154815290600101906020018083116116f757829003601f168201915b50505050508152602001906001019061167c565b50505050611ba6565b9050919050565b606061184b826040518060400160405280600481526020017f464f4f54000000000000000000000000000000000000000000000000000000008152506004805480602002602001604051908101604052809291908181526020016000905b828210156118425783829060005260206000200180546117b59061276a565b80601f01602080910402602001604051908101604052809291908181526020018280546117e19061276a565b801561182e5780601f106118035761010080835404028352916020019161182e565b820191906000526020600020905b81548152906001019060200180831161181157829003601f168201915b505050505081526020019060010190611796565b50505050611ba6565b9050919050565b6060611965826040518060400160405280600481526020017f4e45434b000000000000000000000000000000000000000000000000000000008152506006805480602002602001604051908101604052809291908181526020016000905b8282101561195c5783829060005260206000200180546118cf9061276a565b80601f01602080910402602001604051908101604052809291908181526020018280546118fb9061276a565b80156119485780601f1061191d57610100808354040283529160200191611948565b820191906000526020600020905b81548152906001019060200180831161192b57829003601f168201915b5050505050815260200190600101906118b0565b50505050611ba6565b9050919050565b6119746124af565b611a85826040518060400160405280600481526020017f52494e47000000000000000000000000000000000000000000000000000000008152506007805480602002602001604051908101604052809291908181526020016000905b82821015611a7c5783829060005260206000200180546119ef9061276a565b80601f0160208091040260200160405190810160405280929190818152602001828054611a1b9061276a565b8015611a685780601f10611a3d57610100808354040283529160200191611a68565b820191906000526020600020905b815481529060010190602001808311611a4b57829003601f168201915b5050505050815260200190600101906119d0565b50505050611f09565b9050919050565b6060611b9f826040518060400160405280600581526020017f57414953540000000000000000000000000000000000000000000000000000008152506003805480602002602001604051908101604052809291908181526020016000905b82821015611b96578382906000526020600020018054611b099061276a565b80601f0160208091040260200160405190810160405280929190818152602001828054611b359061276a565b8015611b825780601f10611b5757610100808354040283529160200191611b82565b820191906000526020600020905b815481529060010190602001808311611b6557829003601f168201915b505050505081526020019060010190611aea565b50505050611ba6565b9050919050565b60606000611bf38486604051602001611bbf9190612b71565b604051602081830303815290604052604051602001611bdf929190612bd3565b604051602081830303815290604052612436565b9050600083845183611c059190612c26565b81518110611c1657611c1561279c565b5b602002602001015190506000601583611c2f9190612c26565b9050600e811115611c8b57816008808054905085611c4d9190612c26565b81548110611c5e57611c5d61279c565b5b90600052602060002001604051602001611c79929190612d37565b60405160208183030381529060405291505b60138110611efc57611c9b6124f9565b6009808054905085611cad9190612c26565b81548110611cbe57611cbd61279c565b5b906000526020600020018054611cd39061276a565b80601f0160208091040260200160405190810160405280929190818152602001828054611cff9061276a565b8015611d4c5780601f10611d2157610100808354040283529160200191611d4c565b820191906000526020600020905b815481529060010190602001808311611d2f57829003601f168201915b505050505081600060028110611d6557611d6461279c565b5b6020020181905250600a808054905085611d7f9190612c26565b81548110611d9057611d8f61279c565b5b906000526020600020018054611da59061276a565b80601f0160208091040260200160405190810160405280929190818152602001828054611dd19061276a565b8015611e1e5780601f10611df357610100808354040283529160200191611e1e565b820191906000526020600020905b815481529060010190602001808311611e0157829003601f168201915b505050505081600160028110611e3757611e3661279c565b5b60200201819052506013821415611ea35780600060028110611e5c57611e5b61279c565b5b602002015181600160028110611e7557611e7461279c565b5b602002015184604051602001611e8d93929190612dfe565b6040516020818303038152906040529250611efa565b80600060028110611eb757611eb661279c565b5b602002015181600160028110611ed057611ecf61279c565b5b602002015184604051602001611ee893929190612e9c565b60405160208183030381529060405292505b505b8193505050509392505050565b611f116124af565b611f196124af565b6000611f648587604051602001611f309190612b71565b604051602081830303815290604052604051602001611f50929190612bd3565b604051602081830303815290604052612436565b9050835181611f739190612c26565b82600060058110611f8757611f8661279c565b5b602002018181525050600082600160058110611fa657611fa561279c565b5b602002018181525050600082600260058110611fc557611fc461279c565b5b6020020181815250506000601582611fdd9190612c26565b9050600e81111561202357600160088054905083611ffb9190612c26565b6120059190612f28565b836001600581106120195761201861279c565b5b6020020181815250505b601381106120ce5760016009805490508361203e9190612c26565b6120489190612f28565b8360026005811061205c5761205b61279c565b5b6020020181815250506001600a80549050836120789190612c26565b6120829190612f28565b836003600581106120965761209561279c565b5b60200201818152505060138114156120ad576120cd565b6001836004600581106120c3576120c261279c565b5b6020020181815250505b5b8293505050509392505050565b60606000602867ffffffffffffffff8111156120fa576120f9612f7e565b5b6040519080825280601f01601f19166020018201604052801561212c5781602001600182028036833780820191505090505b50905060005b601481101561229457600081601361214a9190612fad565b60086121569190612fe1565b6002612162919061316e565b8573ffffffffffffffffffffffffffffffffffffffff1661218391906131b9565b60f81b9050600060108260f81c61219a91906131f7565b60f81b905060008160f81c60106121b19190613228565b8360f81c6121bf9190613263565b60f81b90506121cd82612469565b858560026121db9190612fe1565b815181106121ec576121eb61279c565b5b60200101907effffffffffffffffffffffffffffffffffffffffffffffffffffffffffffff1916908160001a90535061222481612469565b8560018660026122349190612fe1565b61223e9190612f28565b8151811061224f5761224e61279c565b5b60200101907effffffffffffffffffffffffffffffffffffffffffffffffffffffffffffff1916908160001a905350505050808061228c90613297565b915050612132565b5080915050919050565b606060008251905060008114156122c75760405180602001604052806000815250915050612431565b600060036002836122d89190612f28565b6122e291906131b9565b60046122ee9190612fe1565b905060006020826122ff9190612f28565b67ffffffffffffffff81111561231857612317612f7e565b5b6040519080825280601f01601f19166020018201604052801561234a5781602001600182028036833780820191505090505b5090506000604051806060016040528060408152602001613520604091399050600181016020830160005b868110156123ee5760038101905062ffffff818a015116603f8160121c168401518060081b905060ff603f83600c1c1686015116810190508060081b905060ff603f8360061c1686015116810190508060081b905060ff603f831686015116810190508060e01b90508084526004840193505050612375565b506003860660018114612408576002811461241857612423565b613d3d60f01b6002830352612423565b603d60f81b60018303525b508484525050819450505050505b919050565b60008160405160200161244991906132e0565b6040516020818303038152906040528051906020012060001c9050919050565b6000600a8260f81c60ff1610156124945760308260f81c61248a91906132f7565b60f81b90506124aa565b60578260f81c6124a491906132f7565b60f81b90505b919050565b6040518060a00160405280600590602082028036833780820191505090505090565b6040518061022001604052806011905b60608152602001906001900390816124e15790505090565b60405180604001604052806002905b60608152602001906001900390816125085790505090565b600080fd5b600073ffffffffffffffffffffffffffffffffffffffff82169050919050565b600061255082612525565b9050919050565b61256081612545565b811461256b57600080fd5b50565b60008135905061257d81612557565b92915050565b60006020828403121561259957612598612520565b5b60006125a78482850161256e565b91505092915050565b600081519050919050565b600082825260208201905092915050565b60005b838110156125ea5780820151818401526020810190506125cf565b838111156125f9576000848401525b50505050565b6000601f19601f8301169050919050565b600061261b826125b0565b61262581856125bb565b93506126358185602086016125cc565b61263e816125ff565b840191505092915050565b600060208201905081810360008301526126638184612610565b905092915050565b600060059050919050565b600081905092915050565b6000819050919050565b6000819050919050565b61269e8161268b565b82525050565b60006126b08383612695565b60208301905092915050565b6000602082019050919050565b6126d28161266b565b6126dc8184612676565b92506126e782612681565b8060005b838110156127185781516126ff87826126a4565b965061270a836126bc565b9250506001810190506126eb565b505050505050565b600060a08201905061273560008301846126c9565b92915050565b7f4e487b7100000000000000000000000000000000000000000000000000000000600052602260045260246000fd5b6000600282049050600182168061278257607f821691505b602082108114156127965761279561273b565b5b50919050565b7f4e487b7100000000000000000000000000000000000000000000000000000000600052603260045260246000fd5b600081905092915050565b60006127e1826125b0565b6127eb81856127cb565b93506127fb8185602086016125cc565b80840191505092915050565b6000612813828c6127d6565b915061281f828b6127d6565b915061282b828a6127d6565b915061283782896127d6565b915061284382886127d6565b915061284f82876127d6565b915061285b82866127d6565b915061286782856127d6565b915061287382846127d6565b91508190509a9950505050505050505050565b7f7b226e616d65223a202242616720307800000000000000000000000000000000600082015250565b60006128bc6010836127cb565b91506128c782612886565b601082019050919050565b7f222c20226465736372697074696f6e223a20224c6f6f742069732072616e646f60008201527f6d697a656420616476656e747572657220676561722067656e6572617465642060208201527f616e642073746f726564206f6e20636861696e2e2053746174732c20696d616760408201527f65732c20616e64206f746865722066756e6374696f6e616c697479206172652060608201527f696e74656e74696f6e616c6c79206f6d697474656420666f72206f746865727360808201527f20746f20696e746572707265742e204665656c206672656520746f207573652060a08201527f4c6f6f7420696e20616e792077617920796f752077616e742e222c2022696d6160c08201527f6765223a2022646174613a696d6167652f7376672b786d6c3b6261736536342c60e082015250565b6000612a13610100836127cb565b9150612a1e826128d2565b61010082019050919050565b7f227d000000000000000000000000000000000000000000000000000000000000600082015250565b6000612a606002836127cb565b9150612a6b82612a2a565b600282019050919050565b6000612a81826128af565b9150612a8d82856127d6565b9150612a9882612a05565b9150612aa482846127d6565b9150612aaf82612a53565b91508190509392505050565b7f646174613a6170706c69636174696f6e2f6a736f6e3b6261736536342c000000600082015250565b6000612af1601d836127cb565b9150612afc82612abb565b601d82019050919050565b6000612b1282612ae4565b9150612b1e82846127d6565b915081905092915050565b60008160601b9050919050565b6000612b4182612b29565b9050919050565b6000612b5382612b36565b9050919050565b612b6b612b6682612545565b612b48565b82525050565b6000612b7d8284612b5a565b60148201915081905092915050565b600081519050919050565b600081905092915050565b6000612bad82612b8c565b612bb78185612b97565b9350612bc78185602086016125cc565b80840191505092915050565b6000612bdf82856127d6565b9150612beb8284612ba2565b91508190509392505050565b7f4e487b7100000000000000000000000000000000000000000000000000000000600052601260045260246000fd5b6000612c318261268b565b9150612c3c8361268b565b925082612c4c57612c4b612bf7565b5b828206905092915050565b7f2000000000000000000000000000000000000000000000000000000000000000600082015250565b6000612c8d6001836127cb565b9150612c9882612c57565b600182019050919050565b60008190508160005260206000209050919050565b60008154612cc58161276a565b612ccf81866127cb565b94506001821660008114612cea5760018114612cfb57612d2e565b60ff19831686528186019350612d2e565b612d0485612ca3565b60005b83811015612d2657815481890152600182019150602081019050612d07565b838801955050505b50505092915050565b6000612d4382856127d6565b9150612d4e82612c80565b9150612d5a8284612cb8565b91508190509392505050565b7f2200000000000000000000000000000000000000000000000000000000000000600082015250565b6000612d9c6001836127cb565b9150612da782612d66565b600182019050919050565b7f2220000000000000000000000000000000000000000000000000000000000000600082015250565b6000612de86002836127cb565b9150612df382612db2565b600282019050919050565b6000612e0982612d8f565b9150612e1582866127d6565b9150612e2082612c80565b9150612e2c82856127d6565b9150612e3782612ddb565b9150612e4382846127d6565b9150819050949350505050565b7f202b310000000000000000000000000000000000000000000000000000000000600082015250565b6000612e866003836127cb565b9150612e9182612e50565b600382019050919050565b6000612ea782612d8f565b9150612eb382866127d6565b9150612ebe82612c80565b9150612eca82856127d6565b9150612ed582612ddb565b9150612ee182846127d6565b9150612eec82612e79565b9150819050949350505050565b7f4e487b7100000000000000000000000000000000000000000000000000000000600052601160045260246000fd5b6000612f338261268b565b9150612f3e8361268b565b9250827fffffffffffffffffffffffffffffffffffffffffffffffffffffffffffffffff03821115612f7357612f72612ef9565b5b828201905092915050565b7f4e487b7100000000000000000000000000000000000000000000000000000000600052604160045260246000fd5b6000612fb88261268b565b9150612fc38361268b565b925082821015612fd657612fd5612ef9565b5b828203905092915050565b6000612fec8261268b565b9150612ff78361268b565b9250817fffffffffffffffffffffffffffffffffffffffffffffffffffffffffffffffff04831182151516156130305761302f612ef9565b5b828202905092915050565b60008160011c9050919050565b6000808291508390505b60018511156130925780860481111561306e5761306d612ef9565b5b600185161561307d5780820291505b808102905061308b8561303b565b9450613052565b94509492505050565b6000826130ab5760019050613167565b816130b95760009050613167565b81600181146130cf57600281146130d957613108565b6001915050613167565b60ff8411156130eb576130ea612ef9565b5b8360020a91508482111561310257613101612ef9565b5b50613167565b5060208310610133831016604e8410600b841016171561313d5782820a90508381111561313857613137612ef9565b5b613167565b61314a8484846001613048565b9250905081840481111561316157613160612ef9565b5b81810290505b9392505050565b60006131798261268b565b91506131848361268b565b92506131b17fffffffffffffffffffffffffffffffffffffffffffffffffffffffffffffffff848461309b565b905092915050565b60006131c48261268b565b91506131cf8361268b565b9250826131df576131de612bf7565b5b828204905092915050565b600060ff82169050919050565b6000613202826131ea565b915061320d836131ea565b92508261321d5761321c612bf7565b5b828204905092915050565b6000613233826131ea565b915061323e836131ea565b92508160ff048311821515161561325857613257612ef9565b5b828202905092915050565b600061326e826131ea565b9150613279836131ea565b92508282101561328c5761328b612ef9565b5b828203905092915050565b60006132a28261268b565b91507fffffffffffffffffffffffffffffffffffffffffffffffffffffffffffffffff8214156132d5576132d4612ef9565b5b600182019050919050565b60006132ec82846127d6565b915081905092915050565b6000613302826131ea565b915061330d836131ea565b92508260ff0382111561332357613322612ef9565b5b82820190509291505056fe3c2f746578743e3c7465787420783d2231302220793d2236302220636c6173733d2262617365223e3c2f746578743e3c7465787420783d2231302220793d223136302220636c6173733d2262617365223e3c2f746578743e3c7465787420783d2231302220793d223132302220636c6173733d2262617365223e3c2f746578743e3c7465787420783d2231302220793d2238302220636c6173733d2262617365223e3c2f746578743e3c7465787420783d2231302220793d223130302220636c6173733d2262617365223e3c73766720786d6c6e733d22687474703a2f2f7777772e77332e6f72672f323030302f73766722207072657365727665417370656374526174696f3d22784d696e594d696e206d656574222076696577426f783d223020302033353020333530223e3c7374796c653e2e62617365207b2066696c6c3a2077686974653b20666f6e742d66616d696c793a2073657269663b20666f6e742d73697a653a20313470783b207d3c2f7374796c653e3c726563742077696474683d223130302522206865696768743d2231303025222066696c6c3d22626c61636b22202f3e3c7465787420783d2231302220793d2232302220636c6173733d2262617365223e3c2f746578743e3c7465787420783d2231302220793d223134302220636c6173733d2262617365223e4142434445464748494a4b4c4d4e4f505152535455565758595a6162636465666768696a6b6c6d6e6f707172737475767778797a303132333435363738392b2f3c2f746578743e3c7465787420783d2231302220793d2234302220636c6173733d2262617365223ea264697066735822122085635ac8845899bbd28a2e6c2f91cc57a9a7b0e21bbddacf84788d8c920cbdaa64736f6c634300080c0033",
  "devdoc": {
    "kind": "dev",
    "methods": {},
    "version": 1
  },
  "userdoc": {
    "kind": "user",
    "methods": {},
    "version": 1
  },
  "storageLayout": {
    "storage": [
      {
        "astId": 1612,
        "contract": "contracts/external/SyntheticLoot.sol:SyntheticLoot",
        "label": "weapons",
        "offset": 0,
        "slot": "0",
        "type": "t_array(t_string_storage)dyn_storage"
      },
      {
        "astId": 1631,
        "contract": "contracts/external/SyntheticLoot.sol:SyntheticLoot",
        "label": "chestArmor",
        "offset": 0,
        "slot": "1",
        "type": "t_array(t_string_storage)dyn_storage"
      },
      {
        "astId": 1650,
        "contract": "contracts/external/SyntheticLoot.sol:SyntheticLoot",
        "label": "headArmor",
        "offset": 0,
        "slot": "2",
        "type": "t_array(t_string_storage)dyn_storage"
      },
      {
        "astId": 1669,
        "contract": "contracts/external/SyntheticLoot.sol:SyntheticLoot",
        "label": "waistArmor",
        "offset": 0,
        "slot": "3",
        "type": "t_array(t_string_storage)dyn_storage"
      },
      {
        "astId": 1688,
        "contract": "contracts/external/SyntheticLoot.sol:SyntheticLoot",
        "label": "footArmor",
        "offset": 0,
        "slot": "4",
        "type": "t_array(t_string_storage)dyn_storage"
      },
      {
        "astId": 1707,
        "contract": "contracts/external/SyntheticLoot.sol:SyntheticLoot",
        "label": "handArmor",
        "offset": 0,
        "slot": "5",
        "type": "t_array(t_string_storage)dyn_storage"
      },
      {
        "astId": 1714,
        "contract": "contracts/external/SyntheticLoot.sol:SyntheticLoot",
        "label": "necklaces",
        "offset": 0,
        "slot": "6",
        "type": "t_array(t_string_storage)dyn_storage"
      },
      {
        "astId": 1723,
        "contract": "contracts/external/SyntheticLoot.sol:SyntheticLoot",
        "label": "rings",
        "offset": 0,
        "slot": "7",
        "type": "t_array(t_string_storage)dyn_storage"
      },
      {
        "astId": 1743,
        "contract": "contracts/external/SyntheticLoot.sol:SyntheticLoot",
        "label": "suffixes",
        "offset": 0,
        "slot": "8",
        "type": "t_array(t_string_storage)dyn_storage"
      },
      {
        "astId": 1816,
        "contract": "contracts/external/SyntheticLoot.sol:SyntheticLoot",
        "label": "namePrefixes",
        "offset": 0,
        "slot": "9",
        "type": "t_array(t_string_storage)dyn_storage"
      },
      {
        "astId": 1838,
        "contract": "contracts/external/SyntheticLoot.sol:SyntheticLoot",
        "label": "nameSuffixes",
        "offset": 0,
        "slot": "10",
        "type": "t_array(t_string_storage)dyn_storage"
      }
    ],
    "types": {
      "t_array(t_string_storage)dyn_storage": {
        "base": "t_string_storage",
        "encoding": "dynamic_array",
        "label": "string[]",
        "numberOfBytes": "32"
      },
      "t_string_storage": {
        "encoding": "bytes",
        "label": "string",
        "numberOfBytes": "32"
      }
    }
  }
}