{
  "address": "0x16ec9b5a0aef45cA3642000Df11f0b2C42Bdac45",
  "abi": [
    {
      "inputs": [
        {
          "internalType": "string",
          "name": "_name",
          "type": "string"
        },
        {
          "internalType": "string",
          "name": "_symbol",
          "type": "string"
        },
        {
          "internalType": "address",
          "name": "_syntheticLootAddress",
          "type": "address"
        },
        {
          "internalType": "address",
          "name": "_syntheticLootCharacterAssetsAddress",
          "type": "address"
        }
      ],
      "stateMutability": "nonpayable",
      "type": "constructor"
    },
    {
      "anonymous": false,
      "inputs": [
        {
          "indexed": true,
          "internalType": "address",
          "name": "owner",
          "type": "address"
        },
        {
          "indexed": true,
          "internalType": "address",
          "name": "spender",
          "type": "address"
        },
        {
          "indexed": true,
          "internalType": "uint256",
          "name": "id",
          "type": "uint256"
        }
      ],
      "name": "Approval",
      "type": "event"
    },
    {
      "anonymous": false,
      "inputs": [
        {
          "indexed": true,
          "internalType": "address",
          "name": "owner",
          "type": "address"
        },
        {
          "indexed": true,
          "internalType": "address",
          "name": "operator",
          "type": "address"
        },
        {
          "indexed": false,
          "internalType": "bool",
          "name": "approved",
          "type": "bool"
        }
      ],
      "name": "ApprovalForAll",
      "type": "event"
    },
    {
      "anonymous": false,
      "inputs": [
        {
          "indexed": true,
          "internalType": "address",
          "name": "from",
          "type": "address"
        },
        {
          "indexed": true,
          "internalType": "address",
          "name": "to",
          "type": "address"
        },
        {
          "indexed": true,
          "internalType": "uint256",
          "name": "id",
          "type": "uint256"
        }
      ],
      "name": "Transfer",
      "type": "event"
    },
    {
      "inputs": [
        {
          "internalType": "address",
          "name": "_address",
          "type": "address"
        }
      ],
      "name": "_tokenURI",
      "outputs": [
        {
          "internalType": "string",
          "name": "",
          "type": "string"
        }
      ],
      "stateMutability": "view",
      "type": "function"
    },
    {
      "inputs": [
        {
          "internalType": "address",
          "name": "spender",
          "type": "address"
        },
        {
          "internalType": "uint256",
          "name": "id",
          "type": "uint256"
        }
      ],
      "name": "approve",
      "outputs": [],
      "stateMutability": "nonpayable",
      "type": "function"
    },
    {
      "inputs": [
        {
          "internalType": "address",
          "name": "",
          "type": "address"
        }
      ],
      "name": "balanceOf",
      "outputs": [
        {
          "internalType": "uint256",
          "name": "",
          "type": "uint256"
        }
      ],
      "stateMutability": "view",
      "type": "function"
    },
    {
      "inputs": [],
      "name": "cid",
      "outputs": [
        {
          "internalType": "string",
          "name": "",
          "type": "string"
        }
      ],
      "stateMutability": "view",
      "type": "function"
    },
    {
      "inputs": [],
      "name": "claim",
      "outputs": [],
      "stateMutability": "payable",
      "type": "function"
    },
    {
      "inputs": [],
      "name": "claimMessage",
      "outputs": [
        {
          "internalType": "string",
          "name": "",
          "type": "string"
        }
      ],
      "stateMutability": "view",
      "type": "function"
    },
    {
      "inputs": [
        {
          "internalType": "address",
          "name": "_signer",
          "type": "address"
        },
        {
          "internalType": "bytes",
          "name": "_signature",
          "type": "bytes"
        }
      ],
      "name": "claimOther",
      "outputs": [],
      "stateMutability": "payable",
      "type": "function"
    },
    {
      "inputs": [],
      "name": "claimPrice",
      "outputs": [
        {
          "internalType": "uint256",
          "name": "",
          "type": "uint256"
        }
      ],
      "stateMutability": "view",
      "type": "function"
    },
    {
      "inputs": [
        {
          "internalType": "address",
          "name": "",
          "type": "address"
        }
      ],
      "name": "claimed",
      "outputs": [
        {
          "internalType": "bool",
          "name": "",
          "type": "bool"
        }
      ],
      "stateMutability": "view",
      "type": "function"
    },
    {
      "inputs": [
        {
          "internalType": "uint256",
          "name": "id",
          "type": "uint256"
        }
      ],
      "name": "getAddress",
      "outputs": [
        {
          "internalType": "address",
          "name": "",
          "type": "address"
        }
      ],
      "stateMutability": "pure",
      "type": "function"
    },
    {
      "inputs": [
        {
          "internalType": "uint256",
          "name": "",
          "type": "uint256"
        }
      ],
      "name": "getApproved",
      "outputs": [
        {
          "internalType": "address",
          "name": "",
          "type": "address"
        }
      ],
      "stateMutability": "view",
      "type": "function"
    },
    {
      "inputs": [
        {
          "internalType": "bytes32",
          "name": "_messageHash",
          "type": "bytes32"
        }
      ],
      "name": "getEthSignedMessageHash",
      "outputs": [
        {
          "internalType": "bytes32",
          "name": "",
          "type": "bytes32"
        }
      ],
      "stateMutability": "pure",
      "type": "function"
    },
    {
      "inputs": [
        {
          "internalType": "address",
          "name": "walletAddress",
          "type": "address"
        }
      ],
      "name": "getItems",
      "outputs": [
        {
          "internalType": "string[8]",
          "name": "",
          "type": "string[8]"
        }
      ],
      "stateMutability": "view",
      "type": "function"
    },
    {
      "inputs": [
        {
          "internalType": "string",
          "name": "_message",
          "type": "string"
        }
      ],
      "name": "getMessageHash",
      "outputs": [
        {
          "internalType": "bytes32",
          "name": "",
          "type": "bytes32"
        }
      ],
      "stateMutability": "pure",
      "type": "function"
    },
    {
      "inputs": [
        {
          "internalType": "address",
          "name": "_address",
          "type": "address"
        }
      ],
      "name": "getTokenID",
      "outputs": [
        {
          "internalType": "uint256",
          "name": "",
          "type": "uint256"
        }
      ],
      "stateMutability": "pure",
      "type": "function"
    },
    {
      "inputs": [
        {
          "internalType": "address",
          "name": "",
          "type": "address"
        },
        {
          "internalType": "address",
          "name": "",
          "type": "address"
        }
      ],
      "name": "isApprovedForAll",
      "outputs": [
        {
          "internalType": "bool",
          "name": "",
          "type": "bool"
        }
      ],
      "stateMutability": "view",
      "type": "function"
    },
    {
      "inputs": [],
      "name": "name",
      "outputs": [
        {
          "internalType": "string",
          "name": "",
          "type": "string"
        }
      ],
      "stateMutability": "view",
      "type": "function"
    },
    {
      "inputs": [
        {
          "internalType": "uint256",
          "name": "",
          "type": "uint256"
        }
      ],
      "name": "ownerOf",
      "outputs": [
        {
          "internalType": "address",
          "name": "",
          "type": "address"
        }
      ],
      "stateMutability": "view",
      "type": "function"
    },
    {
      "inputs": [
        {
          "internalType": "bytes32",
          "name": "_ethSignedMessageHash",
          "type": "bytes32"
        },
        {
          "internalType": "bytes",
          "name": "_signature",
          "type": "bytes"
        }
      ],
      "name": "recoverSigner",
      "outputs": [
        {
          "internalType": "address",
          "name": "",
          "type": "address"
        }
      ],
      "stateMutability": "pure",
      "type": "function"
    },
    {
      "inputs": [
        {
          "internalType": "uint256",
          "name": "",
          "type": "uint256"
        }
      ],
      "name": "renderOrder",
      "outputs": [
        {
          "internalType": "string",
          "name": "",
          "type": "string"
        }
      ],
      "stateMutability": "view",
      "type": "function"
    },
    {
      "inputs": [
        {
          "internalType": "address",
          "name": "from",
          "type": "address"
        },
        {
          "internalType": "address",
          "name": "to",
          "type": "address"
        },
        {
          "internalType": "uint256",
          "name": "id",
          "type": "uint256"
        }
      ],
      "name": "safeTransferFrom",
      "outputs": [],
      "stateMutability": "nonpayable",
      "type": "function"
    },
    {
      "inputs": [
        {
          "internalType": "address",
          "name": "from",
          "type": "address"
        },
        {
          "internalType": "address",
          "name": "to",
          "type": "address"
        },
        {
          "internalType": "uint256",
          "name": "id",
          "type": "uint256"
        },
        {
          "internalType": "bytes",
          "name": "data",
          "type": "bytes"
        }
      ],
      "name": "safeTransferFrom",
      "outputs": [],
      "stateMutability": "nonpayable",
      "type": "function"
    },
    {
      "inputs": [
        {
          "internalType": "address",
          "name": "operator",
          "type": "address"
        },
        {
          "internalType": "bool",
          "name": "approved",
          "type": "bool"
        }
      ],
      "name": "setApprovalForAll",
      "outputs": [],
      "stateMutability": "nonpayable",
      "type": "function"
    },
    {
      "inputs": [
        {
          "internalType": "bytes",
          "name": "sig",
          "type": "bytes"
        }
      ],
      "name": "splitSignature",
      "outputs": [
        {
          "internalType": "bytes32",
          "name": "r",
          "type": "bytes32"
        },
        {
          "internalType": "bytes32",
          "name": "s",
          "type": "bytes32"
        },
        {
          "internalType": "uint8",
          "name": "v",
          "type": "uint8"
        }
      ],
      "stateMutability": "pure",
      "type": "function"
    },
    {
      "inputs": [
        {
          "internalType": "bytes4",
          "name": "interfaceId",
          "type": "bytes4"
        }
      ],
      "name": "supportsInterface",
      "outputs": [
        {
          "internalType": "bool",
          "name": "",
          "type": "bool"
        }
      ],
      "stateMutability": "pure",
      "type": "function"
    },
    {
      "inputs": [],
      "name": "symbol",
      "outputs": [
        {
          "internalType": "string",
          "name": "",
          "type": "string"
        }
      ],
      "stateMutability": "view",
      "type": "function"
    },
    {
      "inputs": [
        {
          "internalType": "uint256",
          "name": "tokenId",
          "type": "uint256"
        }
      ],
      "name": "tokenURI",
      "outputs": [
        {
          "internalType": "string",
          "name": "",
          "type": "string"
        }
      ],
      "stateMutability": "view",
      "type": "function"
    },
    {
      "inputs": [
        {
          "internalType": "address",
          "name": "from",
          "type": "address"
        },
        {
          "internalType": "address",
          "name": "to",
          "type": "address"
        },
        {
          "internalType": "uint256",
          "name": "id",
          "type": "uint256"
        }
      ],
      "name": "transferFrom",
      "outputs": [],
      "stateMutability": "nonpayable",
      "type": "function"
    },
    {
      "inputs": [
        {
          "internalType": "address",
          "name": "_signer",
          "type": "address"
        },
        {
          "internalType": "string",
          "name": "_message",
          "type": "string"
        },
        {
          "internalType": "bytes",
          "name": "signature",
          "type": "bytes"
        }
      ],
      "name": "verify",
      "outputs": [
        {
          "internalType": "bool",
          "name": "",
          "type": "bool"
        }
      ],
      "stateMutability": "pure",
      "type": "function"
    }
  ],
  "transactionHash": "0xfc905ed0670b34e6bf8b4b59d62030118f2c5cae807d5af4e9276664da5d950e",
  "args": [
    "Secret Project",
    "sPROJECT",
    "0x0970a2c5247794cC40A5D11C11B13Ce2f1e20161",
    "0x0e47A2B3de8c3dC9d7F11952164d73A0c1D9D5aC"
  ],
  "numDeployments": 5,
  "solcInputHash": "647889c6a206cc9e4a8944ec6febf732",
  "bytecode": "0x60a060405266470de4df8200006080908152506040518061010001604052806040518060400160405280600681526020017f776561706f6e000000000000000000000000000000000000000000000000000081525081526020016040518060400160405280600581526020017f636865737400000000000000000000000000000000000000000000000000000081525081526020016040518060400160405280600481526020017f686561640000000000000000000000000000000000000000000000000000000081525081526020016040518060400160405280600581526020017f776169737400000000000000000000000000000000000000000000000000000081525081526020016040518060400160405280600481526020017f666f6f740000000000000000000000000000000000000000000000000000000081525081526020016040518060400160405280600481526020017f68616e640000000000000000000000000000000000000000000000000000000081525081526020016040518060400160405280600481526020017f6e65636b0000000000000000000000000000000000000000000000000000000081525081526020016040518060400160405280600481526020017f72696e6700000000000000000000000000000000000000000000000000000000815250815250600790600862000206929190620002fc565b503480156200021457600080fd5b5060405162005fe138038062005fe183398181016040528101906200023a919062000676565b838381600090805190602001906200025492919062000356565b5080600190805190602001906200026d92919062000356565b50505081600f60006101000a81548173ffffffffffffffffffffffffffffffffffffffff021916908373ffffffffffffffffffffffffffffffffffffffff16021790555080601060006101000a81548173ffffffffffffffffffffffffffffffffffffffff021916908373ffffffffffffffffffffffffffffffffffffffff160217905550505050506200078b565b826008810192821562000343579160200282015b82811115620003425782518290805190602001906200033192919062000356565b509160200191906001019062000310565b5b509050620003529190620003e7565b5090565b828054620003649062000755565b90600052602060002090601f016020900481019282620003885760008555620003d4565b82601f10620003a357805160ff1916838001178555620003d4565b82800160010185558215620003d4579182015b82811115620003d3578251825591602001919060010190620003b6565b5b509050620003e391906200040f565b5090565b5b808211156200040b57600081816200040191906200042e565b50600101620003e8565b5090565b5b808211156200042a57600081600090555060010162000410565b5090565b5080546200043c9062000755565b6000825580601f1062000450575062000471565b601f0160209004906000526020600020908101906200047091906200040f565b5b50565b6000604051905090565b600080fd5b600080fd5b600080fd5b600080fd5b6000601f19601f8301169050919050565b7f4e487b7100000000000000000000000000000000000000000000000000000000600052604160045260246000fd5b620004dd8262000492565b810181811067ffffffffffffffff82111715620004ff57620004fe620004a3565b5b80604052505050565b60006200051462000474565b9050620005228282620004d2565b919050565b600067ffffffffffffffff821115620005455762000544620004a3565b5b620005508262000492565b9050602081019050919050565b60005b838110156200057d57808201518184015260208101905062000560565b838111156200058d576000848401525b50505050565b6000620005aa620005a48462000527565b62000508565b905082815260208101848484011115620005c957620005c86200048d565b5b620005d68482856200055d565b509392505050565b600082601f830112620005f657620005f562000488565b5b81516200060884826020860162000593565b91505092915050565b600073ffffffffffffffffffffffffffffffffffffffff82169050919050565b60006200063e8262000611565b9050919050565b620006508162000631565b81146200065c57600080fd5b50565b600081519050620006708162000645565b92915050565b600080600080608085870312156200069357620006926200047e565b5b600085015167ffffffffffffffff811115620006b457620006b362000483565b5b620006c287828801620005de565b945050602085015167ffffffffffffffff811115620006e657620006e562000483565b5b620006f487828801620005de565b935050604062000707878288016200065f565b92505060606200071a878288016200065f565b91505092959194509250565b7f4e487b7100000000000000000000000000000000000000000000000000000000600052602260045260246000fd5b600060028204905060018216806200076e57607f821691505b6020821081141562000785576200078462000726565b5b50919050565b60805161581e620007c360003960008181610ade0152818161161a015281816116e9015281816118d30152611a21015261581e6000f3fe6080604052600436106101c25760003560e01c806395d89b41116100f7578063b446f3b211610095578063c884ef8311610064578063c884ef83146106ac578063d75c9c0d146106e9578063e985e9c514610726578063fa54080114610763576101c2565b8063b446f3b2146105cc578063b88d4fde14610609578063b93f9b0a14610632578063c87b56dd1461066f576101c2565b8063a22cb465116100d1578063a22cb465146104fc578063a7bb580314610525578063aa3ec0a914610564578063af4fb3531461058f576101c2565b806395d89b411461047857806397aba7f9146104a35780639d4776b2146104e0576101c2565b80633b85df72116101645780634e71d92d1161013e5780634e71d92d146103b75780636352211e146103c157806363f8071c146103fe57806370a082311461043b576101c2565b80633b85df721461032657806342842e0e146103515780634d7366551461037a576101c2565b8063095ea7b3116101a0578063095ea7b31461026c57806315d655c91461029557806323b872dd146102c05780632dd34f0f146102e9576101c2565b806301ffc9a7146101c757806306fdde0314610204578063081812fc1461022f575b600080fd5b3480156101d357600080fd5b506101ee60048036038101906101e9919061398c565b6107a0565b6040516101fb91906139d4565b60405180910390f35b34801561021057600080fd5b50610219610832565b6040516102269190613a88565b60405180910390f35b34801561023b57600080fd5b5061025660048036038101906102519190613ae0565b6108c0565b6040516102639190613b4e565b60405180910390f35b34801561027857600080fd5b50610293600480360381019061028e9190613b95565b6108f3565b005b3480156102a157600080fd5b506102aa610adc565b6040516102b79190613be4565b60405180910390f35b3480156102cc57600080fd5b506102e760048036038101906102e29190613bff565b610b00565b005b3480156102f557600080fd5b50610310600480360381019061030b9190613e28565b610f00565b60405161031d91906139d4565b60405180910390f35b34801561033257600080fd5b5061033b610f5e565b6040516103489190613a88565b60405180910390f35b34801561035d57600080fd5b5061037860048036038101906103739190613bff565b610f97565b005b34801561038657600080fd5b506103a1600480360381019061039c9190613eb3565b6110cf565b6040516103ae9190613fe0565b60405180910390f35b6103bf611618565b005b3480156103cd57600080fd5b506103e860048036038101906103e39190613ae0565b611769565b6040516103f59190613b4e565b60405180910390f35b34801561040a57600080fd5b5061042560048036038101906104209190613eb3565b61179c565b6040516104329190613be4565b60405180910390f35b34801561044757600080fd5b50610462600480360381019061045d9190613eb3565b6117bc565b60405161046f9190613be4565b60405180910390f35b34801561048457600080fd5b5061048d6117d4565b60405161049a9190613a88565b60405180910390f35b3480156104af57600080fd5b506104ca60048036038101906104c59190614038565b611862565b6040516104d79190613b4e565b60405180910390f35b6104fa60048036038101906104f59190614094565b6118d1565b005b34801561050857600080fd5b50610523600480360381019061051e919061411c565b611aa3565b005b34801561053157600080fd5b5061054c6004803603810190610547919061415c565b611ba0565b60405161055b939291906141d0565b60405180910390f35b34801561057057600080fd5b50610579611c08565b6040516105869190613a88565b60405180910390f35b34801561059b57600080fd5b506105b660048036038101906105b19190613eb3565b611c24565b6040516105c39190613a88565b60405180910390f35b3480156105d857600080fd5b506105f360048036038101906105ee9190614207565b611c3e565b6040516106009190614250565b60405180910390f35b34801561061557600080fd5b50610630600480360381019061062b919061426b565b611c6e565b005b34801561063e57600080fd5b5061065960048036038101906106549190613ae0565b611da9565b6040516106669190613b4e565b60405180910390f35b34801561067b57600080fd5b5061069660048036038101906106919190613ae0565b611db3565b6040516106a39190613a88565b60405180910390f35b3480156106b857600080fd5b506106d360048036038101906106ce9190613eb3565b611e65565b6040516106e091906139d4565b60405180910390f35b3480156106f557600080fd5b50610710600480360381019061070b9190613ae0565b611e85565b60405161071d9190613a88565b60405180910390f35b34801561073257600080fd5b5061074d600480360381019061074891906142ee565b611f28565b60405161075a91906139d4565b60405180910390f35b34801561076f57600080fd5b5061078a6004803603810190610785919061432e565b611f57565b6040516107979190614250565b60405180910390f35b60006301ffc9a760e01b827bffffffffffffffffffffffffffffffffffffffffffffffffffffffff191614806107fb57506380ac58cd60e01b827bffffffffffffffffffffffffffffffffffffffffffffffffffffffff1916145b8061082b5750635b5e139f60e01b827bffffffffffffffffffffffffffffffffffffffffffffffffffffffff1916145b9050919050565b6000805461083f9061438a565b80601f016020809104026020016040519081016040528092919081815260200182805461086b9061438a565b80156108b85780601f1061088d576101008083540402835291602001916108b8565b820191906000526020600020905b81548152906001019060200180831161089b57829003601f168201915b505050505081565b60046020528060005260406000206000915054906101000a900473ffffffffffffffffffffffffffffffffffffffff1681565b60006003600083815260200190815260200160002060009054906101000a900473ffffffffffffffffffffffffffffffffffffffff1690508073ffffffffffffffffffffffffffffffffffffffff163373ffffffffffffffffffffffffffffffffffffffff1614806109eb5750600560008273ffffffffffffffffffffffffffffffffffffffff1673ffffffffffffffffffffffffffffffffffffffff16815260200190815260200160002060003373ffffffffffffffffffffffffffffffffffffffff1673ffffffffffffffffffffffffffffffffffffffff16815260200190815260200160002060009054906101000a900460ff165b610a2a576040517f08c379a0000000000000000000000000000000000000000000000000000000008152600401610a2190614408565b60405180910390fd5b826004600084815260200190815260200160002060006101000a81548173ffffffffffffffffffffffffffffffffffffffff021916908373ffffffffffffffffffffffffffffffffffffffff160217905550818373ffffffffffffffffffffffffffffffffffffffff168273ffffffffffffffffffffffffffffffffffffffff167f8c5be1e5ebec7d5bd14f71427d1e84f3dd0314c0f7b2291e5b200ac8c7c3b92560405160405180910390a4505050565b7f000000000000000000000000000000000000000000000000000000000000000081565b6003600082815260200190815260200160002060009054906101000a900473ffffffffffffffffffffffffffffffffffffffff1673ffffffffffffffffffffffffffffffffffffffff168373ffffffffffffffffffffffffffffffffffffffff1614610ba1576040517f08c379a0000000000000000000000000000000000000000000000000000000008152600401610b9890614474565b60405180910390fd5b600073ffffffffffffffffffffffffffffffffffffffff168273ffffffffffffffffffffffffffffffffffffffff161415610c11576040517f08c379a0000000000000000000000000000000000000000000000000000000008152600401610c08906144e0565b60405180910390fd5b8273ffffffffffffffffffffffffffffffffffffffff163373ffffffffffffffffffffffffffffffffffffffff161480610ca957506004600082815260200190815260200160002060009054906101000a900473ffffffffffffffffffffffffffffffffffffffff1673ffffffffffffffffffffffffffffffffffffffff163373ffffffffffffffffffffffffffffffffffffffff16145b80610d3a5750600560008473ffffffffffffffffffffffffffffffffffffffff1673ffffffffffffffffffffffffffffffffffffffff16815260200190815260200160002060003373ffffffffffffffffffffffffffffffffffffffff1673ffffffffffffffffffffffffffffffffffffffff16815260200190815260200160002060009054906101000a900460ff165b610d79576040517f08c379a0000000000000000000000000000000000000000000000000000000008152600401610d7090614408565b60405180910390fd5b600260008473ffffffffffffffffffffffffffffffffffffffff1673ffffffffffffffffffffffffffffffffffffffff1681526020019081526020016000206000815480929190600190039190505550600260008373ffffffffffffffffffffffffffffffffffffffff1673ffffffffffffffffffffffffffffffffffffffff16815260200190815260200160002060008154809291906001019190505550816003600083815260200190815260200160002060006101000a81548173ffffffffffffffffffffffffffffffffffffffff021916908373ffffffffffffffffffffffffffffffffffffffff1602179055506004600082815260200190815260200160002060006101000a81549073ffffffffffffffffffffffffffffffffffffffff0219169055808273ffffffffffffffffffffffffffffffffffffffff168473ffffffffffffffffffffffffffffffffffffffff167fddf252ad1be2c89b69c2b068fc378daa952ba7f163c4a11628f55a4df523b3ef60405160405180910390a4505050565b600080610f0c84611c3e565b90506000610f1982611f57565b90508573ffffffffffffffffffffffffffffffffffffffff16610f3c8286611862565b73ffffffffffffffffffffffffffffffffffffffff1614925050509392505050565b6040518060400160405280601081526020017f4d65737361676520746f20636c61696d0000000000000000000000000000000081525081565b610fa2838383610b00565b60008273ffffffffffffffffffffffffffffffffffffffff163b148061108b575063150b7a0260e01b7bffffffffffffffffffffffffffffffffffffffffffffffffffffffff19168273ffffffffffffffffffffffffffffffffffffffff1663150b7a023386856040518463ffffffff1660e01b815260040161102793929190614537565b6020604051808303816000875af1158015611046573d6000803e3d6000fd5b505050506040513d601f19601f8201168201806040525081019061106a9190614596565b7bffffffffffffffffffffffffffffffffffffffffffffffffffffffff1916145b6110ca576040517f08c379a00000000000000000000000000000000000000000000000000000000081526004016110c19061460f565b60405180910390fd5b505050565b6110d76138f8565b604051806101000160405280600f60009054906101000a900473ffffffffffffffffffffffffffffffffffffffff1673ffffffffffffffffffffffffffffffffffffffff1663bbfa3d4a856040518263ffffffff1660e01b815260040161113e9190613b4e565b600060405180830381865afa15801561115b573d6000803e3d6000fd5b505050506040513d6000823e3d601f19601f82011682018060405250810190611184919061469f565b8152602001600f60009054906101000a900473ffffffffffffffffffffffffffffffffffffffff1673ffffffffffffffffffffffffffffffffffffffff1663ddc8422d856040518263ffffffff1660e01b81526004016111e49190613b4e565b600060405180830381865afa158015611201573d6000803e3d6000fd5b505050506040513d6000823e3d601f19601f8201168201806040525081019061122a919061469f565b8152602001600f60009054906101000a900473ffffffffffffffffffffffffffffffffffffffff1673ffffffffffffffffffffffffffffffffffffffff16633c607b67856040518263ffffffff1660e01b815260040161128a9190613b4e565b600060405180830381865afa1580156112a7573d6000803e3d6000fd5b505050506040513d6000823e3d601f19601f820116820180604052508101906112d0919061469f565b8152602001600f60009054906101000a900473ffffffffffffffffffffffffffffffffffffffff1673ffffffffffffffffffffffffffffffffffffffff1663c3893a9a856040518263ffffffff1660e01b81526004016113309190613b4e565b600060405180830381865afa15801561134d573d6000803e3d6000fd5b505050506040513d6000823e3d601f19601f82011682018060405250810190611376919061469f565b8152602001600f60009054906101000a900473ffffffffffffffffffffffffffffffffffffffff1673ffffffffffffffffffffffffffffffffffffffff16630d2f25be856040518263ffffffff1660e01b81526004016113d69190613b4e565b600060405180830381865afa1580156113f3573d6000803e3d6000fd5b505050506040513d6000823e3d601f19601f8201168201806040525081019061141c919061469f565b8152602001600f60009054906101000a900473ffffffffffffffffffffffffffffffffffffffff1673ffffffffffffffffffffffffffffffffffffffff1663ffcd9d45856040518263ffffffff1660e01b815260040161147c9190613b4e565b600060405180830381865afa158015611499573d6000803e3d6000fd5b505050506040513d6000823e3d601f19601f820116820180604052508101906114c2919061469f565b8152602001600f60009054906101000a900473ffffffffffffffffffffffffffffffffffffffff1673ffffffffffffffffffffffffffffffffffffffff166346d868c7856040518263ffffffff1660e01b81526004016115229190613b4e565b600060405180830381865afa15801561153f573d6000803e3d6000fd5b505050506040513d6000823e3d601f19601f82011682018060405250810190611568919061469f565b8152602001600f60009054906101000a900473ffffffffffffffffffffffffffffffffffffffff1673ffffffffffffffffffffffffffffffffffffffff1663c65cd97d856040518263ffffffff1660e01b81526004016115c89190613b4e565b600060405180830381865afa1580156115e5573d6000803e3d6000fd5b505050506040513d6000823e3d601f19601f8201168201806040525081019061160e919061469f565b8152509050919050565b7f000000000000000000000000000000000000000000000000000000000000000034101561167b576040517f08c379a000000000000000000000000000000000000000000000000000000000815260040161167290614734565b60405180910390fd5b61168d336116883361179c565b611f87565b6001600660003373ffffffffffffffffffffffffffffffffffffffff1673ffffffffffffffffffffffffffffffffffffffff16815260200190815260200160002060006101000a81548160ff02191690831515021790555060007f0000000000000000000000000000000000000000000000000000000000000000346117139190614783565b90506000811115611766573373ffffffffffffffffffffffffffffffffffffffff166108fc829081150290604051600060405180830381858888f19350505050158015611764573d6000803e3d6000fd5b505b50565b60036020528060005260406000206000915054906101000a900473ffffffffffffffffffffffffffffffffffffffff1681565b60008173ffffffffffffffffffffffffffffffffffffffff169050919050565b60026020528060005260406000206000915090505481565b600180546117e19061438a565b80601f016020809104026020016040519081016040528092919081815260200182805461180d9061438a565b801561185a5780601f1061182f5761010080835404028352916020019161185a565b820191906000526020600020905b81548152906001019060200180831161183d57829003601f168201915b505050505081565b60008060008061187185611ba0565b9250925092506001868285856040516000815260200160405260405161189a94939291906147b7565b6020604051602081039080840390855afa1580156118bc573d6000803e3d6000fd5b50505060206040510351935050505092915050565b7f0000000000000000000000000000000000000000000000000000000000000000341015611934576040517f08c379a000000000000000000000000000000000000000000000000000000000815260040161192b90614734565b60405180910390fd5b611974826040518060400160405280601081526020017f4d65737361676520746f20636c61696d0000000000000000000000000000000081525083610f00565b6119b3576040517f08c379a00000000000000000000000000000000000000000000000000000000081526004016119aa90614848565b60405180910390fd5b6119c5336119c08461179c565b611f87565b6001600660008473ffffffffffffffffffffffffffffffffffffffff1673ffffffffffffffffffffffffffffffffffffffff16815260200190815260200160002060006101000a81548160ff02191690831515021790555060007f000000000000000000000000000000000000000000000000000000000000000034611a4b9190614783565b90506000811115611a9e578273ffffffffffffffffffffffffffffffffffffffff166108fc829081150290604051600060405180830381858888f19350505050158015611a9c573d6000803e3d6000fd5b505b505050565b80600560003373ffffffffffffffffffffffffffffffffffffffff1673ffffffffffffffffffffffffffffffffffffffff16815260200190815260200160002060008473ffffffffffffffffffffffffffffffffffffffff1673ffffffffffffffffffffffffffffffffffffffff16815260200190815260200160002060006101000a81548160ff0219169083151502179055508173ffffffffffffffffffffffffffffffffffffffff163373ffffffffffffffffffffffffffffffffffffffff167f17307eab39ab6107e8899845ad3d59bd9653f200f220920489ca2b5937696c3183604051611b9491906139d4565b60405180910390a35050565b60008060006041845114611be9576040517f08c379a0000000000000000000000000000000000000000000000000000000008152600401611be0906148b4565b60405180910390fd5b6020840151925060408401519150606084015160001a90509193909250565b6040518060600160405280602e815260200161577b602e913981565b6060611c37611c328361179c565b611db3565b9050919050565b600081604051602001611c519190614910565b604051602081830303815290604052805190602001209050919050565b611c79848484610b00565b60008373ffffffffffffffffffffffffffffffffffffffff163b1480611d64575063150b7a0260e01b7bffffffffffffffffffffffffffffffffffffffffffffffffffffffff19168373ffffffffffffffffffffffffffffffffffffffff1663150b7a02338786866040518563ffffffff1660e01b8152600401611d00949392919061496b565b6020604051808303816000875af1158015611d1f573d6000803e3d6000fd5b505050506040513d601f19601f82011682018060405250810190611d439190614596565b7bffffffffffffffffffffffffffffffffffffffffffffffffffffffff1916145b611da3576040517f08c379a0000000000000000000000000000000000000000000000000000000008152600401611d9a9061460f565b60405180910390fd5b50505050565b6000819050919050565b60606000611dc083611da9565b90506000611dcc6120be565b611dd5836120ec565b604051602001611de6929190614a75565b60405160208183030381529060405290506000611e33611e0584613197565b611e0e8461335a565b604051602001611e1f929190614ca3565b60405160208183030381529060405261335a565b9050600081604051602001611e489190614d34565b604051602081830303815290604052905080945050505050919050565b60066020528060005260406000206000915054906101000a900460ff1681565b60078160088110611e9557600080fd5b016000915090508054611ea79061438a565b80601f0160208091040260200160405190810160405280929190818152602001828054611ed39061438a565b8015611f205780601f10611ef557610100808354040283529160200191611f20565b820191906000526020600020905b815481529060010190602001808311611f0357829003601f168201915b505050505081565b60056020528160005260406000206020528060005260406000206000915091509054906101000a900460ff1681565b600081604051602001611f6a9190614dc3565b604051602081830303815290604052805190602001209050919050565b611f9182826134f2565b60008273ffffffffffffffffffffffffffffffffffffffff163b148061207b575063150b7a0260e01b7bffffffffffffffffffffffffffffffffffffffffffffffffffffffff19168273ffffffffffffffffffffffffffffffffffffffff1663150b7a02336000856040518463ffffffff1660e01b815260040161201793929190614537565b6020604051808303816000875af1158015612036573d6000803e3d6000fd5b505050506040513d601f19601f8201168201806040525081019061205a9190614596565b7bffffffffffffffffffffffffffffffffffffffffffffffffffffffff1916145b6120ba576040517f08c379a00000000000000000000000000000000000000000000000000000000081526004016120b19061460f565b60405180910390fd5b5050565b60606120c8613705565b6040516020016120d89190614e35565b604051602081830303815290604052905090565b60606121c26040518060400160405280600181526020017f3000000000000000000000000000000000000000000000000000000000000000815250601060009054906101000a900473ffffffffffffffffffffffffffffffffffffffff1673ffffffffffffffffffffffffffffffffffffffff166385ead00a6040518163ffffffff1660e01b8152600401600060405180830381865afa158015612194573d6000803e3d6000fd5b505050506040513d6000823e3d601f19601f820116820180604052508101906121bd919061469f565b613725565b6123b761231c601060009054906101000a900473ffffffffffffffffffffffffffffffffffffffff1673ffffffffffffffffffffffffffffffffffffffff166307a2f9556040518163ffffffff1660e01b8152600401602060405180830381865afa158015612235573d6000803e3d6000fd5b505050506040513d601f19601f820116820180604052508101906122599190614e7f565b600f60009054906101000a900473ffffffffffffffffffffffffffffffffffffffff1673ffffffffffffffffffffffffffffffffffffffff16636c390589876040518263ffffffff1660e01b81526004016122b49190613b4e565b60a060405180830381865afa1580156122d1573d6000803e3d6000fd5b505050506040513d601f19601f820116820180604052508101906122f59190614f62565b60006005811061230857612307614f8f565b5b60200201516123179190614fbe565b613751565b601060009054906101000a900473ffffffffffffffffffffffffffffffffffffffff1673ffffffffffffffffffffffffffffffffffffffff16633a2b1d216040518163ffffffff1660e01b8152600401600060405180830381865afa158015612389573d6000803e3d6000fd5b505050506040513d6000823e3d601f19601f820116820180604052508101906123b2919061469f565b613725565b6125ac612511601060009054906101000a900473ffffffffffffffffffffffffffffffffffffffff1673ffffffffffffffffffffffffffffffffffffffff166307a2f9556040518163ffffffff1660e01b8152600401602060405180830381865afa15801561242a573d6000803e3d6000fd5b505050506040513d601f19601f8201168201806040525081019061244e9190614e7f565b600f60009054906101000a900473ffffffffffffffffffffffffffffffffffffffff1673ffffffffffffffffffffffffffffffffffffffff166396a7bb85886040518263ffffffff1660e01b81526004016124a99190613b4e565b60a060405180830381865afa1580156124c6573d6000803e3d6000fd5b505050506040513d601f19601f820116820180604052508101906124ea9190614f62565b6000600581106124fd576124fc614f8f565b5b602002015161250c9190614fbe565b613751565b601060009054906101000a900473ffffffffffffffffffffffffffffffffffffffff1673ffffffffffffffffffffffffffffffffffffffff166364026ac06040518163ffffffff1660e01b8152600401600060405180830381865afa15801561257e573d6000803e3d6000fd5b505050506040513d6000823e3d601f19601f820116820180604052508101906125a7919061469f565b613725565b6127a1612706601060009054906101000a900473ffffffffffffffffffffffffffffffffffffffff1673ffffffffffffffffffffffffffffffffffffffff166307a2f9556040518163ffffffff1660e01b8152600401602060405180830381865afa15801561261f573d6000803e3d6000fd5b505050506040513d601f19601f820116820180604052508101906126439190614e7f565b600f60009054906101000a900473ffffffffffffffffffffffffffffffffffffffff1673ffffffffffffffffffffffffffffffffffffffff16637d9d7cc2896040518263ffffffff1660e01b815260040161269e9190613b4e565b60a060405180830381865afa1580156126bb573d6000803e3d6000fd5b505050506040513d601f19601f820116820180604052508101906126df9190614f62565b6000600581106126f2576126f1614f8f565b5b60200201516127019190614fbe565b613751565b601060009054906101000a900473ffffffffffffffffffffffffffffffffffffffff1673ffffffffffffffffffffffffffffffffffffffff16638f7dcfa36040518163ffffffff1660e01b8152600401600060405180830381865afa158015612773573d6000803e3d6000fd5b505050506040513d6000823e3d601f19601f8201168201806040525081019061279c919061469f565b613725565b6129956128fb601060009054906101000a900473ffffffffffffffffffffffffffffffffffffffff1673ffffffffffffffffffffffffffffffffffffffff166307a2f9556040518163ffffffff1660e01b8152600401602060405180830381865afa158015612814573d6000803e3d6000fd5b505050506040513d601f19601f820116820180604052508101906128389190614e7f565b600f60009054906101000a900473ffffffffffffffffffffffffffffffffffffffff1673ffffffffffffffffffffffffffffffffffffffff1663455ba9ca8a6040518263ffffffff1660e01b81526004016128939190613b4e565b60a060405180830381865afa1580156128b0573d6000803e3d6000fd5b505050506040513d601f19601f820116820180604052508101906128d49190614f62565b6000600581106128e7576128e6614f8f565b5b60200201516128f69190614fbe565b613751565b601060009054906101000a900473ffffffffffffffffffffffffffffffffffffffff1673ffffffffffffffffffffffffffffffffffffffff16624162006040518163ffffffff1660e01b8152600401600060405180830381865afa158015612967573d6000803e3d6000fd5b505050506040513d6000823e3d601f19601f82011682018060405250810190612990919061469f565b613725565b612b8a612aef601060009054906101000a900473ffffffffffffffffffffffffffffffffffffffff1673ffffffffffffffffffffffffffffffffffffffff166307a2f9556040518163ffffffff1660e01b8152600401602060405180830381865afa158015612a08573d6000803e3d6000fd5b505050506040513d601f19601f82011682018060405250810190612a2c9190614e7f565b600f60009054906101000a900473ffffffffffffffffffffffffffffffffffffffff1673ffffffffffffffffffffffffffffffffffffffff1663b5fb5fa48b6040518263ffffffff1660e01b8152600401612a879190613b4e565b60a060405180830381865afa158015612aa4573d6000803e3d6000fd5b505050506040513d601f19601f82011682018060405250810190612ac89190614f62565b600060058110612adb57612ada614f8f565b5b6020020151612aea9190614fbe565b613751565b601060009054906101000a900473ffffffffffffffffffffffffffffffffffffffff1673ffffffffffffffffffffffffffffffffffffffff1663ad56f7196040518163ffffffff1660e01b8152600401600060405180830381865afa158015612b5c573d6000803e3d6000fd5b505050506040513d6000823e3d601f19601f82011682018060405250810190612b85919061469f565b613725565b612d7f612ce4601060009054906101000a900473ffffffffffffffffffffffffffffffffffffffff1673ffffffffffffffffffffffffffffffffffffffff166307a2f9556040518163ffffffff1660e01b8152600401602060405180830381865afa158015612bfd573d6000803e3d6000fd5b505050506040513d601f19601f82011682018060405250810190612c219190614e7f565b600f60009054906101000a900473ffffffffffffffffffffffffffffffffffffffff1673ffffffffffffffffffffffffffffffffffffffff166357e3d14d8c6040518263ffffffff1660e01b8152600401612c7c9190613b4e565b60a060405180830381865afa158015612c99573d6000803e3d6000fd5b505050506040513d601f19601f82011682018060405250810190612cbd9190614f62565b600060058110612cd057612ccf614f8f565b5b6020020151612cdf9190614fbe565b613751565b601060009054906101000a900473ffffffffffffffffffffffffffffffffffffffff1673ffffffffffffffffffffffffffffffffffffffff16638df6fbcc6040518163ffffffff1660e01b8152600401600060405180830381865afa158015612d51573d6000803e3d6000fd5b505050506040513d6000823e3d601f19601f82011682018060405250810190612d7a919061469f565b613725565b612f74612ed9601060009054906101000a900473ffffffffffffffffffffffffffffffffffffffff1673ffffffffffffffffffffffffffffffffffffffff166307a2f9556040518163ffffffff1660e01b8152600401602060405180830381865afa158015612df2573d6000803e3d6000fd5b505050506040513d601f19601f82011682018060405250810190612e169190614e7f565b600f60009054906101000a900473ffffffffffffffffffffffffffffffffffffffff1673ffffffffffffffffffffffffffffffffffffffff1663b4630ab08d6040518263ffffffff1660e01b8152600401612e719190613b4e565b60a060405180830381865afa158015612e8e573d6000803e3d6000fd5b505050506040513d601f19601f82011682018060405250810190612eb29190614f62565b600060058110612ec557612ec4614f8f565b5b6020020151612ed49190614fbe565b613751565b601060009054906101000a900473ffffffffffffffffffffffffffffffffffffffff1673ffffffffffffffffffffffffffffffffffffffff1663bb7633856040518163ffffffff1660e01b8152600401600060405180830381865afa158015612f46573d6000803e3d6000fd5b505050506040513d6000823e3d601f19601f82011682018060405250810190612f6f919061469f565b613725565b6131696130ce601060009054906101000a900473ffffffffffffffffffffffffffffffffffffffff1673ffffffffffffffffffffffffffffffffffffffff166307a2f9556040518163ffffffff1660e01b8152600401602060405180830381865afa158015612fe7573d6000803e3d6000fd5b505050506040513d601f19601f8201168201806040525081019061300b9190614e7f565b600f60009054906101000a900473ffffffffffffffffffffffffffffffffffffffff1673ffffffffffffffffffffffffffffffffffffffff1663e73702cf8e6040518263ffffffff1660e01b81526004016130669190613b4e565b60a060405180830381865afa158015613083573d6000803e3d6000fd5b505050506040513d601f19601f820116820180604052508101906130a79190614f62565b6000600581106130ba576130b9614f8f565b5b60200201516130c99190614fbe565b613751565b601060009054906101000a900473ffffffffffffffffffffffffffffffffffffffff1673ffffffffffffffffffffffffffffffffffffffff16638360c1856040518163ffffffff1660e01b8152600401600060405180830381865afa15801561313b573d6000803e3d6000fd5b505050506040513d6000823e3d601f19601f82011682018060405250810190613164919061469f565b613725565b60405160200161318199989796959493929190615018565b6040516020818303038152906040529050919050565b60606000602867ffffffffffffffff8111156131b6576131b5613c5c565b5b6040519080825280601f01601f1916602001820160405280156131e85781602001600182028036833780820191505090505b50905060005b60148110156133505760008160136132069190614783565b60086132129190614fbe565b600261321e91906151ca565b8573ffffffffffffffffffffffffffffffffffffffff1661323f9190615244565b60f81b9050600060108260f81c6132569190615275565b60f81b905060008160f81c601061326d91906152a6565b8360f81c61327b91906152e1565b60f81b9050613289826138b2565b858560026132979190614fbe565b815181106132a8576132a7614f8f565b5b60200101907effffffffffffffffffffffffffffffffffffffffffffffffffffffffffffff1916908160001a9053506132e0816138b2565b8560018660026132f09190614fbe565b6132fa9190615315565b8151811061330b5761330a614f8f565b5b60200101907effffffffffffffffffffffffffffffffffffffffffffffffffffffffffffff1916908160001a90535050505080806133489061536b565b9150506131ee565b5080915050919050565b6060600082519050600081141561338357604051806020016040528060008152509150506134ed565b600060036002836133949190615315565b61339e9190615244565b60046133aa9190614fbe565b905060006020826133bb9190615315565b67ffffffffffffffff8111156133d4576133d3613c5c565b5b6040519080825280601f01601f1916602001820160405280156134065781602001600182028036833780820191505090505b50905060006040518060600160405280604081526020016157a9604091399050600181016020830160005b868110156134aa5760038101905062ffffff818a015116603f8160121c168401518060081b905060ff603f83600c1c1686015116810190508060081b905060ff603f8360061c1686015116810190508060081b905060ff603f831686015116810190508060e01b90508084526004840193505050613431565b5060038606600181146134c457600281146134d4576134df565b613d3d60f01b60028303526134df565b603d60f81b60018303525b508484525050819450505050505b919050565b600073ffffffffffffffffffffffffffffffffffffffff168273ffffffffffffffffffffffffffffffffffffffff161415613562576040517f08c379a0000000000000000000000000000000000000000000000000000000008152600401613559906144e0565b60405180910390fd5b600073ffffffffffffffffffffffffffffffffffffffff166003600083815260200190815260200160002060009054906101000a900473ffffffffffffffffffffffffffffffffffffffff1673ffffffffffffffffffffffffffffffffffffffff1614613604576040517f08c379a00000000000000000000000000000000000000000000000000000000081526004016135fb90615400565b60405180910390fd5b600260008373ffffffffffffffffffffffffffffffffffffffff1673ffffffffffffffffffffffffffffffffffffffff16815260200190815260200160002060008154809291906001019190505550816003600083815260200190815260200160002060006101000a81548173ffffffffffffffffffffffffffffffffffffffff021916908373ffffffffffffffffffffffffffffffffffffffff160217905550808273ffffffffffffffffffffffffffffffffffffffff16600073ffffffffffffffffffffffffffffffffffffffff167fddf252ad1be2c89b69c2b068fc378daa952ba7f163c4a11628f55a4df523b3ef60405160405180910390a45050565b60606040518060e0016040528060a981526020016156d260a99139905090565b6060828260405160200161373a9291906155e8565b604051602081830303815290604052905092915050565b60606000821415613799576040518060400160405280600181526020017f300000000000000000000000000000000000000000000000000000000000000081525090506138ad565b600082905060005b600082146137cb5780806137b49061536b565b915050600a826137c49190615244565b91506137a1565b60008167ffffffffffffffff8111156137e7576137e6613c5c565b5b6040519080825280601f01601f1916602001820160405280156138195781602001600182028036833780820191505090505b5090505b600085146138a6576001826138329190614783565b9150600a856138419190615669565b603061384d9190615315565b60f81b81838151811061386357613862614f8f565b5b60200101907effffffffffffffffffffffffffffffffffffffffffffffffffffffffffffff1916908160001a905350600a8561389f9190615244565b945061381d565b8093505050505b919050565b6000600a8260f81c60ff1610156138dd5760308260f81c6138d3919061569a565b60f81b90506138f3565b60578260f81c6138ed919061569a565b60f81b90505b919050565b6040518061010001604052806008905b60608152602001906001900390816139085790505090565b6000604051905090565b600080fd5b600080fd5b60007fffffffff0000000000000000000000000000000000000000000000000000000082169050919050565b61396981613934565b811461397457600080fd5b50565b60008135905061398681613960565b92915050565b6000602082840312156139a2576139a161392a565b5b60006139b084828501613977565b91505092915050565b60008115159050919050565b6139ce816139b9565b82525050565b60006020820190506139e960008301846139c5565b92915050565b600081519050919050565b600082825260208201905092915050565b60005b83811015613a29578082015181840152602081019050613a0e565b83811115613a38576000848401525b50505050565b6000601f19601f8301169050919050565b6000613a5a826139ef565b613a6481856139fa565b9350613a74818560208601613a0b565b613a7d81613a3e565b840191505092915050565b60006020820190508181036000830152613aa28184613a4f565b905092915050565b6000819050919050565b613abd81613aaa565b8114613ac857600080fd5b50565b600081359050613ada81613ab4565b92915050565b600060208284031215613af657613af561392a565b5b6000613b0484828501613acb565b91505092915050565b600073ffffffffffffffffffffffffffffffffffffffff82169050919050565b6000613b3882613b0d565b9050919050565b613b4881613b2d565b82525050565b6000602082019050613b636000830184613b3f565b92915050565b613b7281613b2d565b8114613b7d57600080fd5b50565b600081359050613b8f81613b69565b92915050565b60008060408385031215613bac57613bab61392a565b5b6000613bba85828601613b80565b9250506020613bcb85828601613acb565b9150509250929050565b613bde81613aaa565b82525050565b6000602082019050613bf96000830184613bd5565b92915050565b600080600060608486031215613c1857613c1761392a565b5b6000613c2686828701613b80565b9350506020613c3786828701613b80565b9250506040613c4886828701613acb565b9150509250925092565b600080fd5b600080fd5b7f4e487b7100000000000000000000000000000000000000000000000000000000600052604160045260246000fd5b613c9482613a3e565b810181811067ffffffffffffffff82111715613cb357613cb2613c5c565b5b80604052505050565b6000613cc6613920565b9050613cd28282613c8b565b919050565b600067ffffffffffffffff821115613cf257613cf1613c5c565b5b613cfb82613a3e565b9050602081019050919050565b82818337600083830152505050565b6000613d2a613d2584613cd7565b613cbc565b905082815260208101848484011115613d4657613d45613c57565b5b613d51848285613d08565b509392505050565b600082601f830112613d6e57613d6d613c52565b5b8135613d7e848260208601613d17565b91505092915050565b600067ffffffffffffffff821115613da257613da1613c5c565b5b613dab82613a3e565b9050602081019050919050565b6000613dcb613dc684613d87565b613cbc565b905082815260208101848484011115613de757613de6613c57565b5b613df2848285613d08565b509392505050565b600082601f830112613e0f57613e0e613c52565b5b8135613e1f848260208601613db8565b91505092915050565b600080600060608486031215613e4157613e4061392a565b5b6000613e4f86828701613b80565b935050602084013567ffffffffffffffff811115613e7057613e6f61392f565b5b613e7c86828701613d59565b925050604084013567ffffffffffffffff811115613e9d57613e9c61392f565b5b613ea986828701613dfa565b9150509250925092565b600060208284031215613ec957613ec861392a565b5b6000613ed784828501613b80565b91505092915050565b600060089050919050565b600081905092915050565b6000819050919050565b600082825260208201905092915050565b6000613f1c826139ef565b613f268185613f00565b9350613f36818560208601613a0b565b613f3f81613a3e565b840191505092915050565b6000613f568383613f11565b905092915050565b6000602082019050919050565b6000613f7682613ee0565b613f808185613eeb565b935083602082028501613f9285613ef6565b8060005b85811015613fce5784840389528151613faf8582613f4a565b9450613fba83613f5e565b925060208a01995050600181019050613f96565b50829750879550505050505092915050565b60006020820190508181036000830152613ffa8184613f6b565b905092915050565b6000819050919050565b61401581614002565b811461402057600080fd5b50565b6000813590506140328161400c565b92915050565b6000806040838503121561404f5761404e61392a565b5b600061405d85828601614023565b925050602083013567ffffffffffffffff81111561407e5761407d61392f565b5b61408a85828601613dfa565b9150509250929050565b600080604083850312156140ab576140aa61392a565b5b60006140b985828601613b80565b925050602083013567ffffffffffffffff8111156140da576140d961392f565b5b6140e685828601613dfa565b9150509250929050565b6140f9816139b9565b811461410457600080fd5b50565b600081359050614116816140f0565b92915050565b600080604083850312156141335761413261392a565b5b600061414185828601613b80565b925050602061415285828601614107565b9150509250929050565b6000602082840312156141725761417161392a565b5b600082013567ffffffffffffffff8111156141905761418f61392f565b5b61419c84828501613dfa565b91505092915050565b6141ae81614002565b82525050565b600060ff82169050919050565b6141ca816141b4565b82525050565b60006060820190506141e560008301866141a5565b6141f260208301856141a5565b6141ff60408301846141c1565b949350505050565b60006020828403121561421d5761421c61392a565b5b600082013567ffffffffffffffff81111561423b5761423a61392f565b5b61424784828501613d59565b91505092915050565b600060208201905061426560008301846141a5565b92915050565b600080600080608085870312156142855761428461392a565b5b600061429387828801613b80565b94505060206142a487828801613b80565b93505060406142b587828801613acb565b925050606085013567ffffffffffffffff8111156142d6576142d561392f565b5b6142e287828801613dfa565b91505092959194509250565b600080604083850312156143055761430461392a565b5b600061431385828601613b80565b925050602061432485828601613b80565b9150509250929050565b6000602082840312156143445761434361392a565b5b600061435284828501614023565b91505092915050565b7f4e487b7100000000000000000000000000000000000000000000000000000000600052602260045260246000fd5b600060028204905060018216806143a257607f821691505b602082108114156143b6576143b561435b565b5b50919050565b7f4e4f545f415554484f52495a4544000000000000000000000000000000000000600082015250565b60006143f2600e836139fa565b91506143fd826143bc565b602082019050919050565b60006020820190508181036000830152614421816143e5565b9050919050565b7f57524f4e475f46524f4d00000000000000000000000000000000000000000000600082015250565b600061445e600a836139fa565b915061446982614428565b602082019050919050565b6000602082019050818103600083015261448d81614451565b9050919050565b7f494e56414c49445f524543495049454e54000000000000000000000000000000600082015250565b60006144ca6011836139fa565b91506144d582614494565b602082019050919050565b600060208201905081810360008301526144f9816144bd565b9050919050565b600082825260208201905092915050565b50565b6000614521600083614500565b915061452c82614511565b600082019050919050565b600060808201905061454c6000830186613b3f565b6145596020830185613b3f565b6145666040830184613bd5565b818103606083015261457781614514565b9050949350505050565b60008151905061459081613960565b92915050565b6000602082840312156145ac576145ab61392a565b5b60006145ba84828501614581565b91505092915050565b7f554e534146455f524543495049454e5400000000000000000000000000000000600082015250565b60006145f96010836139fa565b9150614604826145c3565b602082019050919050565b60006020820190508181036000830152614628816145ec565b9050919050565b600061464261463d84613cd7565b613cbc565b90508281526020810184848401111561465e5761465d613c57565b5b614669848285613a0b565b509392505050565b600082601f83011261468657614685613c52565b5b815161469684826020860161462f565b91505092915050565b6000602082840312156146b5576146b461392a565b5b600082015167ffffffffffffffff8111156146d3576146d261392f565b5b6146df84828501614671565b91505092915050565b7f496e73756666696369656e74207061796d656e74000000000000000000000000600082015250565b600061471e6014836139fa565b9150614729826146e8565b602082019050919050565b6000602082019050818103600083015261474d81614711565b9050919050565b7f4e487b7100000000000000000000000000000000000000000000000000000000600052601160045260246000fd5b600061478e82613aaa565b915061479983613aaa565b9250828210156147ac576147ab614754565b5b828203905092915050565b60006080820190506147cc60008301876141a5565b6147d960208301866141c1565b6147e660408301856141a5565b6147f360608301846141a5565b95945050505050565b7f496e76616c6964207369676e6174757265000000000000000000000000000000600082015250565b60006148326011836139fa565b915061483d826147fc565b602082019050919050565b6000602082019050818103600083015261486181614825565b9050919050565b7f696e76616c6964207369676e6174757265206c656e6774680000000000000000600082015250565b600061489e6018836139fa565b91506148a982614868565b602082019050919050565b600060208201905081810360008301526148cd81614891565b9050919050565b600081905092915050565b60006148ea826139ef565b6148f481856148d4565b9350614904818560208601613a0b565b80840191505092915050565b600061491c82846148df565b915081905092915050565b600081519050919050565b600061493d82614927565b6149478185614500565b9350614957818560208601613a0b565b61496081613a3e565b840191505092915050565b60006080820190506149806000830187613b3f565b61498d6020830186613b3f565b61499a6040830185613bd5565b81810360608301526149ac8184614932565b905095945050505050565b7f3c7376672076696577426f783d22302030203530203530222077696474683d2260008201527f313030302220786d6c6e733d22687474703a2f2f7777772e77332e6f72672f3260208201527f3030302f737667223e0000000000000000000000000000000000000000000000604082015250565b6000614a396049836148d4565b9150614a44826149b7565b604982019050919050565b7f3c2f7376673e0000000000000000000000000000000000000000000000000000815250565b6000614a8082614a2c565b9150614a8c82856148df565b9150614a9882846148df565b9150614aa382614a4f565b6006820191508190509392505050565b7f7b226e616d65223a202242616720307800000000000000000000000000000000600082015250565b6000614ae96010836148d4565b9150614af482614ab3565b601082019050919050565b7f222c20226465736372697074696f6e223a20224c6f6f742069732072616e646f60008201527f6d697a656420616476656e747572657220676561722067656e6572617465642060208201527f616e642073746f726564206f6e20636861696e2e2053746174732c20696d616760408201527f65732c20616e64206f746865722066756e6374696f6e616c697479206172652060608201527f696e74656e74696f6e616c6c79206f6d697474656420666f72206f746865727360808201527f20746f20696e746572707265742e204665656c206672656520746f207573652060a08201527f4c6f6f7420696e20616e792077617920796f752077616e742e222c2022696d6160c08201527f6765223a2022646174613a696d6167652f7376672b786d6c3b6261736536342c60e082015250565b6000614c40610100836148d4565b9150614c4b82614aff565b61010082019050919050565b7f227d000000000000000000000000000000000000000000000000000000000000600082015250565b6000614c8d6002836148d4565b9150614c9882614c57565b600282019050919050565b6000614cae82614adc565b9150614cba82856148df565b9150614cc582614c32565b9150614cd182846148df565b9150614cdc82614c80565b91508190509392505050565b7f646174613a6170706c69636174696f6e2f6a736f6e3b6261736536342c000000600082015250565b6000614d1e601d836148d4565b9150614d2982614ce8565b601d82019050919050565b6000614d3f82614d11565b9150614d4b82846148df565b915081905092915050565b7f19457468657265756d205369676e6564204d6573736167653a0a333200000000600082015250565b6000614d8c601c836148d4565b9150614d9782614d56565b601c82019050919050565b6000819050919050565b614dbd614db882614002565b614da2565b82525050565b6000614dce82614d7f565b9150614dda8284614dac565b60208201915081905092915050565b7f3c646566733e0000000000000000000000000000000000000000000000000000815250565b7f3c2f646566733e00000000000000000000000000000000000000000000000000815250565b6000614e4082614de9565b600682019150614e5082846148df565b9150614e5b82614e0f565b60078201915081905092915050565b600081519050614e7981613ab4565b92915050565b600060208284031215614e9557614e9461392a565b5b6000614ea384828501614e6a565b91505092915050565b600067ffffffffffffffff821115614ec757614ec6613c5c565b5b602082029050919050565b600080fd5b6000614eea614ee584614eac565b613cbc565b90508060208402830185811115614f0457614f03614ed2565b5b835b81811015614f2d5780614f198882614e6a565b845260208401935050602081019050614f06565b5050509392505050565b600082601f830112614f4c57614f4b613c52565b5b6005614f59848285614ed7565b91505092915050565b600060a08284031215614f7857614f7761392a565b5b6000614f8684828501614f37565b91505092915050565b7f4e487b7100000000000000000000000000000000000000000000000000000000600052603260045260246000fd5b6000614fc982613aaa565b9150614fd483613aaa565b9250817fffffffffffffffffffffffffffffffffffffffffffffffffffffffffffffffff048311821515161561500d5761500c614754565b5b828202905092915050565b6000615024828c6148df565b9150615030828b6148df565b915061503c828a6148df565b915061504882896148df565b915061505482886148df565b915061506082876148df565b915061506c82866148df565b915061507882856148df565b915061508482846148df565b91508190509a9950505050505050505050565b60008160011c9050919050565b6000808291508390505b60018511156150ee578086048111156150ca576150c9614754565b5b60018516156150d95780820291505b80810290506150e785615097565b94506150ae565b94509492505050565b60008261510757600190506151c3565b8161511557600090506151c3565b816001811461512b576002811461513557615164565b60019150506151c3565b60ff84111561514757615146614754565b5b8360020a91508482111561515e5761515d614754565b5b506151c3565b5060208310610133831016604e8410600b84101617156151995782820a90508381111561519457615193614754565b5b6151c3565b6151a684848460016150a4565b925090508184048111156151bd576151bc614754565b5b81810290505b9392505050565b60006151d582613aaa565b91506151e083613aaa565b925061520d7fffffffffffffffffffffffffffffffffffffffffffffffffffffffffffffffff84846150f7565b905092915050565b7f4e487b7100000000000000000000000000000000000000000000000000000000600052601260045260246000fd5b600061524f82613aaa565b915061525a83613aaa565b92508261526a57615269615215565b5b828204905092915050565b6000615280826141b4565b915061528b836141b4565b92508261529b5761529a615215565b5b828204905092915050565b60006152b1826141b4565b91506152bc836141b4565b92508160ff04831182151516156152d6576152d5614754565b5b828202905092915050565b60006152ec826141b4565b91506152f7836141b4565b92508282101561530a57615309614754565b5b828203905092915050565b600061532082613aaa565b915061532b83613aaa565b9250827fffffffffffffffffffffffffffffffffffffffffffffffffffffffffffffffff038211156153605761535f614754565b5b828201905092915050565b600061537682613aaa565b91507fffffffffffffffffffffffffffffffffffffffffffffffffffffffffffffffff8214156153a9576153a8614754565b5b600182019050919050565b7f414c52454144595f4d494e544544000000000000000000000000000000000000600082015250565b60006153ea600e836139fa565b91506153f5826153b4565b602082019050919050565b60006020820190508181036000830152615419816153dd565b9050919050565b7f3c7376672077696474683d22353022206865696768743d22353022207669657760008201527f426f783d22000000000000000000000000000000000000000000000000000000602082015250565b600061547c6025836148d4565b915061548782615420565b602582019050919050565b7f2030203530203530223e00000000000000000000000000000000000000000000815250565b7f3c666f726569676e4f626a6563742077696474683d223130303030222068656960008201527f6768743d223530223e0000000000000000000000000000000000000000000000602082015250565b60006155146029836148d4565b915061551f826154b8565b602982019050919050565b7f3c696d6720786d6c6e733d22687474703a2f2f7777772e77332e6f72672f313960008201527f39392f7868746d6c22207372633d220000000000000000000000000000000000602082015250565b6000615586602f836148d4565b91506155918261552a565b602f82019050919050565b7f22202f3e00000000000000000000000000000000000000000000000000000000815250565b7f3c2f666f726569676e4f626a6563743e00000000000000000000000000000000815250565b60006155f38261546f565b91506155ff82856148df565b915061560a82615492565b600a8201915061561982615507565b915061562482615579565b915061563082846148df565b915061563b8261559c565b60048201915061564a826155c2565b60108201915061565982614a4f565b6006820191508190509392505050565b600061567482613aaa565b915061567f83613aaa565b92508261568f5761568e615215565b5b828206905092915050565b60006156a5826141b4565b91506156b0836141b4565b92508260ff038211156156c6576156c5614754565b5b82820190509291505056fe3c7374796c653e20696d67207b20696d6167652d72656e646572696e673a202d7765626b69742d6f7074696d697a652d636f6e74726173743b20696d6167652d72656e646572696e673a2063726973702d65646765733b20696d6167652d72656e646572696e673a20706978656c617465643b206865696768743a20353070783b7d20737667207b206261636b67726f756e64203a20233141314131413b207d203c2f7374796c653e516d62634b557537314a68363474754a34316657614c6a345852536b7033756d5966615252706e626a4d786548334142434445464748494a4b4c4d4e4f505152535455565758595a6162636465666768696a6b6c6d6e6f707172737475767778797a303132333435363738392b2fa2646970667358221220ac72dde43c6252723d1c1dd7d3247567e104a807a9f96a469e872f1e53aa98f564736f6c634300080c0033",
  "devdoc": {
    "kind": "dev",
    "methods": {},
    "version": 1
  },
  "userdoc": {
    "kind": "user",
    "methods": {},
    "version": 1
  },
  "storageLayout": {
    "storage": [
      {
        "astId": 231,
        "contract": "contracts/SyntheticLootCharacter.sol:SyntheticLootCharacter",
        "label": "name",
        "offset": 0,
        "slot": "0",
        "type": "t_string_storage"
      },
      {
        "astId": 233,
        "contract": "contracts/SyntheticLootCharacter.sol:SyntheticLootCharacter",
        "label": "symbol",
        "offset": 0,
        "slot": "1",
        "type": "t_string_storage"
      },
      {
        "astId": 244,
        "contract": "contracts/SyntheticLootCharacter.sol:SyntheticLootCharacter",
        "label": "balanceOf",
        "offset": 0,
        "slot": "2",
        "type": "t_mapping(t_address,t_uint256)"
      },
      {
        "astId": 248,
        "contract": "contracts/SyntheticLootCharacter.sol:SyntheticLootCharacter",
        "label": "ownerOf",
        "offset": 0,
        "slot": "3",
        "type": "t_mapping(t_uint256,t_address)"
      },
      {
        "astId": 252,
        "contract": "contracts/SyntheticLootCharacter.sol:SyntheticLootCharacter",
        "label": "getApproved",
        "offset": 0,
        "slot": "4",
        "type": "t_mapping(t_uint256,t_address)"
      },
      {
        "astId": 258,
        "contract": "contracts/SyntheticLootCharacter.sol:SyntheticLootCharacter",
        "label": "isApprovedForAll",
        "offset": 0,
        "slot": "5",
        "type": "t_mapping(t_address,t_mapping(t_address,t_bool))"
      },
      {
        "astId": 1287,
        "contract": "contracts/SyntheticLootCharacter.sol:SyntheticLootCharacter",
        "label": "claimed",
        "offset": 0,
        "slot": "6",
        "type": "t_mapping(t_address,t_bool)"
      },
      {
        "astId": 742,
        "contract": "contracts/SyntheticLootCharacter.sol:SyntheticLootCharacter",
        "label": "renderOrder",
        "offset": 0,
        "slot": "7",
        "type": "t_array(t_string_storage)8_storage"
      },
      {
        "astId": 748,
        "contract": "contracts/SyntheticLootCharacter.sol:SyntheticLootCharacter",
        "label": "syntheticLoot",
        "offset": 0,
        "slot": "15",
        "type": "t_contract(SyntheticLoot)2722"
      },
      {
        "astId": 751,
        "contract": "contracts/SyntheticLootCharacter.sol:SyntheticLootCharacter",
        "label": "assets",
        "offset": 0,
        "slot": "16",
        "type": "t_contract(ISyntheticLootCharacterAssets)2831"
      },
      {
        "astId": 754,
        "contract": "contracts/SyntheticLootCharacter.sol:SyntheticLootCharacter",
        "label": "gateways",
        "offset": 0,
        "slot": "17",
        "type": "t_array(t_string_storage)dyn_storage"
      }
    ],
    "types": {
      "t_address": {
        "encoding": "inplace",
        "label": "address",
        "numberOfBytes": "20"
      },
      "t_array(t_string_storage)8_storage": {
        "base": "t_string_storage",
        "encoding": "inplace",
        "label": "string[8]",
        "numberOfBytes": "256"
      },
      "t_array(t_string_storage)dyn_storage": {
        "base": "t_string_storage",
        "encoding": "dynamic_array",
        "label": "string[]",
        "numberOfBytes": "32"
      },
      "t_bool": {
        "encoding": "inplace",
        "label": "bool",
        "numberOfBytes": "1"
      },
      "t_contract(ISyntheticLootCharacterAssets)2831": {
        "encoding": "inplace",
        "label": "contract ISyntheticLootCharacterAssets",
        "numberOfBytes": "20"
      },
      "t_contract(SyntheticLoot)2722": {
        "encoding": "inplace",
        "label": "contract SyntheticLoot",
        "numberOfBytes": "20"
      },
      "t_mapping(t_address,t_bool)": {
        "encoding": "mapping",
        "key": "t_address",
        "label": "mapping(address => bool)",
        "numberOfBytes": "32",
        "value": "t_bool"
      },
      "t_mapping(t_address,t_mapping(t_address,t_bool))": {
        "encoding": "mapping",
        "key": "t_address",
        "label": "mapping(address => mapping(address => bool))",
        "numberOfBytes": "32",
        "value": "t_mapping(t_address,t_bool)"
      },
      "t_mapping(t_address,t_uint256)": {
        "encoding": "mapping",
        "key": "t_address",
        "label": "mapping(address => uint256)",
        "numberOfBytes": "32",
        "value": "t_uint256"
      },
      "t_mapping(t_uint256,t_address)": {
        "encoding": "mapping",
        "key": "t_uint256",
        "label": "mapping(uint256 => address)",
        "numberOfBytes": "32",
        "value": "t_address"
      },
      "t_string_storage": {
        "encoding": "bytes",
        "label": "string",
        "numberOfBytes": "32"
      },
      "t_uint256": {
        "encoding": "inplace",
        "label": "uint256",
        "numberOfBytes": "32"
      }
    }
  }
}